{
  "contractName": "cDao",
  "abi": [
    {
      "constant": true,
      "inputs": [
        {
          "name": "",
          "type": "address"
        }
      ],
      "name": "contractorInfo",
      "outputs": [
        {
          "name": "contractorAddress",
          "type": "address"
        },
        {
          "name": "tokenAllocation",
          "type": "uint256"
        },
        {
          "name": "remainingTokens",
          "type": "uint256"
        }
      ],
      "payable": false,
      "stateMutability": "view",
      "type": "function"
    },
    {
      "constant": true,
      "inputs": [
        {
          "name": "",
          "type": "string"
        }
      ],
      "name": "invoiceSubmission",
      "outputs": [
        {
          "name": "submittor",
          "type": "address"
        },
        {
          "name": "invoiceHash",
          "type": "string"
        },
        {
          "name": "invoiceDate",
          "type": "uint256"
        },
        {
          "name": "amountRequested",
          "type": "uint256"
        }
      ],
      "payable": false,
      "stateMutability": "view",
      "type": "function"
    },
    {
      "inputs": [
        {
          "name": "_fundName",
          "type": "string"
        },
        {
          "name": "_debtIssuer",
          "type": "address"
        },
        {
          "name": "_operatorOwner",
          "type": "address"
        },
        {
          "name": "_fundAmount",
          "type": "uint256"
        },
        {
          "name": "_subContractors",
          "type": "address[]"
        },
        {
          "name": "_allocations",
          "type": "uint256[]"
        }
      ],
      "payable": false,
      "stateMutability": "nonpayable",
      "type": "constructor"
    },
    {
      "constant": true,
      "inputs": [],
      "name": "getTotalTokens",
      "outputs": [
        {
          "name": "",
          "type": "uint256"
        }
      ],
      "payable": false,
      "stateMutability": "view",
      "type": "function"
    },
    {
      "constant": true,
      "inputs": [],
      "name": "getDaoDetails",
      "outputs": [
        {
          "name": "",
          "type": "address"
        },
        {
          "name": "",
          "type": "string"
        },
        {
          "name": "",
          "type": "uint256"
        },
        {
          "name": "",
          "type": "uint256"
        },
        {
          "name": "",
          "type": "address"
        },
        {
          "name": "",
          "type": "address"
        }
      ],
      "payable": false,
      "stateMutability": "view",
      "type": "function"
    },
    {
      "constant": true,
      "inputs": [],
      "name": "getDaoBalance",
      "outputs": [
        {
          "name": "",
          "type": "uint256"
        }
      ],
      "payable": false,
      "stateMutability": "view",
      "type": "function"
    },
    {
      "constant": true,
      "inputs": [],
      "name": "getDaoContractors",
      "outputs": [
        {
          "name": "",
          "type": "address[]"
        }
      ],
      "payable": false,
      "stateMutability": "view",
      "type": "function"
    },
    {
      "constant": true,
      "inputs": [],
      "name": "getDaoAllocations",
      "outputs": [
        {
          "name": "",
          "type": "uint256[]"
        }
      ],
      "payable": false,
      "stateMutability": "view",
      "type": "function"
    },
    {
      "constant": false,
      "inputs": [
        {
          "name": "_fileHash",
          "type": "string"
        },
        {
          "name": "_amountRequested",
          "type": "uint256"
        }
      ],
      "name": "doSubmitInvoice",
      "outputs": [],
      "payable": false,
      "stateMutability": "nonpayable",
      "type": "function"
    },
    {
      "constant": false,
      "inputs": [
        {
          "name": "_to",
          "type": "address"
        },
        {
          "name": "_value",
          "type": "uint256"
        }
      ],
      "name": "transfer",
      "outputs": [
        {
          "name": "success",
          "type": "bool"
        }
      ],
      "payable": false,
      "stateMutability": "nonpayable",
      "type": "function"
    },
    {
      "constant": false,
      "inputs": [
        {
          "name": "_to",
          "type": "address"
        },
        {
          "name": "_amount",
          "type": "uint256"
        }
      ],
      "name": "pullFundsBurnToken",
      "outputs": [
        {
          "name": "success",
          "type": "bool"
        }
      ],
      "payable": false,
      "stateMutability": "nonpayable",
      "type": "function"
    }
  ],
  "bytecode": "0x60806040523480156200001157600080fd5b506040516200118838038062001188833981018060405260c08110156200003757600080fd5b8101908080516401000000008111156200005057600080fd5b828101905060208101848111156200006757600080fd5b81518560018202830111640100000000821117156200008557600080fd5b50509291906020018051906020019092919080519060200190929190805190602001909291908051640100000000811115620000c057600080fd5b82810190506020810184811115620000d757600080fd5b8151856020820283011164010000000082111715620000f557600080fd5b505092919060200180516401000000008111156200011257600080fd5b828101905060208101848111156200012957600080fd5b81518560208202830111640100000000821117156200014757600080fd5b505092919050505030600460006101000a81548173ffffffffffffffffffffffffffffffffffffffff021916908373ffffffffffffffffffffffffffffffffffffffff160217905550426003819055508560059080519060200190620001af929190620003c1565b5084600760006101000a81548173ffffffffffffffffffffffffffffffffffffffff021916908373ffffffffffffffffffffffffffffffffffffffff16021790555083600660006101000a81548173ffffffffffffffffffffffffffffffffffffffff021916908373ffffffffffffffffffffffffffffffffffffffff160217905550826008819055508260098190555082600a8190555060008090505b8251811015620003825760405180606001604052808483815181106200026f57fe5b602002602001015173ffffffffffffffffffffffffffffffffffffffff1681526020018383815181106200029f57fe5b60200260200101518152602001838381518110620002b957fe5b6020026020010151815250600080858481518110620002d457fe5b602002602001015173ffffffffffffffffffffffffffffffffffffffff1673ffffffffffffffffffffffffffffffffffffffff16815260200190815260200160002060008201518160000160006101000a81548173ffffffffffffffffffffffffffffffffffffffff021916908373ffffffffffffffffffffffffffffffffffffffff160217905550602082015181600101556040820151816002015590505080806001019150506200024d565b5080600c90805190602001906200039b92919062000448565b5081600b9080519060200190620003b49291906200049a565b5050505050505062000597565b828054600181600116156101000203166002900490600052602060002090601f016020900481019282601f106200040457805160ff191683800117855562000435565b8280016001018555821562000435579182015b828111156200043457825182559160200191906001019062000417565b5b50905062000444919062000529565b5090565b82805482825590600052602060002090810192821562000487579160200282015b828111156200048657825182559160200191906001019062000469565b5b50905062000496919062000529565b5090565b82805482825590600052602060002090810192821562000516579160200282015b82811115620005155782518260006101000a81548173ffffffffffffffffffffffffffffffffffffffff021916908373ffffffffffffffffffffffffffffffffffffffff16021790555091602001919060010190620004bb565b5b50905062000525919062000551565b5090565b6200054e91905b808211156200054a57600081600090555060010162000530565b5090565b90565b6200059491905b808211156200059057600081816101000a81549073ffffffffffffffffffffffffffffffffffffffff02191690555060010162000558565b5090565b90565b610be180620005a76000396000f3fe608060405234801561001057600080fd5b506004361061009e5760003560e01c8063a9059cbb11610066578063a9059cbb146103e2578063d0bbdc2414610448578063e9c6968c146104ae578063f046f98414610623578063f08b82e6146106415761009e565b806308746fd4146100a35780630e58eca4146101cd57806337a35012146102925780635a679e12146102f1578063a6078acc14610350575b600080fd5b6100ab61065f565b604051808773ffffffffffffffffffffffffffffffffffffffff1673ffffffffffffffffffffffffffffffffffffffff168152602001806020018681526020018581526020018473ffffffffffffffffffffffffffffffffffffffff1673ffffffffffffffffffffffffffffffffffffffff1681526020018373ffffffffffffffffffffffffffffffffffffffff1673ffffffffffffffffffffffffffffffffffffffff168152602001828103825287818151815260200191508051906020019080838360005b8381101561018d578082015181840152602081019050610172565b50505050905090810190601f1680156101ba5780820380516001836020036101000a031916815260200191505b5097505050505050505060405180910390f35b610290600480360360408110156101e357600080fd5b810190808035906020019064010000000081111561020057600080fd5b82018360208201111561021257600080fd5b8035906020019184600183028401116401000000008311171561023457600080fd5b91908080601f016020809104026020016040519081016040528093929190818152602001838380828437600081840152601f19601f8201169050808301925050505050505091929192908035906020019092919050505061078a565b005b61029a6108a9565b6040518080602001828103825283818151815260200191508051906020019060200280838360005b838110156102dd5780820151818401526020810190506102c2565b505050509050019250505060405180910390f35b6102f9610937565b6040518080602001828103825283818151815260200191508051906020019060200280838360005b8381101561033c578082015181840152602081019050610321565b505050509050019250505060405180910390f35b6103926004803603602081101561036657600080fd5b81019080803573ffffffffffffffffffffffffffffffffffffffff16906020019092919050505061098f565b604051808473ffffffffffffffffffffffffffffffffffffffff1673ffffffffffffffffffffffffffffffffffffffff168152602001838152602001828152602001935050505060405180910390f35b61042e600480360360408110156103f857600080fd5b81019080803573ffffffffffffffffffffffffffffffffffffffff169060200190929190803590602001909291905050506109d9565b604051808215151515815260200191505060405180910390f35b6104946004803603604081101561045e57600080fd5b81019080803573ffffffffffffffffffffffffffffffffffffffff169060200190929190803590602001909291905050506109e1565b604051808215151515815260200191505060405180910390f35b610567600480360360208110156104c457600080fd5b81019080803590602001906401000000008111156104e157600080fd5b8201836020820111156104f357600080fd5b8035906020019184600183028401116401000000008311171561051557600080fd5b91908080601f016020809104026020016040519081016040528093929190818152602001838380828437600081840152601f19601f8201169050808301925050505050505091929192905050506109e9565b604051808573ffffffffffffffffffffffffffffffffffffffff1673ffffffffffffffffffffffffffffffffffffffff16815260200180602001848152602001838152602001828103825285818151815260200191508051906020019080838360005b838110156105e55780820151818401526020810190506105ca565b50505050905090810190601f1680156106125780820380516001836020036101000a031916815260200191505b509550505050505060405180910390f35b61062b610ae7565b6040518082815260200191505060405180910390f35b610649610b06565b6040518082815260200191505060405180910390f35b60006060600080600080600460009054906101000a900473ffffffffffffffffffffffffffffffffffffffff166005600354600a54600760009054906101000a900473ffffffffffffffffffffffffffffffffffffffff16600660009054906101000a900473ffffffffffffffffffffffffffffffffffffffff16848054600181600116156101000203166002900480601f01602080910402602001604051908101604052809291908181526020018280546001816001161561010002031660029004801561076f5780601f106107445761010080835404028352916020019161076f565b820191906000526020600020905b81548152906001019060200180831161075257829003601f168201915b50505050509450955095509550955095509550909192939495565b60405180608001604052803373ffffffffffffffffffffffffffffffffffffffff168152602001838152602001428152602001828152506002836040518082805190602001908083835b602083106107f757805182526020820191506020810190506020830392506107d4565b6001836020036101000a038019825116818451168082178552505050505050905001915050908152602001604051809103902060008201518160000160006101000a81548173ffffffffffffffffffffffffffffffffffffffff021916908373ffffffffffffffffffffffffffffffffffffffff160217905550602082015181600101908051906020019061088d929190610b10565b5060408201518160020155606082015181600301559050505050565b6060600b80548060200260200160405190810160405280929190818152602001828054801561092d57602002820191906000526020600020905b8160009054906101000a900473ffffffffffffffffffffffffffffffffffffffff1673ffffffffffffffffffffffffffffffffffffffff16815260200190600101908083116108e3575b5050505050905090565b6060600c80548060200260200160405190810160405280929190818152602001828054801561098557602002820191906000526020600020905b815481526020019060010190808311610971575b5050505050905090565b60006020528060005260406000206000915090508060000160009054906101000a900473ffffffffffffffffffffffffffffffffffffffff16908060010154908060020154905083565b600092915050565b600092915050565b6002818051602081018201805184825260208301602085012081835280955050505050506000915090508060000160009054906101000a900473ffffffffffffffffffffffffffffffffffffffff1690806001018054600181600116156101000203166002900480601f016020809104026020016040519081016040528092919081815260200182805460018160011615610100020316600290048015610ad15780601f10610aa657610100808354040283529160200191610ad1565b820191906000526020600020905b815481529060010190602001808311610ab457829003601f168201915b5050505050908060020154908060030154905084565b60003073ffffffffffffffffffffffffffffffffffffffff1631905090565b6000600954905090565b828054600181600116156101000203166002900490600052602060002090601f016020900481019282601f10610b5157805160ff1916838001178555610b7f565b82800160010185558215610b7f579182015b82811115610b7e578251825591602001919060010190610b63565b5b509050610b8c9190610b90565b5090565b610bb291905b80821115610bae576000816000905550600101610b96565b5090565b9056fea165627a7a7230582003ef377f5546b34ef2ffbd6f6c758304d7c4fd768579f09fba6b16f1fc9f533b0029",
  "source": "pragma solidity ^0.5.3;\r\n\r\ncontract cDao {\r\n\r\n    //Amount of tokens in your contract\r\n    //mapping(address => uint256) public tokens;\r\n    //might not need a mapping\r\n\r\n    struct contractor {\r\n        address contractorAddress;\r\n        uint tokenAllocation;\r\n        uint remainingTokens;\r\n    }\r\n\r\n    // Structure for submitted invoice to the cDao\r\n    struct invoice{\r\n        address submittor;\r\n        string invoiceHash;\r\n        uint invoiceDate;\r\n        uint amountRequested;\r\n    }\r\n\r\n    //contractor[address] will retrieve their address and token allocation\r\n    mapping(address => contractor) public contractorInfo;\r\n\r\n    //need an array of invoices\r\n    address[] invoices;\r\n\r\n    //need to setup an invoice struct map\r\n    mapping(string => invoice) public invoiceSubmission;\r\n\r\n    //Date of contract creation (unix time)\r\n    uint creationDate;\r\n\r\n    //This will be the address of the fund\r\n    address fundId;\r\n\r\n    //Fund Name\r\n    string fundName;\r\n\r\n    //This is the person that will approve everything\r\n    address operatorOwner;\r\n\r\n    //This person is issuing the debt (government)\r\n    address debtIssuer;\r\n\r\n    //This is the amount of money being issued\r\n    uint fundAmount;\r\n\r\n    //Amount of tokens created\r\n    uint totalTokens;\r\n\r\n    //Current amount of tokens left\r\n    uint currentTokens;\r\n\r\n    //These people are able to receive funds\r\n    //And these people would be able to request\r\n    address[] subContractors;\r\n\r\n    //These are the allocations amounts of the total\r\n    uint[] allocations;\r\n\r\n    //Approve proposal - if this is true then we can build the contract\r\n    bool approved;\r\n\r\n    //Do we need a time release for funds would this be a schedule like a once every month? Or maybe an end release date?\r\n    //uint releaseFundsDate;\r\n    \r\n    //How much can this contract send out --- not needed I think.\r\n    //mapping(address => mapping(address => uint256)) public allowance;\r\n\r\n    constructor(\r\n        string memory _fundName, address _debtIssuer, address _operatorOwner, uint _fundAmount, address[] memory _subContractors, uint[] memory _allocations\r\n        ) public {\r\n        fundId = address(this);\r\n        creationDate = now;\r\n        fundName = _fundName;\r\n        debtIssuer = _debtIssuer;\r\n        operatorOwner = _operatorOwner;\r\n        fundAmount = _fundAmount;\r\n        totalTokens = _fundAmount;\r\n        currentTokens = _fundAmount;\r\n        //We need to confirm that the total amount of allocations in the array are not > the total tokens being submitted.\r\n        for (uint i = 0; i < _subContractors.length; i++) {\r\n            contractorInfo[_subContractors[i]] = contractor(_subContractors[i], _allocations[i], _allocations[i]);\r\n        }\r\n        allocations = _allocations;\r\n        subContractors = _subContractors;\r\n    }\r\n\r\n    function getTotalTokens() public view returns (uint){\r\n        return totalTokens;\r\n    }\r\n\r\n    function getDaoDetails() public view returns (address, string memory, uint, uint, address, address){\r\n        return (fundId, fundName, creationDate, currentTokens, debtIssuer, operatorOwner);\r\n    }\r\n\r\n    function getDaoBalance() public view returns (uint){\r\n        return address(this).balance;\r\n    }\r\n\r\n    function getDaoContractors() public view returns (address[] memory){\r\n        return subContractors;\r\n    }\r\n\r\n    function getDaoAllocations() public view returns (uint[] memory){\r\n        return allocations;\r\n    }\r\n\r\n    function doSubmitInvoice(string memory _fileHash, uint _amountRequested) public {\r\n        invoiceSubmission[_fileHash] = invoice(msg.sender, _fileHash, now, _amountRequested);\r\n    }\r\n\r\n    function transfer(address _to, uint256 _value) public returns (bool success) {\r\n        //require(balanceOf[msg.sender] >= _value);\r\n        //balanceOf[msg.sender] -= _value;\r\n        //balanceOf[_to] += _value;\r\n        //Transfer(msg.sender, _to, _value);\r\n        //return true;\r\n    }\r\n\r\n    function pullFundsBurnToken(address _to, uint _amount) public returns (bool success) {\r\n        //confirm the address trying to pull funds is eligibile to pull funds\r\n        //check to see if \r\n    }\r\n\r\n    //possible functionality --- block additional fund transfers into the Dao if the fundAdmount !== 0 \r\n\r\n}",
  "sourcePath": "C:\\Users\\Steami\\Projects\\b4g\\contracts\\cDao.sol",
  "compiler": {
    "name": "solc",
    "version": "0.5.8+commit.23d335f2.Emscripten.clang"
  },
  "schemaVersion": "3.0.16",
  "updatedAt": "2019-10-27T02:35:45.136Z",
  "devdoc": {
    "methods": {}
  },
  "userdoc": {
    "methods": {}
  }
}