{
  "contractName": "cDao",
  "abi": [
    {
      "constant": true,
      "inputs": [
        {
          "name": "",
          "type": "string"
        }
      ],
      "name": "invoiceData",
      "outputs": [
        {
          "name": "submittor",
          "type": "address"
        },
        {
          "name": "invoiceHash",
          "type": "string"
        },
        {
          "name": "invoiceDate",
          "type": "uint256"
        },
        {
          "name": "amountRequested",
          "type": "uint256"
        },
        {
          "name": "complete",
          "type": "bool"
        }
      ],
      "payable": false,
      "stateMutability": "view",
      "type": "function"
    },
    {
      "constant": true,
      "inputs": [
        {
          "name": "",
          "type": "address"
        }
      ],
      "name": "contractorInfo",
      "outputs": [
        {
          "name": "contractorAddress",
          "type": "address"
        },
        {
          "name": "initialTokensAllocated",
          "type": "uint256"
        },
        {
          "name": "remainingTokensAllocated",
          "type": "uint256"
        },
        {
          "name": "currentAvailableTokens",
          "type": "uint256"
        }
      ],
      "payable": false,
      "stateMutability": "view",
      "type": "function"
    },
    {
      "inputs": [
        {
          "name": "_fundName",
          "type": "string"
        },
        {
          "name": "_debtIssuer",
          "type": "address"
        },
        {
          "name": "_operatorOwner",
          "type": "address"
        },
        {
          "name": "_fundAmount",
          "type": "uint256"
        },
        {
          "name": "_subContractors",
          "type": "address[]"
        },
        {
          "name": "_allocations",
          "type": "uint256[]"
        }
      ],
      "payable": false,
      "stateMutability": "nonpayable",
      "type": "constructor"
    },
    {
      "constant": true,
      "inputs": [],
      "name": "getTotalTokens",
      "outputs": [
        {
          "name": "",
          "type": "uint256"
        }
      ],
      "payable": false,
      "stateMutability": "view",
      "type": "function"
    },
    {
      "constant": true,
      "inputs": [],
      "name": "getRemainingTokens",
      "outputs": [
        {
          "name": "",
          "type": "uint256"
        }
      ],
      "payable": false,
      "stateMutability": "view",
      "type": "function"
    },
    {
      "constant": true,
      "inputs": [],
      "name": "getDaoDetails",
      "outputs": [
        {
          "name": "",
          "type": "address"
        },
        {
          "name": "",
          "type": "string"
        },
        {
          "name": "",
          "type": "uint256"
        },
        {
          "name": "",
          "type": "uint256"
        },
        {
          "name": "",
          "type": "address"
        },
        {
          "name": "",
          "type": "address"
        },
        {
          "name": "",
          "type": "address[]"
        }
      ],
      "payable": false,
      "stateMutability": "view",
      "type": "function"
    },
    {
      "constant": true,
      "inputs": [],
      "name": "getDaoBalance",
      "outputs": [
        {
          "name": "",
          "type": "uint256"
        }
      ],
      "payable": false,
      "stateMutability": "view",
      "type": "function"
    },
    {
      "constant": true,
      "inputs": [],
      "name": "getDaoContractorsWithFunds",
      "outputs": [
        {
          "name": "",
          "type": "address[]"
        },
        {
          "name": "",
          "type": "uint256[]"
        },
        {
          "name": "",
          "type": "uint256[]"
        },
        {
          "name": "",
          "type": "uint256[]"
        }
      ],
      "payable": false,
      "stateMutability": "view",
      "type": "function"
    },
    {
      "constant": false,
      "inputs": [
        {
          "name": "_fileHash",
          "type": "string"
        },
        {
          "name": "_amountRequested",
          "type": "uint256"
        }
      ],
      "name": "doSubmitInvoice",
      "outputs": [],
      "payable": false,
      "stateMutability": "nonpayable",
      "type": "function"
    },
    {
      "constant": false,
      "inputs": [
        {
          "name": "_to",
          "type": "address"
        },
        {
          "name": "_amountRequested",
          "type": "uint256"
        }
      ],
      "name": "confirmInvoiceTransferTokens",
      "outputs": [
        {
          "name": "success",
          "type": "bool"
        }
      ],
      "payable": false,
      "stateMutability": "nonpayable",
      "type": "function"
    },
    {
      "constant": false,
      "inputs": [
        {
          "name": "_to",
          "type": "address"
        },
        {
          "name": "_amount",
          "type": "uint256"
        }
      ],
      "name": "pullFundsBurnToken",
      "outputs": [
        {
          "name": "success",
          "type": "bool"
        }
      ],
      "payable": false,
      "stateMutability": "nonpayable",
      "type": "function"
    }
  ],
  "bytecode": "0x60806040523480156200001157600080fd5b5060405162001bde38038062001bde833981018060405262000037919081019062000555565b30600460006101000a81548173ffffffffffffffffffffffffffffffffffffffff021916908373ffffffffffffffffffffffffffffffffffffffff1602179055504260038190555085600590805190602001906200009792919062000302565b5084600760006101000a81548173ffffffffffffffffffffffffffffffffffffffff021916908373ffffffffffffffffffffffffffffffffffffffff16021790555083600660006101000a81548173ffffffffffffffffffffffffffffffffffffffff021916908373ffffffffffffffffffffffffffffffffffffffff160217905550826008819055508260098190555082600a8190555060008090505b8251811015620002f55760405180608001604052808483815181106200015757fe5b602002602001015173ffffffffffffffffffffffffffffffffffffffff1681526020018383815181106200018757fe5b60200260200101518152602001838381518110620001a157fe5b602002602001015181526020016000815250600080858481518110620001c357fe5b602002602001015173ffffffffffffffffffffffffffffffffffffffff1673ffffffffffffffffffffffffffffffffffffffff16815260200190815260200160002060008201518160000160006101000a81548173ffffffffffffffffffffffffffffffffffffffff021916908373ffffffffffffffffffffffffffffffffffffffff160217905550602082015181600101556040820151816002015560608201518160030155905050600b8382815181106200027c57fe5b602002602001015190806001815401808255809150509060018203906000526020600020016000909192909190916101000a81548173ffffffffffffffffffffffffffffffffffffffff021916908373ffffffffffffffffffffffffffffffffffffffff16021790555050808060010191505062000135565b505050505050506200078b565b828054600181600116156101000203166002900490600052602060002090601f016020900481019282601f106200034557805160ff191683800117855562000376565b8280016001018555821562000376579182015b828111156200037557825182559160200191906001019062000358565b5b50905062000385919062000389565b5090565b620003ae91905b80821115620003aa57600081600090555060010162000390565b5090565b90565b600081519050620003c28162000757565b92915050565b600082601f830112620003da57600080fd5b8151620003f1620003eb8262000664565b62000636565b915081818352602084019350602081019050838560208402820111156200041757600080fd5b60005b838110156200044b5781620004308882620003b1565b8452602084019350602083019250506001810190506200041a565b5050505092915050565b600082601f8301126200046757600080fd5b81516200047e62000478826200068d565b62000636565b91508181835260208401935060208101905083856020840282011115620004a457600080fd5b60005b83811015620004d85781620004bd88826200053e565b845260208401935060208301925050600181019050620004a7565b5050505092915050565b600082601f830112620004f457600080fd5b81516200050b6200050582620006b6565b62000636565b915080825260208301602083018583830111156200052857600080fd5b6200053583828462000721565b50505092915050565b6000815190506200054f8162000771565b92915050565b60008060008060008060c087890312156200056f57600080fd5b600087015167ffffffffffffffff8111156200058a57600080fd5b6200059889828a01620004e2565b9650506020620005ab89828a01620003b1565b9550506040620005be89828a01620003b1565b9450506060620005d189828a016200053e565b935050608087015167ffffffffffffffff811115620005ef57600080fd5b620005fd89828a01620003c8565b92505060a087015167ffffffffffffffff8111156200061b57600080fd5b6200062989828a0162000455565b9150509295509295509295565b6000604051905081810181811067ffffffffffffffff821117156200065a57600080fd5b8060405250919050565b600067ffffffffffffffff8211156200067c57600080fd5b602082029050602081019050919050565b600067ffffffffffffffff821115620006a557600080fd5b602082029050602081019050919050565b600067ffffffffffffffff821115620006ce57600080fd5b601f19601f8301169050602081019050919050565b6000620006f082620006f7565b9050919050565b600073ffffffffffffffffffffffffffffffffffffffff82169050919050565b6000819050919050565b60005b838110156200074157808201518184015260208101905062000724565b8381111562000751576000848401525b50505050565b6200076281620006e3565b81146200076e57600080fd5b50565b6200077c8162000717565b81146200078857600080fd5b50565b611443806200079b6000396000f3fe608060405234801561001057600080fd5b506004361061009e5760003560e01c8063af35ae2711610066578063af35ae271461017a578063d0bbdc2414610198578063f046f984146101c8578063f08b82e6146101e6578063fb2a27ad146102045761009e565b806308746fd4146100a35780630e58eca4146100c75780631a20d71c146100e357806362fc581214610117578063a6078acc14610147575b600080fd5b6100ab610225565b6040516100be9796959493929190611041565b60405180910390f35b6100e160048036036100dc9190810190610dfc565b6103df565b005b6100fd60048036036100f89190810190610dbb565b610572565b60405161010e9594939291906110be565b60405180910390f35b610131600480360361012c9190810190610d7f565b610683565b60405161013e91906111be565b60405180910390f35b610161600480360361015c9190810190610d1a565b6106eb565b6040516101719493929190611118565b60405180910390f35b61018261073b565b60405161018f91906111d9565b60405180910390f35b6101b260048036036101ad9190810190610d43565b610745565b6040516101bf91906111be565b60405180910390f35b6101d06107b2565b6040516101dd91906111d9565b60405180910390f35b6101ee6107d1565b6040516101fb91906111d9565b60405180910390f35b61020c6107db565b60405161021c949392919061115d565b60405180910390f35b600060606000806000806060600460009054906101000a900473ffffffffffffffffffffffffffffffffffffffff166005600354600a54600760009054906101000a900473ffffffffffffffffffffffffffffffffffffffff16600660009054906101000a900473ffffffffffffffffffffffffffffffffffffffff16600b858054600181600116156101000203166002900480601f0160208091040260200160405190810160405280929190818152602001828054600181600116156101000203166002900480156103395780601f1061030e57610100808354040283529160200191610339565b820191906000526020600020905b81548152906001019060200180831161031c57829003601f168201915b50505050509550808054806020026020016040519081016040528092919081815260200182805480156103c157602002820191906000526020600020905b8160009054906101000a900473ffffffffffffffffffffffffffffffffffffffff1673ffffffffffffffffffffffffffffffffffffffff1681526020019060010190808311610377575b50505050509050965096509650965096509650965090919293949596565b3373ffffffffffffffffffffffffffffffffffffffff166000803373ffffffffffffffffffffffffffffffffffffffff1673ffffffffffffffffffffffffffffffffffffffff16815260200190815260200160002060000160009054906101000a900473ffffffffffffffffffffffffffffffffffffffff1673ffffffffffffffffffffffffffffffffffffffff16141561056e576040518060a001604052803373ffffffffffffffffffffffffffffffffffffffff168152602001838152602001428152602001828152602001600015158152506002836040516104c4919061102a565b908152602001604051809103902060008201518160000160006101000a81548173ffffffffffffffffffffffffffffffffffffffff021916908373ffffffffffffffffffffffffffffffffffffffff1602179055506020820151816001019080519060200190610535929190610b8e565b50604082015181600201556060820151816003015560808201518160040160006101000a81548160ff0219169083151502179055509050505b5050565b6002818051602081018201805184825260208301602085012081835280955050505050506000915090508060000160009054906101000a900473ffffffffffffffffffffffffffffffffffffffff1690806001018054600181600116156101000203166002900480601f01602080910402602001604051908101604052809291908181526020018280546001816001161561010002031660029004801561065a5780601f1061062f5761010080835404028352916020019161065a565b820191906000526020600020905b81548152906001019060200180831161063d57829003601f168201915b5050505050908060020154908060030154908060040160009054906101000a900460ff16905085565b6000600660009054906101000a900473ffffffffffffffffffffffffffffffffffffffff1673ffffffffffffffffffffffffffffffffffffffff163373ffffffffffffffffffffffffffffffffffffffff1614156106e457600190506106e5565b5b92915050565b60006020528060005260406000206000915090508060000160009054906101000a900473ffffffffffffffffffffffffffffffffffffffff16908060010154908060020154908060030154905084565b6000600a54905090565b60003373ffffffffffffffffffffffffffffffffffffffff166000803373ffffffffffffffffffffffffffffffffffffffff1673ffffffffffffffffffffffffffffffffffffffff16815260200190815260200160002060000160009054906101000a9050505092915050565b60003073ffffffffffffffffffffffffffffffffffffffff1631905090565b6000600954905090565b6060806060806060600b805490506040519080825280602002602001820160405280156108175781602001602082028038833980820191505090505b5090506060600b805490506040519080825280602002602001820160405280156108505781602001602082028038833980820191505090505b5090506060600b805490506040519080825280602002602001820160405280156108895781602001602082028038833980820191505090505b5090506060600b805490506040519080825280602002602001820160405280156108c25781602001602082028038833980820191505090505b50905060008090505b600b80549050811015610b7757600080600b83815481106108e857fe5b9060005260206000200160009054906101000a900473ffffffffffffffffffffffffffffffffffffffff1673ffffffffffffffffffffffffffffffffffffffff1673ffffffffffffffffffffffffffffffffffffffff16815260200190815260200160002060000160009054906101000a900473ffffffffffffffffffffffffffffffffffffffff1685828151811061097d57fe5b602002602001019073ffffffffffffffffffffffffffffffffffffffff16908173ffffffffffffffffffffffffffffffffffffffff1681525050600080600b83815481106109c757fe5b9060005260206000200160009054906101000a900473ffffffffffffffffffffffffffffffffffffffff1673ffffffffffffffffffffffffffffffffffffffff1673ffffffffffffffffffffffffffffffffffffffff16815260200190815260200160002060010154848281518110610a3c57fe5b602002602001018181525050600080600b8381548110610a5857fe5b9060005260206000200160009054906101000a900473ffffffffffffffffffffffffffffffffffffffff1673ffffffffffffffffffffffffffffffffffffffff1673ffffffffffffffffffffffffffffffffffffffff16815260200190815260200160002060020154838281518110610acd57fe5b602002602001018181525050600080600b8381548110610ae957fe5b9060005260206000200160009054906101000a900473ffffffffffffffffffffffffffffffffffffffff1673ffffffffffffffffffffffffffffffffffffffff1673ffffffffffffffffffffffffffffffffffffffff16815260200190815260200160002060030154828281518110610b5e57fe5b60200260200101818152505080806001019150506108cb565b508383838397509750975097505050505090919293565b828054600181600116156101000203166002900490600052602060002090601f016020900481019282601f10610bcf57805160ff1916838001178555610bfd565b82800160010185558215610bfd579182015b82811115610bfc578251825591602001919060010190610be1565b5b509050610c0a9190610c0e565b5090565b610c3091905b80821115610c2c576000816000905550600101610c14565b5090565b90565b600081359050610c42816113c4565b92915050565b600081359050610c57816113db565b92915050565b600082601f830112610c6e57600080fd5b8135610c81610c7c82611221565b6111f4565b91508082526020830160208301858383011115610c9d57600080fd5b610ca8838284611371565b50505092915050565b600082601f830112610cc257600080fd5b8135610cd5610cd08261124d565b6111f4565b91508082526020830160208301858383011115610cf157600080fd5b610cfc838284611371565b50505092915050565b600081359050610d14816113f2565b92915050565b600060208284031215610d2c57600080fd5b6000610d3a84828501610c33565b91505092915050565b60008060408385031215610d5657600080fd5b6000610d6485828601610c48565b9250506020610d7585828601610d05565b9150509250929050565b60008060408385031215610d9257600080fd5b6000610da085828601610c33565b9250506020610db185828601610d05565b9150509250929050565b600060208284031215610dcd57600080fd5b600082013567ffffffffffffffff811115610de757600080fd5b610df384828501610c5d565b91505092915050565b60008060408385031215610e0f57600080fd5b600083013567ffffffffffffffff811115610e2957600080fd5b610e3585828601610cb1565b9250506020610e4685828601610d05565b9150509250929050565b6000610e5c8383610e80565b60208301905092915050565b6000610e74838361100c565b60208301905092915050565b610e8981611317565b82525050565b610e9881611317565b82525050565b6000610ea982611293565b610eb381856112d9565b9350610ebe83611279565b8060005b83811015610eef578151610ed68882610e50565b9750610ee1836112bf565b925050600181019050610ec2565b5085935050505092915050565b6000610f078261129e565b610f1181856112ea565b9350610f1c83611286565b8060005b83811015610f4d578151610f348882610e68565b9750610f3f836112cc565b925050600181019050610f20565b5085935050505092915050565b610f638161133b565b82525050565b6000610f74826112b4565b610f7e81856112fb565b9350610f8e818560208601611380565b610f97816113b3565b840191505092915050565b6000610fad826112b4565b610fb7818561130c565b9350610fc7818560208601611380565b80840191505092915050565b6000610fde826112a9565b610fe881856112fb565b9350610ff8818560208601611380565b611001816113b3565b840191505092915050565b61101581611367565b82525050565b61102481611367565b82525050565b60006110368284610fa2565b915081905092915050565b600060e082019050611056600083018a610e8f565b81810360208301526110688189610f69565b9050611077604083018861101b565b611084606083018761101b565b6110916080830186610e8f565b61109e60a0830185610e8f565b81810360c08301526110b08184610e9e565b905098975050505050505050565b600060a0820190506110d36000830188610e8f565b81810360208301526110e58187610fd3565b90506110f4604083018661101b565b611101606083018561101b565b61110e6080830184610f5a565b9695505050505050565b600060808201905061112d6000830187610e8f565b61113a602083018661101b565b611147604083018561101b565b611154606083018461101b565b95945050505050565b600060808201905081810360008301526111778187610e9e565b9050818103602083015261118b8186610efc565b9050818103604083015261119f8185610efc565b905081810360608301526111b38184610efc565b905095945050505050565b60006020820190506111d36000830184610f5a565b92915050565b60006020820190506111ee600083018461101b565b92915050565b6000604051905081810181811067ffffffffffffffff8211171561121757600080fd5b8060405250919050565b600067ffffffffffffffff82111561123857600080fd5b601f19601f8301169050602081019050919050565b600067ffffffffffffffff82111561126457600080fd5b601f19601f8301169050602081019050919050565b6000602082019050919050565b6000602082019050919050565b600081519050919050565b600081519050919050565b600081519050919050565b600081519050919050565b6000602082019050919050565b6000602082019050919050565b600082825260208201905092915050565b600082825260208201905092915050565b600082825260208201905092915050565b600081905092915050565b600061132282611347565b9050919050565b600061133482611347565b9050919050565b60008115159050919050565b600073ffffffffffffffffffffffffffffffffffffffff82169050919050565b6000819050919050565b82818337600083830152505050565b60005b8381101561139e578082015181840152602081019050611383565b838111156113ad576000848401525b50505050565b6000601f19601f8301169050919050565b6113cd81611317565b81146113d857600080fd5b50565b6113e481611329565b81146113ef57600080fd5b50565b6113fb81611367565b811461140657600080fd5b5056fea265627a7a7230582040b157638791ec3cd18ce9ea2d14d1b0fc704c2ca9f407ebea3492aff12fadd06c6578706572696d656e74616cf50037",
  "source": "pragma solidity ^0.5.3;\r\npragma experimental ABIEncoderV2;\r\n\r\ncontract cDao {\r\n\r\n    struct contractor {\r\n        address contractorAddress;\r\n        uint initialTokensAllocated;\r\n        uint remainingTokensAllocated;\r\n        uint currentAvailableTokens;\r\n    }\r\n\r\n    // Structure for submitted invoice to the cDao\r\n    struct invoice{\r\n        address submittor;\r\n        string invoiceHash;\r\n        uint invoiceDate;\r\n        uint amountRequested;\r\n        bool complete;\r\n    }\r\n\r\n    //contractor[address] will retrieve their address and token allocation\r\n    mapping(address => contractor) public contractorInfo;\r\n\r\n    //need an array of invoices\r\n    address[] invoices;\r\n\r\n    //need to setup an invoice struct map\r\n    mapping(string => invoice) public invoiceData;\r\n\r\n    //Date of contract creation (unix time)\r\n    uint creationDate;\r\n\r\n    //This will be the address of the fund\r\n    address fundId;\r\n\r\n    //Fund Name\r\n    string fundName;\r\n\r\n    //This is the person that will approve everything\r\n    address operatorOwner;\r\n\r\n    //This person is issuing the debt (government)\r\n    address debtIssuer;\r\n\r\n    //This is the amount of money being issued\r\n    uint totalFundAmount;\r\n\r\n    //Amount of tokens created\r\n    uint totalTokensFund;\r\n\r\n    //Current amount of tokens left\r\n    uint currentTokensFund;\r\n\r\n    //These people are able to receive funds\r\n    //And these people would be able to request\r\n    address[] subContractors;\r\n\r\n    //These are the allocations amounts of the total\r\n    uint[] allocations;\r\n\r\n    //Approve proposal - if this is true then we can build the contract\r\n    bool approved;\r\n\r\n    //Do we need a time release for funds would this be a schedule like a once every month? Or maybe an end release date?\r\n    //uint releaseFundsDate;\r\n\r\n    constructor(\r\n        string memory _fundName, address _debtIssuer, address _operatorOwner, uint _fundAmount, address[] memory _subContractors, uint[] memory _allocations\r\n        ) public {\r\n        fundId = address(this);\r\n        creationDate = now;\r\n        fundName = _fundName;\r\n        debtIssuer = _debtIssuer;\r\n        operatorOwner = _operatorOwner;\r\n        totalFundAmount = _fundAmount;\r\n        totalTokensFund = _fundAmount;\r\n        currentTokensFund = _fundAmount;\r\n        //We need to confirm that the total amount of allocations in the array are not > the total tokens being submitted.\r\n        for (uint i = 0; i < _subContractors.length; i++) {\r\n            contractorInfo[_subContractors[i]] = contractor(_subContractors[i], _allocations[i], _allocations[i], 0);\r\n            subContractors.push(_subContractors[i]);\r\n        }\r\n    }\r\n\r\n    function getTotalTokens() public view returns (uint){\r\n        return totalTokensFund;\r\n    }\r\n\r\n    function getRemainingTokens() public view returns (uint){\r\n        return currentTokensFund;\r\n    }\r\n\r\n    function getDaoDetails() public view returns (address, string memory, uint, uint, address, address, address[] memory){\r\n        return (fundId, fundName, creationDate, currentTokensFund, debtIssuer, operatorOwner, subContractors);\r\n    }\r\n\r\n    function getDaoBalance() public view returns (uint){\r\n        return address(this).balance;\r\n    }\r\n\r\n    function getDaoContractorsWithFunds() public view returns (address[] memory, uint[] memory, uint[] memory, uint[] memory){\r\n        address[] memory contractoraddress = new address[](subContractors.length);\r\n        uint[] memory initialTokens = new uint[](subContractors.length);\r\n        uint[] memory remainingTokens = new uint[](subContractors.length);\r\n        uint[] memory currentlyAvailableToWithdraw = new uint[](subContractors.length);\r\n        for (uint i = 0; i < subContractors.length; i++) {\r\n            contractoraddress[i] = contractorInfo[subContractors[i]].contractorAddress;\r\n            initialTokens[i] = contractorInfo[subContractors[i]].initialTokensAllocated;\r\n            remainingTokens[i] = contractorInfo[subContractors[i]].remainingTokensAllocated;\r\n            currentlyAvailableToWithdraw[i] = contractorInfo[subContractors[i]].currentAvailableTokens;\r\n        }\r\n        return (contractoraddress,initialTokens,remainingTokens,currentlyAvailableToWithdraw);\r\n    }\r\n\r\n    function doSubmitInvoice(string memory _fileHash, uint _amountRequested) public {\r\n        if (contractorInfo[msg.sender].contractorAddress == msg.sender){\r\n            invoiceData[_fileHash] = invoice(msg.sender, _fileHash, now, _amountRequested, false);\r\n        }\r\n    }\r\n\r\n    function confirmInvoiceTransferTokens(address _to, uint256 _amountRequested) public returns (bool success) {\r\n        if (msg.sender == operatorOwner) {\r\n            if (currentTokensFund > _amountRequested) {\r\n                //\r\n                //\r\n            }\r\n        return true;\r\n        }\r\n    }\r\n\r\n\r\n    function pullFundsBurnToken(address payable _to, uint _amount) public returns (bool success) {\r\n        if (contractorInfo[msg.sender].contractorAddress == msg.sender){\r\n        //confirm the contractor address trying to pull funds is eligibile to pull funds\r\n        //check to see if the contractor address has available tokens left\r\n        //_to.transfer(address(this)._amount);\r\n        }\r\n    }\r\n\r\n    //possible functionality --- block additional fund transfers into the Dao if the fundAdmount !== 0\r\n\r\n    //killswitch - stop all fund transfers immediately\r\n\r\n    //\r\n}",
  "sourcePath": "C:\\Users\\Steami\\Projects\\b4g\\contracts\\cDao.sol",
  "compiler": {
    "name": "solc",
    "version": "0.5.8+commit.23d335f2.Emscripten.clang"
  },
  "schemaVersion": "3.0.16",
  "updatedAt": "2019-10-27T17:47:02.138Z",
  "devdoc": {
    "methods": {}
  },
  "userdoc": {
    "methods": {}
  }
}