{
  "contractName": "cDao",
  "abi": [
    {
      "inputs": [
        {
          "name": "_fundName",
          "type": "string"
        },
        {
          "name": "_debtIssuer",
          "type": "address"
        },
        {
          "name": "_operatorOwner",
          "type": "address"
        },
        {
          "name": "_fundAmount",
          "type": "uint256"
        },
        {
          "name": "_subContractors",
          "type": "address[]"
        }
      ],
      "payable": false,
      "stateMutability": "nonpayable",
      "type": "constructor"
    },
    {
      "constant": true,
      "inputs": [],
      "name": "getTotalTokens",
      "outputs": [
        {
          "name": "",
          "type": "uint256"
        }
      ],
      "payable": false,
      "stateMutability": "view",
      "type": "function"
    },
    {
      "constant": true,
      "inputs": [],
      "name": "getDaoInfo",
      "outputs": [
        {
          "name": "",
          "type": "address"
        },
        {
          "name": "",
          "type": "string"
        },
        {
          "name": "",
          "type": "uint256"
        },
        {
          "name": "",
          "type": "uint256"
        },
        {
          "name": "",
          "type": "address"
        },
        {
          "name": "",
          "type": "address"
        }
      ],
      "payable": false,
      "stateMutability": "view",
      "type": "function"
    }
  ],
  "bytecode": "0x608060405234801561001057600080fd5b5060405161062e38038061062e833981018060405260a081101561003357600080fd5b81019080805164010000000081111561004b57600080fd5b8281019050602081018481111561006157600080fd5b815185600182028301116401000000008211171561007e57600080fd5b505092919060200180519060200190929190805190602001909291908051906020019092919080516401000000008111156100b857600080fd5b828101905060208101848111156100ce57600080fd5b81518560208202830111640100000000821117156100eb57600080fd5b505092919050505030600160006101000a81548173ffffffffffffffffffffffffffffffffffffffff021916908373ffffffffffffffffffffffffffffffffffffffff1602179055504260008190555084600290805190602001906101519291906101c9565b5083600460006101000a81548173ffffffffffffffffffffffffffffffffffffffff021916908373ffffffffffffffffffffffffffffffffffffffff16021790555081600581905550816006819055508160078190555080600890805190602001906101be929190610249565b50505050505061033b565b828054600181600116156101000203166002900490600052602060002090601f016020900481019282601f1061020a57805160ff1916838001178555610238565b82800160010185558215610238579182015b8281111561023757825182559160200191906001019061021c565b5b50905061024591906102d3565b5090565b8280548282559060005260206000209081019282156102c2579160200282015b828111156102c15782518260006101000a81548173ffffffffffffffffffffffffffffffffffffffff021916908373ffffffffffffffffffffffffffffffffffffffff16021790555091602001919060010190610269565b5b5090506102cf91906102f8565b5090565b6102f591905b808211156102f15760008160009055506001016102d9565b5090565b90565b61033891905b8082111561033457600081816101000a81549073ffffffffffffffffffffffffffffffffffffffff0219169055506001016102fe565b5090565b90565b6102e48061034a6000396000f3fe608060405234801561001057600080fd5b50600436106100365760003560e01c8063f08b82e61461003b578063fa382f8714610059575b600080fd5b610043610183565b6040518082815260200191505060405180910390f35b61006161018d565b604051808773ffffffffffffffffffffffffffffffffffffffff1673ffffffffffffffffffffffffffffffffffffffff168152602001806020018681526020018581526020018473ffffffffffffffffffffffffffffffffffffffff1673ffffffffffffffffffffffffffffffffffffffff1681526020018373ffffffffffffffffffffffffffffffffffffffff1673ffffffffffffffffffffffffffffffffffffffff168152602001828103825287818151815260200191508051906020019080838360005b83811015610143578082015181840152602081019050610128565b50505050905090810190601f1680156101705780820380516001836020036101000a031916815260200191505b5097505050505050505060405180910390f35b6000600654905090565b60006060600080600080600160009054906101000a900473ffffffffffffffffffffffffffffffffffffffff166002600054600754600460009054906101000a900473ffffffffffffffffffffffffffffffffffffffff16600360009054906101000a900473ffffffffffffffffffffffffffffffffffffffff16848054600181600116156101000203166002900480601f01602080910402602001604051908101604052809291908181526020018280546001816001161561010002031660029004801561029d5780601f106102725761010080835404028352916020019161029d565b820191906000526020600020905b81548152906001019060200180831161028057829003601f168201915b5050505050945095509550955095509550955090919293949556fea165627a7a72305820d058f6bb72a4be82df602b4f6798c8014e2ed1c2cb290145d14b44ce72ef901d0029",
  "source": "pragma solidity ^0.5.3;\r\n\r\ncontract cDao {\r\n\r\n    //Amount of tokens in your contract\r\n    //mapping(address => uint256) public tokens;\r\n    //might not need a mapping\r\n\r\n    //Date of contract creation (unix time)\r\n    uint creationDate;\r\n\r\n    //This will be the address of the fund\r\n    address fundId;\r\n\r\n    //Fund Name\r\n    string fundName;\r\n\r\n    //This is the person that will approve everything\r\n    address operatorOwner;\r\n\r\n    //This person is issuing the debt (government)\r\n    address debtIssuer;\r\n\r\n    //This is the amount of money being issues\r\n    uint fundAmount;\r\n\r\n    //Amount of tokens created\r\n    uint totalTokens;\r\n\r\n    //Current amount of tokens left\r\n    uint currentTokens;\r\n\r\n    //These people are able to receive funds\r\n    //And these people would be able to request\r\n    address[] subContractors;\r\n\r\n    //Approve proposal - if this is true then we can build the contract\r\n    bool approved;\r\n\r\n    //Do we need a time release for funds\r\n    // would this be a schedule like a once every month? Or maybe an end release date?\r\n    //uint releaseFundsDate;\r\n    \r\n    //How much can this contract send out --- not needed I think.\r\n    //mapping(address => mapping(address => uint256)) public allowance;\r\n    //This might be an array? Not sure if needed\r\n    //address fundReceiver;\r\n\r\n    constructor( string memory _fundName, address _debtIssuer, address _operatorOwner, uint _fundAmount, address[] memory _subContractors) public {\r\n        fundId = address(this);\r\n        creationDate = now;\r\n        fundName = _fundName;\r\n        debtIssuer = _debtIssuer;\r\n        fundAmount = _fundAmount;\r\n        totalTokens = _fundAmount;\r\n        currentTokens = _fundAmount;\r\n        subContractors = _subContractors;\r\n    }\r\n\r\n    function getTotalTokens() public view returns (uint){\r\n        return totalTokens;\r\n    }\r\n\r\n    function getDaoInfo() public view returns (address, string memory, uint, uint, address, address){\r\n        return (fundId, fundName, creationDate, currentTokens, debtIssuer, operatorOwner);\r\n    }\r\n}",
  "sourcePath": "C:\\Users\\Steami\\Projects\\b4g\\contracts\\cDao.sol",
  "compiler": {
    "name": "solc",
    "version": "0.5.8+commit.23d335f2.Emscripten.clang"
  },
  "schemaVersion": "3.0.16",
  "updatedAt": "2019-10-26T22:45:07.442Z",
  "devdoc": {
    "methods": {}
  },
  "userdoc": {
    "methods": {}
  }
}