{
  "contractName": "cDao",
  "abi": [
    {
      "constant": true,
      "inputs": [
        {
          "name": "",
          "type": "address"
        }
      ],
      "name": "contractorInfo",
      "outputs": [
        {
          "name": "contractorAddress",
          "type": "address"
        },
        {
          "name": "tokenAllocation",
          "type": "uint256"
        }
      ],
      "payable": false,
      "stateMutability": "view",
      "type": "function"
    },
    {
      "constant": true,
      "inputs": [
        {
          "name": "",
          "type": "string"
        }
      ],
      "name": "invoiceSubmission",
      "outputs": [
        {
          "name": "submittor",
          "type": "address"
        },
        {
          "name": "invoiceHash",
          "type": "string"
        },
        {
          "name": "invoiceDate",
          "type": "uint256"
        },
        {
          "name": "amountRequested",
          "type": "uint256"
        }
      ],
      "payable": false,
      "stateMutability": "view",
      "type": "function"
    },
    {
      "inputs": [
        {
          "name": "_fundName",
          "type": "string"
        },
        {
          "name": "_debtIssuer",
          "type": "address"
        },
        {
          "name": "_operatorOwner",
          "type": "address"
        },
        {
          "name": "_fundAmount",
          "type": "uint256"
        },
        {
          "name": "_subContractors",
          "type": "address[]"
        },
        {
          "name": "_allocations",
          "type": "uint256[]"
        }
      ],
      "payable": false,
      "stateMutability": "nonpayable",
      "type": "constructor"
    },
    {
      "constant": true,
      "inputs": [],
      "name": "getTotalTokens",
      "outputs": [
        {
          "name": "",
          "type": "uint256"
        }
      ],
      "payable": false,
      "stateMutability": "view",
      "type": "function"
    },
    {
      "constant": true,
      "inputs": [],
      "name": "getDaoDetails",
      "outputs": [
        {
          "name": "",
          "type": "address"
        },
        {
          "name": "",
          "type": "string"
        },
        {
          "name": "",
          "type": "uint256"
        },
        {
          "name": "",
          "type": "uint256"
        },
        {
          "name": "",
          "type": "address"
        },
        {
          "name": "",
          "type": "address"
        }
      ],
      "payable": false,
      "stateMutability": "view",
      "type": "function"
    },
    {
      "constant": true,
      "inputs": [],
      "name": "getDaoBalance",
      "outputs": [
        {
          "name": "",
          "type": "uint256"
        }
      ],
      "payable": false,
      "stateMutability": "view",
      "type": "function"
    },
    {
      "constant": false,
      "inputs": [
        {
          "name": "_fileHash",
          "type": "string"
        },
        {
          "name": "_amountRequested",
          "type": "uint256"
        }
      ],
      "name": "doSubmitInvoice",
      "outputs": [],
      "payable": false,
      "stateMutability": "nonpayable",
      "type": "function"
    },
    {
      "constant": false,
      "inputs": [
        {
          "name": "_to",
          "type": "address"
        },
        {
          "name": "_value",
          "type": "uint256"
        }
      ],
      "name": "transfer",
      "outputs": [
        {
          "name": "success",
          "type": "bool"
        }
      ],
      "payable": false,
      "stateMutability": "nonpayable",
      "type": "function"
    },
    {
      "constant": false,
      "inputs": [
        {
          "name": "_spender",
          "type": "address"
        },
        {
          "name": "_value",
          "type": "uint256"
        }
      ],
      "name": "approve",
      "outputs": [
        {
          "name": "success",
          "type": "bool"
        }
      ],
      "payable": false,
      "stateMutability": "nonpayable",
      "type": "function"
    },
    {
      "constant": false,
      "inputs": [
        {
          "name": "_from",
          "type": "address"
        },
        {
          "name": "_to",
          "type": "address"
        },
        {
          "name": "_value",
          "type": "uint256"
        }
      ],
      "name": "transferFrom",
      "outputs": [
        {
          "name": "success",
          "type": "bool"
        }
      ],
      "payable": false,
      "stateMutability": "nonpayable",
      "type": "function"
    }
  ],
  "bytecode": "0x60806040523480156200001157600080fd5b5060405162000f1f38038062000f1f833981018060405260c08110156200003757600080fd5b8101908080516401000000008111156200005057600080fd5b828101905060208101848111156200006757600080fd5b81518560018202830111640100000000821117156200008557600080fd5b50509291906020018051906020019092919080519060200190929190805190602001909291908051640100000000811115620000c057600080fd5b82810190506020810184811115620000d757600080fd5b8151856020820283011164010000000082111715620000f557600080fd5b505092919060200180516401000000008111156200011257600080fd5b828101905060208101848111156200012957600080fd5b81518560208202830111640100000000821117156200014757600080fd5b505092919050505030600460006101000a81548173ffffffffffffffffffffffffffffffffffffffff021916908373ffffffffffffffffffffffffffffffffffffffff160217905550426003819055508560059080519060200190620001af92919062000285565b5084600760006101000a81548173ffffffffffffffffffffffffffffffffffffffff021916908373ffffffffffffffffffffffffffffffffffffffff16021790555083600660006101000a81548173ffffffffffffffffffffffffffffffffffffffff021916908373ffffffffffffffffffffffffffffffffffffffff160217905550826008819055508260098190555082600a8190555081600b90805190602001906200025f9291906200030c565b5080600c9080519060200190620002789291906200039b565b505050505050506200045b565b828054600181600116156101000203166002900490600052602060002090601f016020900481019282601f10620002c857805160ff1916838001178555620002f9565b82800160010185558215620002f9579182015b82811115620002f8578251825591602001919060010190620002db565b5b509050620003089190620003ed565b5090565b82805482825590600052602060002090810192821562000388579160200282015b82811115620003875782518260006101000a81548173ffffffffffffffffffffffffffffffffffffffff021916908373ffffffffffffffffffffffffffffffffffffffff160217905550916020019190600101906200032d565b5b50905062000397919062000415565b5090565b828054828255906000526020600020908101928215620003da579160200282015b82811115620003d9578251825591602001919060010190620003bc565b5b509050620003e99190620003ed565b5090565b6200041291905b808211156200040e576000816000905550600101620003f4565b5090565b90565b6200045891905b808211156200045457600081816101000a81549073ffffffffffffffffffffffffffffffffffffffff0219169055506001016200041c565b5090565b90565b610ab4806200046b6000396000f3fe608060405234801561001057600080fd5b50600436106100935760003560e01c8063a6078acc11610066578063a6078acc14610373578063a9059cbb146103fe578063e9c6968c14610464578063f046f984146105d9578063f08b82e6146105f757610093565b806308746fd414610098578063095ea7b3146101c25780630e58eca41461022857806323b872dd146102ed575b600080fd5b6100a0610615565b604051808773ffffffffffffffffffffffffffffffffffffffff1673ffffffffffffffffffffffffffffffffffffffff168152602001806020018681526020018581526020018473ffffffffffffffffffffffffffffffffffffffff1673ffffffffffffffffffffffffffffffffffffffff1681526020018373ffffffffffffffffffffffffffffffffffffffff1673ffffffffffffffffffffffffffffffffffffffff168152602001828103825287818151815260200191508051906020019080838360005b83811015610182578082015181840152602081019050610167565b50505050905090810190601f1680156101af5780820380516001836020036101000a031916815260200191505b5097505050505050505060405180910390f35b61020e600480360360408110156101d857600080fd5b81019080803573ffffffffffffffffffffffffffffffffffffffff16906020019092919080359060200190929190505050610740565b604051808215151515815260200191505060405180910390f35b6102eb6004803603604081101561023e57600080fd5b810190808035906020019064010000000081111561025b57600080fd5b82018360208201111561026d57600080fd5b8035906020019184600183028401116401000000008311171561028f57600080fd5b91908080601f016020809104026020016040519081016040528093929190818152602001838380828437600081840152601f19601f82011690508083019250505050505050919291929080359060200190929190505050610748565b005b6103596004803603606081101561030357600080fd5b81019080803573ffffffffffffffffffffffffffffffffffffffff169060200190929190803573ffffffffffffffffffffffffffffffffffffffff16906020019092919080359060200190929190505050610867565b604051808215151515815260200191505060405180910390f35b6103b56004803603602081101561038957600080fd5b81019080803573ffffffffffffffffffffffffffffffffffffffff169060200190929190505050610870565b604051808373ffffffffffffffffffffffffffffffffffffffff1673ffffffffffffffffffffffffffffffffffffffff1681526020018281526020019250505060405180910390f35b61044a6004803603604081101561041457600080fd5b81019080803573ffffffffffffffffffffffffffffffffffffffff169060200190929190803590602001909291905050506108b4565b604051808215151515815260200191505060405180910390f35b61051d6004803603602081101561047a57600080fd5b810190808035906020019064010000000081111561049757600080fd5b8201836020820111156104a957600080fd5b803590602001918460018302840111640100000000831117156104cb57600080fd5b91908080601f016020809104026020016040519081016040528093929190818152602001838380828437600081840152601f19601f8201169050808301925050505050505091929192905050506108bc565b604051808573ffffffffffffffffffffffffffffffffffffffff1673ffffffffffffffffffffffffffffffffffffffff16815260200180602001848152602001838152602001828103825285818151815260200191508051906020019080838360005b8381101561059b578082015181840152602081019050610580565b50505050905090810190601f1680156105c85780820380516001836020036101000a031916815260200191505b509550505050505060405180910390f35b6105e16109ba565b6040518082815260200191505060405180910390f35b6105ff6109d9565b6040518082815260200191505060405180910390f35b60006060600080600080600460009054906101000a900473ffffffffffffffffffffffffffffffffffffffff166005600354600a54600760009054906101000a900473ffffffffffffffffffffffffffffffffffffffff16600660009054906101000a900473ffffffffffffffffffffffffffffffffffffffff16848054600181600116156101000203166002900480601f0160208091040260200160405190810160405280929190818152602001828054600181600116156101000203166002900480156107255780601f106106fa57610100808354040283529160200191610725565b820191906000526020600020905b81548152906001019060200180831161070857829003601f168201915b50505050509450955095509550955095509550909192939495565b600092915050565b60405180608001604052803373ffffffffffffffffffffffffffffffffffffffff168152602001838152602001428152602001828152506002836040518082805190602001908083835b602083106107b55780518252602082019150602081019050602083039250610792565b6001836020036101000a038019825116818451168082178552505050505050905001915050908152602001604051809103902060008201518160000160006101000a81548173ffffffffffffffffffffffffffffffffffffffff021916908373ffffffffffffffffffffffffffffffffffffffff160217905550602082015181600101908051906020019061084b9291906109e3565b5060408201518160020155606082015181600301559050505050565b60009392505050565b60006020528060005260406000206000915090508060000160009054906101000a900473ffffffffffffffffffffffffffffffffffffffff16908060010154905082565b600092915050565b6002818051602081018201805184825260208301602085012081835280955050505050506000915090508060000160009054906101000a900473ffffffffffffffffffffffffffffffffffffffff1690806001018054600181600116156101000203166002900480601f0160208091040260200160405190810160405280929190818152602001828054600181600116156101000203166002900480156109a45780601f10610979576101008083540402835291602001916109a4565b820191906000526020600020905b81548152906001019060200180831161098757829003601f168201915b5050505050908060020154908060030154905084565b60003073ffffffffffffffffffffffffffffffffffffffff1631905090565b6000600954905090565b828054600181600116156101000203166002900490600052602060002090601f016020900481019282601f10610a2457805160ff1916838001178555610a52565b82800160010185558215610a52579182015b82811115610a51578251825591602001919060010190610a36565b5b509050610a5f9190610a63565b5090565b610a8591905b80821115610a81576000816000905550600101610a69565b5090565b9056fea165627a7a723058204ac136e78d941f1aa1e2ff8a1d475b320a5b2438cbdfac26a9edcfd1c1d076980029",
  "source": "pragma solidity ^0.5.3;\r\n\r\ncontract cDao {\r\n\r\n    //Amount of tokens in your contract\r\n    //mapping(address => uint256) public tokens;\r\n    //might not need a mapping\r\n\r\n    struct contractor {\r\n        address contractorAddress;\r\n        uint tokenAllocation;\r\n    }\r\n\r\n    // Structure for submitted invoice to the cDao\r\n    struct invoice{\r\n        address submittor;\r\n        string invoiceHash;\r\n        uint invoiceDate;\r\n        uint amountRequested;\r\n    }\r\n\r\n    //contractor[address] will retrieve their address and token allocation\r\n    mapping(address => contractor) public contractorInfo;\r\n\r\n    //need an array of invoices\r\n    address[] invoices;\r\n\r\n    //need to setup an invoice struct map\r\n    mapping(string => invoice) public invoiceSubmission;\r\n\r\n    //Date of contract creation (unix time)\r\n    uint creationDate;\r\n\r\n    //This will be the address of the fund\r\n    address fundId;\r\n\r\n    //Fund Name\r\n    string fundName;\r\n\r\n    //This is the person that will approve everything\r\n    address operatorOwner;\r\n\r\n    //This person is issuing the debt (government)\r\n    address debtIssuer;\r\n\r\n    //This is the amount of money being issues\r\n    uint fundAmount;\r\n\r\n    //Amount of tokens created\r\n    uint totalTokens;\r\n\r\n    //Current amount of tokens left\r\n    uint currentTokens;\r\n\r\n    //These people are able to receive funds\r\n    //And these people would be able to request\r\n    address[] subContractors;\r\n\r\n    //These are the allocations amounts of the total\r\n    uint[] allocations;\r\n\r\n    //Approve proposal - if this is true then we can build the contract\r\n    bool approved;\r\n\r\n    //Do we need a time release for funds would this be a schedule like a once every month? Or maybe an end release date?\r\n    //uint releaseFundsDate;\r\n    \r\n    //How much can this contract send out --- not needed I think.\r\n    //mapping(address => mapping(address => uint256)) public allowance;\r\n\r\n    constructor(\r\n        string memory _fundName, address _debtIssuer, address _operatorOwner, uint _fundAmount, address[] memory _subContractors, uint[] memory _allocations\r\n        ) public {\r\n        fundId = address(this);\r\n        creationDate = now;\r\n        fundName = _fundName;\r\n        debtIssuer = _debtIssuer;\r\n        operatorOwner = _operatorOwner;\r\n        fundAmount = _fundAmount;\r\n        totalTokens = _fundAmount;\r\n        currentTokens = _fundAmount;\r\n        subContractors = _subContractors;\r\n        //We need to confirm that the total amount of allocations in the array are not > the total tokens being submitted.\r\n        allocations = _allocations;\r\n    }\r\n\r\n    function getTotalTokens() public view returns (uint){\r\n        return totalTokens;\r\n    }\r\n\r\n    function getDaoDetails() public view returns (address, string memory, uint, uint, address, address){\r\n        return (fundId, fundName, creationDate, currentTokens, debtIssuer, operatorOwner);\r\n    }\r\n\r\n    function getDaoBalance() public view returns (uint){\r\n        return address(this).balance;\r\n    }\r\n\r\n    function doSubmitInvoice(string memory _fileHash, uint _amountRequested) public {\r\n        invoiceSubmission[_fileHash] = invoice(msg.sender, _fileHash, now, _amountRequested);\r\n    }\r\n\r\n    function transfer(address _to, uint256 _value) public returns (bool success) {\r\n        //require(balanceOf[msg.sender] >= _value);\r\n        //balanceOf[msg.sender] -= _value;\r\n        //balanceOf[_to] += _value;\r\n        //Transfer(msg.sender, _to, _value);\r\n        //return true;\r\n    }\r\n\r\n    function approve(address _spender, uint256 _value) public returns (bool success) {\r\n        //allowance[msg.sender][_spender] = _value;\r\n        //Approval(msg.sender, _spender, _value);\r\n        //return true;\r\n    }\r\n\r\n    function transferFrom(address _from, address _to, uint256 _value) public returns (bool success) {\r\n        //require(_value <= balanceOf[_from]);\r\n        //require(_value <= allowance[_from][msg.sender]);\r\n        //balanceOf[_from] -= _value;\r\n        //balanceOf[_to] += _value;\r\n        //allowance[_from][msg.sender] -= _value;\r\n        //Transfer(_from, _to, _value);\r\n        //return true;\r\n    }\r\n}",
  "sourcePath": "C:\\Users\\Steami\\Projects\\b4g\\contracts\\cDao.sol",
  "compiler": {
    "name": "solc",
    "version": "0.5.8+commit.23d335f2.Emscripten.clang"
  },
  "schemaVersion": "3.0.16",
  "updatedAt": "2019-10-27T01:09:14.258Z",
  "devdoc": {
    "methods": {}
  },
  "userdoc": {
    "methods": {}
  }
}