{
  "contractName": "cDao",
  "abi": [
    {
      "constant": true,
      "inputs": [
        {
          "name": "",
          "type": "string"
        }
      ],
      "name": "invoiceData",
      "outputs": [
        {
          "name": "submittor",
          "type": "address"
        },
        {
          "name": "invoiceHash",
          "type": "string"
        },
        {
          "name": "invoiceDate",
          "type": "uint256"
        },
        {
          "name": "amountRequested",
          "type": "uint256"
        },
        {
          "name": "complete",
          "type": "bool"
        }
      ],
      "payable": false,
      "stateMutability": "view",
      "type": "function"
    },
    {
      "constant": true,
      "inputs": [
        {
          "name": "",
          "type": "address"
        }
      ],
      "name": "contractorInfo",
      "outputs": [
        {
          "name": "contractorAddress",
          "type": "address"
        },
        {
          "name": "initialTokensAllocated",
          "type": "uint256"
        },
        {
          "name": "remainingTokensAllocated",
          "type": "uint256"
        },
        {
          "name": "currentAvailableTokens",
          "type": "uint256"
        }
      ],
      "payable": false,
      "stateMutability": "view",
      "type": "function"
    },
    {
      "inputs": [
        {
          "name": "_fundName",
          "type": "string"
        },
        {
          "name": "_debtIssuer",
          "type": "address"
        },
        {
          "name": "_operatorOwner",
          "type": "address"
        },
        {
          "name": "_fundAmount",
          "type": "uint256"
        },
        {
          "name": "_subContractors",
          "type": "address[]"
        },
        {
          "name": "_allocations",
          "type": "uint256[]"
        }
      ],
      "payable": false,
      "stateMutability": "nonpayable",
      "type": "constructor"
    },
    {
      "constant": true,
      "inputs": [],
      "name": "getTotalTokens",
      "outputs": [
        {
          "name": "",
          "type": "uint256"
        }
      ],
      "payable": false,
      "stateMutability": "view",
      "type": "function"
    },
    {
      "constant": true,
      "inputs": [],
      "name": "getRemainingTokens",
      "outputs": [
        {
          "name": "",
          "type": "uint256"
        }
      ],
      "payable": false,
      "stateMutability": "view",
      "type": "function"
    },
    {
      "constant": true,
      "inputs": [],
      "name": "getDaoDetails",
      "outputs": [
        {
          "name": "",
          "type": "address"
        },
        {
          "name": "",
          "type": "string"
        },
        {
          "name": "",
          "type": "uint256"
        },
        {
          "name": "",
          "type": "uint256"
        },
        {
          "name": "",
          "type": "address"
        },
        {
          "name": "",
          "type": "address"
        },
        {
          "name": "",
          "type": "address[]"
        },
        {
          "name": "",
          "type": "uint256[]"
        }
      ],
      "payable": false,
      "stateMutability": "view",
      "type": "function"
    },
    {
      "constant": true,
      "inputs": [],
      "name": "getDaoBalance",
      "outputs": [
        {
          "name": "",
          "type": "uint256"
        }
      ],
      "payable": false,
      "stateMutability": "view",
      "type": "function"
    },
    {
      "constant": true,
      "inputs": [
        {
          "name": "_address",
          "type": "address"
        }
      ],
      "name": "getContrator",
      "outputs": [
        {
          "name": "",
          "type": "address"
        },
        {
          "name": "",
          "type": "uint256"
        },
        {
          "name": "",
          "type": "uint256"
        },
        {
          "name": "",
          "type": "uint256"
        }
      ],
      "payable": false,
      "stateMutability": "view",
      "type": "function"
    },
    {
      "constant": true,
      "inputs": [],
      "name": "getDaoContractorsWithFunds",
      "outputs": [
        {
          "name": "",
          "type": "address[]"
        },
        {
          "name": "",
          "type": "uint256[]"
        },
        {
          "name": "",
          "type": "uint256[]"
        },
        {
          "name": "",
          "type": "uint256[]"
        }
      ],
      "payable": false,
      "stateMutability": "view",
      "type": "function"
    },
    {
      "constant": false,
      "inputs": [
        {
          "name": "_fileHash",
          "type": "string"
        },
        {
          "name": "_amountRequested",
          "type": "uint256"
        }
      ],
      "name": "doSubmitInvoice",
      "outputs": [],
      "payable": false,
      "stateMutability": "nonpayable",
      "type": "function"
    },
    {
      "constant": false,
      "inputs": [
        {
          "name": "_to",
          "type": "address"
        },
        {
          "name": "_amountRequested",
          "type": "uint256"
        }
      ],
      "name": "confirmInvoiceTransferTokens",
      "outputs": [
        {
          "name": "success",
          "type": "bool"
        }
      ],
      "payable": false,
      "stateMutability": "nonpayable",
      "type": "function"
    },
    {
      "constant": false,
      "inputs": [
        {
          "name": "_to",
          "type": "address"
        },
        {
          "name": "_amount",
          "type": "uint256"
        }
      ],
      "name": "pullFundsBurnToken",
      "outputs": [
        {
          "name": "success",
          "type": "bool"
        }
      ],
      "payable": false,
      "stateMutability": "nonpayable",
      "type": "function"
    }
  ],
  "bytecode": "0x60806040523480156200001157600080fd5b5060405162001ef838038062001ef8833981018060405262000037919081019062000555565b30600460006101000a81548173ffffffffffffffffffffffffffffffffffffffff021916908373ffffffffffffffffffffffffffffffffffffffff1602179055504260038190555085600590805190602001906200009792919062000302565b5084600760006101000a81548173ffffffffffffffffffffffffffffffffffffffff021916908373ffffffffffffffffffffffffffffffffffffffff16021790555083600660006101000a81548173ffffffffffffffffffffffffffffffffffffffff021916908373ffffffffffffffffffffffffffffffffffffffff160217905550826008819055508260098190555082600a8190555060008090505b8251811015620002f55760405180608001604052808483815181106200015757fe5b602002602001015173ffffffffffffffffffffffffffffffffffffffff1681526020018383815181106200018757fe5b60200260200101518152602001838381518110620001a157fe5b602002602001015181526020016000815250600080858481518110620001c357fe5b602002602001015173ffffffffffffffffffffffffffffffffffffffff1673ffffffffffffffffffffffffffffffffffffffff16815260200190815260200160002060008201518160000160006101000a81548173ffffffffffffffffffffffffffffffffffffffff021916908373ffffffffffffffffffffffffffffffffffffffff160217905550602082015181600101556040820151816002015560608201518160030155905050600b8382815181106200027c57fe5b602002602001015190806001815401808255809150509060018203906000526020600020016000909192909190916101000a81548173ffffffffffffffffffffffffffffffffffffffff021916908373ffffffffffffffffffffffffffffffffffffffff16021790555050808060010191505062000135565b505050505050506200078b565b828054600181600116156101000203166002900490600052602060002090601f016020900481019282601f106200034557805160ff191683800117855562000376565b8280016001018555821562000376579182015b828111156200037557825182559160200191906001019062000358565b5b50905062000385919062000389565b5090565b620003ae91905b80821115620003aa57600081600090555060010162000390565b5090565b90565b600081519050620003c28162000757565b92915050565b600082601f830112620003da57600080fd5b8151620003f1620003eb8262000664565b62000636565b915081818352602084019350602081019050838560208402820111156200041757600080fd5b60005b838110156200044b5781620004308882620003b1565b8452602084019350602083019250506001810190506200041a565b5050505092915050565b600082601f8301126200046757600080fd5b81516200047e62000478826200068d565b62000636565b91508181835260208401935060208101905083856020840282011115620004a457600080fd5b60005b83811015620004d85781620004bd88826200053e565b845260208401935060208301925050600181019050620004a7565b5050505092915050565b600082601f830112620004f457600080fd5b81516200050b6200050582620006b6565b62000636565b915080825260208301602083018583830111156200052857600080fd5b6200053583828462000721565b50505092915050565b6000815190506200054f8162000771565b92915050565b60008060008060008060c087890312156200056f57600080fd5b600087015167ffffffffffffffff8111156200058a57600080fd5b6200059889828a01620004e2565b9650506020620005ab89828a01620003b1565b9550506040620005be89828a01620003b1565b9450506060620005d189828a016200053e565b935050608087015167ffffffffffffffff811115620005ef57600080fd5b620005fd89828a01620003c8565b92505060a087015167ffffffffffffffff8111156200061b57600080fd5b6200062989828a0162000455565b9150509295509295509295565b6000604051905081810181811067ffffffffffffffff821117156200065a57600080fd5b8060405250919050565b600067ffffffffffffffff8211156200067c57600080fd5b602082029050602081019050919050565b600067ffffffffffffffff821115620006a557600080fd5b602082029050602081019050919050565b600067ffffffffffffffff821115620006ce57600080fd5b601f19601f8301169050602081019050919050565b6000620006f082620006f7565b9050919050565b600073ffffffffffffffffffffffffffffffffffffffff82169050919050565b6000819050919050565b60005b838110156200074157808201518184015260208101905062000724565b8381111562000751576000848401525b50505050565b6200076281620006e3565b81146200076e57600080fd5b50565b6200077c8162000717565b81146200078857600080fd5b50565b61175d806200079b6000396000f3fe608060405234801561001057600080fd5b50600436106100a95760003560e01c8063af35ae2711610071578063af35ae2714610186578063c0a5f392146101a4578063d0bbdc24146101d7578063f046f98414610207578063f08b82e614610225578063fb2a27ad14610243576100a9565b806308746fd4146100ae5780630e58eca4146100d35780631a20d71c146100ef57806362fc581214610123578063a6078acc14610153575b600080fd5b6100b6610264565b6040516100ca989796959493929190611345565b60405180910390f35b6100ed60048036036100e89190810190611100565b610476565b005b610109600480360361010491908101906110bf565b610609565b60405161011a9594939291906113d8565b60405180910390f35b61013d60048036036101389190810190611083565b61071a565b60405161014a91906114d8565b60405180910390f35b61016d6004803603610168919081019061101e565b6108b2565b60405161017d9493929190611432565b60405180910390f35b61018e610902565b60405161019b91906114f3565b60405180910390f35b6101be60048036036101b9919081019061101e565b61090c565b6040516101ce9493929190611432565b60405180910390f35b6101f160048036036101ec9190810190611047565b610a49565b6040516101fe91906114d8565b60405180910390f35b61020f610ab6565b60405161021c91906114f3565b60405180910390f35b61022d610ad5565b60405161023a91906114f3565b60405180910390f35b61024b610adf565b60405161025b9493929190611477565b60405180910390f35b60006060600080600080606080600460009054906101000a900473ffffffffffffffffffffffffffffffffffffffff166005600354600a54600760009054906101000a900473ffffffffffffffffffffffffffffffffffffffff16600660009054906101000a900473ffffffffffffffffffffffffffffffffffffffff16600b600c868054600181600116156101000203166002900480601f01602080910402602001604051908101604052809291908181526020018280546001816001161561010002031660029004801561037b5780601f106103505761010080835404028352916020019161037b565b820191906000526020600020905b81548152906001019060200180831161035e57829003601f168201915b505050505096508180548060200260200160405190810160405280929190818152602001828054801561040357602002820191906000526020600020905b8160009054906101000a900473ffffffffffffffffffffffffffffffffffffffff1673ffffffffffffffffffffffffffffffffffffffff16815260200190600101908083116103b9575b505050505091508080548060200260200160405190810160405280929190818152602001828054801561045557602002820191906000526020600020905b815481526020019060010190808311610441575b50505050509050975097509750975097509750975097509091929394959697565b3373ffffffffffffffffffffffffffffffffffffffff166000803373ffffffffffffffffffffffffffffffffffffffff1673ffffffffffffffffffffffffffffffffffffffff16815260200190815260200160002060000160009054906101000a900473ffffffffffffffffffffffffffffffffffffffff1673ffffffffffffffffffffffffffffffffffffffff161415610605576040518060a001604052803373ffffffffffffffffffffffffffffffffffffffff1681526020018381526020014281526020018281526020016000151581525060028360405161055b919061132e565b908152602001604051809103902060008201518160000160006101000a81548173ffffffffffffffffffffffffffffffffffffffff021916908373ffffffffffffffffffffffffffffffffffffffff16021790555060208201518160010190805190602001906105cc929190610e92565b50604082015181600201556060820151816003015560808201518160040160006101000a81548160ff0219169083151502179055509050505b5050565b6002818051602081018201805184825260208301602085012081835280955050505050506000915090508060000160009054906101000a900473ffffffffffffffffffffffffffffffffffffffff1690806001018054600181600116156101000203166002900480601f0160208091040260200160405190810160405280929190818152602001828054600181600116156101000203166002900480156106f15780601f106106c6576101008083540402835291602001916106f1565b820191906000526020600020905b8154815290600101906020018083116106d457829003601f168201915b5050505050908060020154908060030154908060040160009054906101000a900460ff16905085565b6000600660009054906101000a900473ffffffffffffffffffffffffffffffffffffffff1673ffffffffffffffffffffffffffffffffffffffff163373ffffffffffffffffffffffffffffffffffffffff1614156108ab5781600a5411156108a257816000808573ffffffffffffffffffffffffffffffffffffffff1673ffffffffffffffffffffffffffffffffffffffff16815260200190815260200160002060030154016000808573ffffffffffffffffffffffffffffffffffffffff1673ffffffffffffffffffffffffffffffffffffffff16815260200190815260200160002060030181905550816000808573ffffffffffffffffffffffffffffffffffffffff1673ffffffffffffffffffffffffffffffffffffffff16815260200190815260200160002060020154036000808573ffffffffffffffffffffffffffffffffffffffff1673ffffffffffffffffffffffffffffffffffffffff1681526020019081526020016000206002018190555081600a5403600a81905550600190506108ac565b600090506108ac565b5b92915050565b60006020528060005260406000206000915090508060000160009054906101000a900473ffffffffffffffffffffffffffffffffffffffff16908060010154908060020154908060030154905084565b6000600a54905090565b6000806000806000808673ffffffffffffffffffffffffffffffffffffffff1673ffffffffffffffffffffffffffffffffffffffff16815260200190815260200160002060000160009054906101000a900473ffffffffffffffffffffffffffffffffffffffff166000808773ffffffffffffffffffffffffffffffffffffffff1673ffffffffffffffffffffffffffffffffffffffff168152602001908152602001600020600101546000808873ffffffffffffffffffffffffffffffffffffffff1673ffffffffffffffffffffffffffffffffffffffff168152602001908152602001600020600201546000808973ffffffffffffffffffffffffffffffffffffffff1673ffffffffffffffffffffffffffffffffffffffff1681526020019081526020016000206003015493509350935093509193509193565b60003373ffffffffffffffffffffffffffffffffffffffff166000803373ffffffffffffffffffffffffffffffffffffffff1673ffffffffffffffffffffffffffffffffffffffff16815260200190815260200160002060000160009054906101000a9050505092915050565b60003073ffffffffffffffffffffffffffffffffffffffff1631905090565b6000600954905090565b6060806060806060600b80549050604051908082528060200260200182016040528015610b1b5781602001602082028038833980820191505090505b5090506060600b80549050604051908082528060200260200182016040528015610b545781602001602082028038833980820191505090505b5090506060600b80549050604051908082528060200260200182016040528015610b8d5781602001602082028038833980820191505090505b5090506060600b80549050604051908082528060200260200182016040528015610bc65781602001602082028038833980820191505090505b50905060008090505b600b80549050811015610e7b57600080600b8381548110610bec57fe5b9060005260206000200160009054906101000a900473ffffffffffffffffffffffffffffffffffffffff1673ffffffffffffffffffffffffffffffffffffffff1673ffffffffffffffffffffffffffffffffffffffff16815260200190815260200160002060000160009054906101000a900473ffffffffffffffffffffffffffffffffffffffff16858281518110610c8157fe5b602002602001019073ffffffffffffffffffffffffffffffffffffffff16908173ffffffffffffffffffffffffffffffffffffffff1681525050600080600b8381548110610ccb57fe5b9060005260206000200160009054906101000a900473ffffffffffffffffffffffffffffffffffffffff1673ffffffffffffffffffffffffffffffffffffffff1673ffffffffffffffffffffffffffffffffffffffff16815260200190815260200160002060010154848281518110610d4057fe5b602002602001018181525050600080600b8381548110610d5c57fe5b9060005260206000200160009054906101000a900473ffffffffffffffffffffffffffffffffffffffff1673ffffffffffffffffffffffffffffffffffffffff1673ffffffffffffffffffffffffffffffffffffffff16815260200190815260200160002060020154838281518110610dd157fe5b602002602001018181525050600080600b8381548110610ded57fe5b9060005260206000200160009054906101000a900473ffffffffffffffffffffffffffffffffffffffff1673ffffffffffffffffffffffffffffffffffffffff1673ffffffffffffffffffffffffffffffffffffffff16815260200190815260200160002060030154828281518110610e6257fe5b6020026020010181815250508080600101915050610bcf565b508383838397509750975097505050505090919293565b828054600181600116156101000203166002900490600052602060002090601f016020900481019282601f10610ed357805160ff1916838001178555610f01565b82800160010185558215610f01579182015b82811115610f00578251825591602001919060010190610ee5565b5b509050610f0e9190610f12565b5090565b610f3491905b80821115610f30576000816000905550600101610f18565b5090565b90565b600081359050610f46816116de565b92915050565b600081359050610f5b816116f5565b92915050565b600082601f830112610f7257600080fd5b8135610f85610f808261153b565b61150e565b91508082526020830160208301858383011115610fa157600080fd5b610fac83828461168b565b50505092915050565b600082601f830112610fc657600080fd5b8135610fd9610fd482611567565b61150e565b91508082526020830160208301858383011115610ff557600080fd5b61100083828461168b565b50505092915050565b6000813590506110188161170c565b92915050565b60006020828403121561103057600080fd5b600061103e84828501610f37565b91505092915050565b6000806040838503121561105a57600080fd5b600061106885828601610f4c565b925050602061107985828601611009565b9150509250929050565b6000806040838503121561109657600080fd5b60006110a485828601610f37565b92505060206110b585828601611009565b9150509250929050565b6000602082840312156110d157600080fd5b600082013567ffffffffffffffff8111156110eb57600080fd5b6110f784828501610f61565b91505092915050565b6000806040838503121561111357600080fd5b600083013567ffffffffffffffff81111561112d57600080fd5b61113985828601610fb5565b925050602061114a85828601611009565b9150509250929050565b60006111608383611184565b60208301905092915050565b60006111788383611310565b60208301905092915050565b61118d81611631565b82525050565b61119c81611631565b82525050565b60006111ad826115ad565b6111b781856115f3565b93506111c283611593565b8060005b838110156111f35781516111da8882611154565b97506111e5836115d9565b9250506001810190506111c6565b5085935050505092915050565b600061120b826115b8565b6112158185611604565b9350611220836115a0565b8060005b83811015611251578151611238888261116c565b9750611243836115e6565b925050600181019050611224565b5085935050505092915050565b61126781611655565b82525050565b6000611278826115ce565b6112828185611615565b935061129281856020860161169a565b61129b816116cd565b840191505092915050565b60006112b1826115ce565b6112bb8185611626565b93506112cb81856020860161169a565b80840191505092915050565b60006112e2826115c3565b6112ec8185611615565b93506112fc81856020860161169a565b611305816116cd565b840191505092915050565b61131981611681565b82525050565b61132881611681565b82525050565b600061133a82846112a6565b915081905092915050565b60006101008201905061135b600083018b611193565b818103602083015261136d818a61126d565b905061137c604083018961131f565b611389606083018861131f565b6113966080830187611193565b6113a360a0830186611193565b81810360c08301526113b581856111a2565b905081810360e08301526113c98184611200565b90509998505050505050505050565b600060a0820190506113ed6000830188611193565b81810360208301526113ff81876112d7565b905061140e604083018661131f565b61141b606083018561131f565b611428608083018461125e565b9695505050505050565b60006080820190506114476000830187611193565b611454602083018661131f565b611461604083018561131f565b61146e606083018461131f565b95945050505050565b6000608082019050818103600083015261149181876111a2565b905081810360208301526114a58186611200565b905081810360408301526114b98185611200565b905081810360608301526114cd8184611200565b905095945050505050565b60006020820190506114ed600083018461125e565b92915050565b6000602082019050611508600083018461131f565b92915050565b6000604051905081810181811067ffffffffffffffff8211171561153157600080fd5b8060405250919050565b600067ffffffffffffffff82111561155257600080fd5b601f19601f8301169050602081019050919050565b600067ffffffffffffffff82111561157e57600080fd5b601f19601f8301169050602081019050919050565b6000602082019050919050565b6000602082019050919050565b600081519050919050565b600081519050919050565b600081519050919050565b600081519050919050565b6000602082019050919050565b6000602082019050919050565b600082825260208201905092915050565b600082825260208201905092915050565b600082825260208201905092915050565b600081905092915050565b600061163c82611661565b9050919050565b600061164e82611661565b9050919050565b60008115159050919050565b600073ffffffffffffffffffffffffffffffffffffffff82169050919050565b6000819050919050565b82818337600083830152505050565b60005b838110156116b857808201518184015260208101905061169d565b838111156116c7576000848401525b50505050565b6000601f19601f8301169050919050565b6116e781611631565b81146116f257600080fd5b50565b6116fe81611643565b811461170957600080fd5b50565b61171581611681565b811461172057600080fd5b5056fea265627a7a723058203c69d04eef37f0716ce320c656f13dbb7c941c576907f1f971331eee3bd687786c6578706572696d656e74616cf50037",
  "source": "pragma solidity ^0.5.3;\r\npragma experimental ABIEncoderV2;\r\n\r\ncontract cDao {\r\n\r\n    struct contractor {\r\n        address contractorAddress;\r\n        uint initialTokensAllocated;\r\n        uint remainingTokensAllocated;\r\n        uint currentAvailableTokens;\r\n    }\r\n\r\n    // Structure for submitted invoice to the cDao\r\n    struct invoice{\r\n        address submittor;\r\n        string invoiceHash;\r\n        uint invoiceDate;\r\n        uint amountRequested;\r\n        bool complete;\r\n    }\r\n\r\n    //contractor[address] will retrieve their address and token allocation\r\n    mapping(address => contractor) public contractorInfo;\r\n\r\n    //need an array of invoices\r\n    address[] invoices;\r\n\r\n    //need to setup an invoice struct map\r\n    mapping(string => invoice) public invoiceData;\r\n\r\n    //Date of contract creation (unix time)\r\n    uint creationDate;\r\n\r\n    //This will be the address of the fund\r\n    address fundId;\r\n\r\n    //Fund Name\r\n    string fundName;\r\n\r\n    //This is the person that will approve everything\r\n    address operatorOwner;\r\n\r\n    //This person is issuing the debt (government)\r\n    address debtIssuer;\r\n\r\n    //This is the amount of money being issued\r\n    uint totalFundAmount;\r\n\r\n    //Amount of tokens created\r\n    uint totalTokensFund;\r\n\r\n    //Current amount of tokens left\r\n    uint currentTokensFund;\r\n\r\n    //These people are able to receive funds\r\n    //And these people would be able to request\r\n    address[] subContractors;\r\n\r\n    //These are the allocations amounts of the total\r\n    uint[] allocations;\r\n\r\n    //Approve proposal - if this is true then we can build the contract\r\n    bool approved;\r\n\r\n    //Do we need a time release for funds would this be a schedule like a once every month? Or maybe an end release date?\r\n    //uint releaseFundsDate;\r\n\r\n    constructor(\r\n        string memory _fundName, address _debtIssuer, address _operatorOwner, uint _fundAmount, address[] memory _subContractors, uint[] memory _allocations\r\n        ) public {\r\n        fundId = address(this);\r\n        creationDate = now;\r\n        fundName = _fundName;\r\n        debtIssuer = _debtIssuer;\r\n        operatorOwner = _operatorOwner;\r\n        totalFundAmount = _fundAmount;\r\n        totalTokensFund = _fundAmount;\r\n        currentTokensFund = _fundAmount;\r\n        //We need to confirm that the total amount of allocations in the array are not > the total tokens being submitted.\r\n        for (uint i = 0; i < _subContractors.length; i++) {\r\n            contractorInfo[_subContractors[i]] = contractor(_subContractors[i], _allocations[i], _allocations[i], 0);\r\n            subContractors.push(_subContractors[i]);\r\n        }\r\n    }\r\n\r\n    function getTotalTokens() public view returns (uint){\r\n        return totalTokensFund;\r\n    }\r\n\r\n    function getRemainingTokens() public view returns (uint){\r\n        return currentTokensFund;\r\n    }\r\n\r\n    function getDaoDetails() public view returns (address, string memory, uint, uint, address, address, address[] memory, uint[] memory){\r\n        return (fundId, fundName, creationDate, currentTokensFund, debtIssuer, operatorOwner, subContractors, allocations);\r\n    }\r\n\r\n    function getDaoBalance() public view returns (uint){\r\n        return address(this).balance;\r\n    }\r\n\r\n    function getContrator(address _address) public view returns (address, uint, uint, uint){\r\n        return (contractorInfo[_address].contractorAddress,\r\n        contractorInfo[_address].initialTokensAllocated,\r\n        contractorInfo[_address].remainingTokensAllocated,\r\n        contractorInfo[_address].currentAvailableTokens);\r\n    }\r\n\r\n    function getDaoContractorsWithFunds() public view returns (address[] memory, uint[] memory, uint[] memory, uint[] memory){\r\n        address[] memory contractoraddress = new address[](subContractors.length);\r\n        uint[] memory initialTokens = new uint[](subContractors.length);\r\n        uint[] memory remainingTokens = new uint[](subContractors.length);\r\n        uint[] memory currentlyAvailableToWithdraw = new uint[](subContractors.length);\r\n        for (uint i = 0; i < subContractors.length; i++) {\r\n            contractoraddress[i] = contractorInfo[subContractors[i]].contractorAddress;\r\n            initialTokens[i] = contractorInfo[subContractors[i]].initialTokensAllocated;\r\n            remainingTokens[i] = contractorInfo[subContractors[i]].remainingTokensAllocated;\r\n            currentlyAvailableToWithdraw[i] = contractorInfo[subContractors[i]].currentAvailableTokens;\r\n        }\r\n        return (contractoraddress,initialTokens,remainingTokens,currentlyAvailableToWithdraw);\r\n    }\r\n\r\n    function doSubmitInvoice(string memory _fileHash, uint _amountRequested) public {\r\n        if (contractorInfo[msg.sender].contractorAddress == msg.sender){\r\n            invoiceData[_fileHash] = invoice(msg.sender, _fileHash, now, _amountRequested, false);\r\n        }\r\n    }\r\n\r\n    function confirmInvoiceTransferTokens(address _to, uint256 _amountRequested) public returns (bool success) {\r\n        if (msg.sender == operatorOwner) {\r\n            if (currentTokensFund > _amountRequested) {\r\n                contractorInfo[_to].currentAvailableTokens = (contractorInfo[_to].currentAvailableTokens + _amountRequested);\r\n                contractorInfo[_to].remainingTokensAllocated = (contractorInfo[_to].remainingTokensAllocated - _amountRequested);\r\n                currentTokensFund = (currentTokensFund - _amountRequested);\r\n                return true;\r\n            }\r\n            return false;\r\n        }\r\n    }\r\n\r\n\r\n    function pullFundsBurnToken(address payable _to, uint _amount) public returns (bool success) {\r\n        if (contractorInfo[msg.sender].contractorAddress == msg.sender){\r\n        //confirm the contractor address trying to pull funds is eligibile to pull funds\r\n        //check to see if the contractor address has available tokens left\r\n        //_to.transfer(address(this)._amount);\r\n        }\r\n    }\r\n\r\n}",
  "sourcePath": "C:\\Users\\Steami\\Projects\\b4g\\contracts\\cDao.sol",
  "compiler": {
    "name": "solc",
    "version": "0.5.8+commit.23d335f2.Emscripten.clang"
  },
  "schemaVersion": "3.0.16",
  "updatedAt": "2019-10-27T22:56:34.276Z",
  "devdoc": {
    "methods": {}
  },
  "userdoc": {
    "methods": {}
  }
}