{
  "contractName": "Corruption",
  "abi": [
    {
      "constant": true,
      "inputs": [
        {
          "name": "",
          "type": "address"
        }
      ],
      "name": "contractor",
      "outputs": [
        {
          "name": "id",
          "type": "address"
        },
        {
          "name": "name",
          "type": "string"
        },
        {
          "name": "hexForLicense",
          "type": "string"
        }
      ],
      "payable": false,
      "stateMutability": "view",
      "type": "function"
    },
    {
      "inputs": [],
      "payable": true,
      "stateMutability": "payable",
      "type": "constructor"
    },
    {
      "constant": false,
      "inputs": [
        {
          "name": "_id",
          "type": "address"
        },
        {
          "name": "_name",
          "type": "string"
        },
        {
          "name": "_hexForLicense",
          "type": "string"
        }
      ],
      "name": "doSubmitContractorInfo",
      "outputs": [],
      "payable": true,
      "stateMutability": "payable",
      "type": "function"
    },
    {
      "constant": false,
      "inputs": [
        {
          "name": "_fundName",
          "type": "string"
        },
        {
          "name": "_debtIssuer",
          "type": "address"
        },
        {
          "name": "_operatorOwner",
          "type": "address"
        },
        {
          "name": "_fundAmount",
          "type": "uint256"
        },
        {
          "name": "_subContractors",
          "type": "address[]"
        }
      ],
      "name": "doCreateCorruptionContract",
      "outputs": [],
      "payable": false,
      "stateMutability": "nonpayable",
      "type": "function"
    }
  ],
  "bytecode": "0x608060405233600160006101000a81548173ffffffffffffffffffffffffffffffffffffffff021916908373ffffffffffffffffffffffffffffffffffffffff160217905550610a50806100546000396000f3fe6080604052600436106100345760003560e01c8063179701f2146100395780636fdd22b1146101df578063cfe41acd14610348575b600080fd5b34801561004557600080fd5b506101dd600480360360a081101561005c57600080fd5b810190808035906020019064010000000081111561007957600080fd5b82018360208201111561008b57600080fd5b803590602001918460018302840111640100000000831117156100ad57600080fd5b91908080601f016020809104026020016040519081016040528093929190818152602001838380828437600081840152601f19601f820116905080830192505050505050509192919290803573ffffffffffffffffffffffffffffffffffffffff169060200190929190803573ffffffffffffffffffffffffffffffffffffffff169060200190929190803590602001909291908035906020019064010000000081111561015a57600080fd5b82018360208201111561016c57600080fd5b8035906020019184602083028401116401000000008311171561018e57600080fd5b919080806020026020016040519081016040528093929190818152602001838360200280828437600081840152601f19601f8201169050808301925050505050505091929192905050506104ba565b005b3480156101eb57600080fd5b5061022e6004803603602081101561020257600080fd5b81019080803573ffffffffffffffffffffffffffffffffffffffff1690602001909291905050506105c0565b604051808473ffffffffffffffffffffffffffffffffffffffff1673ffffffffffffffffffffffffffffffffffffffff1681526020018060200180602001838103835285818151815260200191508051906020019080838360005b838110156102a4578082015181840152602081019050610289565b50505050905090810190601f1680156102d15780820380516001836020036101000a031916815260200191505b50838103825284818151815260200191508051906020019080838360005b8381101561030a5780820151818401526020810190506102ef565b50505050905090810190601f1680156103375780820380516001836020036101000a031916815260200191505b509550505050505060405180910390f35b6104b86004803603606081101561035e57600080fd5b81019080803573ffffffffffffffffffffffffffffffffffffffff1690602001909291908035906020019064010000000081111561039b57600080fd5b8201836020820111156103ad57600080fd5b803590602001918460018302840111640100000000831117156103cf57600080fd5b91908080601f016020809104026020016040519081016040528093929190818152602001838380828437600081840152601f19601f8201169050808301925050505050505091929192908035906020019064010000000081111561043257600080fd5b82018360208201111561044457600080fd5b8035906020019184600183028401116401000000008311171561046657600080fd5b91908080601f016020809104026020016040519081016040528093929190818152602001838380828437600081840152601f19601f82011690508083019250505050505050919291929050505061073a565b005b30600260006101000a81548173ffffffffffffffffffffffffffffffffffffffff021916908373ffffffffffffffffffffffffffffffffffffffff1602179055508460039080519060200190610511929190610832565b5083600560006101000a81548173ffffffffffffffffffffffffffffffffffffffff021916908373ffffffffffffffffffffffffffffffffffffffff16021790555082600460006101000a81548173ffffffffffffffffffffffffffffffffffffffff021916908373ffffffffffffffffffffffffffffffffffffffff1602179055508160068190555080600890805190602001906105b19291906108b2565b5042600b819055505050505050565b60006020528060005260406000206000915090508060000160009054906101000a900473ffffffffffffffffffffffffffffffffffffffff1690806001018054600181600116156101000203166002900480601f0160208091040260200160405190810160405280929190818152602001828054600181600116156101000203166002900480156106925780601f1061066757610100808354040283529160200191610692565b820191906000526020600020905b81548152906001019060200180831161067557829003601f168201915b505050505090806002018054600181600116156101000203166002900480601f0160208091040260200160405190810160405280929190818152602001828054600181600116156101000203166002900480156107305780601f1061070557610100808354040283529160200191610730565b820191906000526020600020905b81548152906001019060200180831161071357829003601f168201915b5050505050905083565b60405180606001604052803073ffffffffffffffffffffffffffffffffffffffff168152602001838152602001828152506000808573ffffffffffffffffffffffffffffffffffffffff1673ffffffffffffffffffffffffffffffffffffffff16815260200190815260200160002060008201518160000160006101000a81548173ffffffffffffffffffffffffffffffffffffffff021916908373ffffffffffffffffffffffffffffffffffffffff160217905550602082015181600101908051906020019061080c92919061093c565b50604082015181600201908051906020019061082992919061093c565b50905050505050565b828054600181600116156101000203166002900490600052602060002090601f016020900481019282601f1061087357805160ff19168380011785556108a1565b828001600101855582156108a1579182015b828111156108a0578251825591602001919060010190610885565b5b5090506108ae91906109bc565b5090565b82805482825590600052602060002090810192821561092b579160200282015b8281111561092a5782518260006101000a81548173ffffffffffffffffffffffffffffffffffffffff021916908373ffffffffffffffffffffffffffffffffffffffff160217905550916020019190600101906108d2565b5b50905061093891906109e1565b5090565b828054600181600116156101000203166002900490600052602060002090601f016020900481019282601f1061097d57805160ff19168380011785556109ab565b828001600101855582156109ab579182015b828111156109aa57825182559160200191906001019061098f565b5b5090506109b891906109bc565b5090565b6109de91905b808211156109da5760008160009055506001016109c2565b5090565b90565b610a2191905b80821115610a1d57600081816101000a81549073ffffffffffffffffffffffffffffffffffffffff0219169055506001016109e7565b5090565b9056fea165627a7a72305820cb7bf80f64e98b04e7afa6f66de99d35b231c0d6904ff7a2cbe5e307f887d07e0029",
  "source": "pragma solidity ^0.5.3;\r\n\r\ncontract Corruption {\r\n    \r\n    struct contractorInfo{\r\n        //The contractor info is their address\r\n        address id;\r\n        //Company Name\r\n        string name;\r\n        // This would be a hex to something hosted on IPFS or something\r\n        string hexForLicense;\r\n    }\r\n\r\n    mapping(address => contractorInfo) public contractor;\r\n\r\n    //This will be the address of the us\r\n    address ourWallet;\r\n\r\n    //This will be the address of the fund\r\n    address fundId;\r\n\r\n    //Fund Name\r\n    string fundName;\r\n\r\n    //This is the person that will approve everything\r\n    address operatorOwner;\r\n\r\n    //This person is issuing the debt (government)\r\n    address debtIssuer;\r\n\r\n    //This is the amount of money being issues\r\n    uint fundAmount;\r\n\r\n    //This person\r\n    address fundReceiver;\r\n\r\n    //These people are able to receive funds\r\n    //And these people would be able to request\r\n    address[] subContractors;\r\n\r\n    //Approve proposal - if this is true then we can build the contract\r\n    bool approved;\r\n\r\n    //Do we need a time release for funds\r\n    // would this be a schedule like a once every month? Or maybe an end release date?\r\n    uint releaseFundsDate;\r\n\r\n    //Date of contract creation (unix time)\r\n    uint creationDate;\r\n\r\n    constructor() payable public {\r\n        ourWallet = msg.sender;\r\n    }\r\n\r\n    //Submit a contrators info\r\n    function doSubmitContractorInfo(address _id, string memory _name, string memory _hexForLicense) public payable {\r\n        //The contractors license would be uploaded to an immutable decentralized file storage like IPFS in a Javascript implementation\r\n        contractor[_id] = contractorInfo(address(this), _name, _hexForLicense);\r\n    }\r\n\r\n    function doCreateCorruptionContract(string memory _fundName, address _debtIssuer, address _operatorOwner, uint _fundAmount, address[] memory _subContractors) public {\r\n        fundId = address(this);\r\n        fundName = _fundName;\r\n        debtIssuer = _debtIssuer;\r\n        operatorOwner = _operatorOwner;\r\n        fundAmount = _fundAmount;\r\n        subContractors = _subContractors;\r\n        creationDate = now;\r\n    }\r\n}",
  "sourcePath": "C:/Users/Steami/Projects/b4g/contracts/Corruption.sol",
  "compiler": {
    "name": "solc",
    "version": "0.5.8+commit.23d335f2.Emscripten.clang"
  },
  "schemaVersion": "3.0.16",
  "updatedAt": "2019-10-26T20:36:04.459Z",
  "devdoc": {
    "methods": {}
  },
  "userdoc": {
    "methods": {}
  }
}