{
  "contractName": "Corruption",
  "abi": [
    {
      "inputs": [],
      "payable": true,
      "stateMutability": "payable",
      "type": "constructor"
    },
    {
      "constant": false,
      "inputs": [
        {
          "name": "_fundName",
          "type": "string"
        },
        {
          "name": "_debtIssuer",
          "type": "address"
        },
        {
          "name": "_operatorOwner",
          "type": "address"
        },
        {
          "name": "_fundAmount",
          "type": "uint256"
        },
        {
          "name": "_subContractors",
          "type": "address[]"
        },
        {
          "name": "_allocations",
          "type": "uint256[]"
        }
      ],
      "name": "doCreateCorruptionContract",
      "outputs": [],
      "payable": false,
      "stateMutability": "nonpayable",
      "type": "function"
    },
    {
      "constant": true,
      "inputs": [],
      "name": "getAllContracts",
      "outputs": [
        {
          "name": "",
          "type": "address[]"
        }
      ],
      "payable": false,
      "stateMutability": "view",
      "type": "function"
    },
    {
      "constant": true,
      "inputs": [
        {
          "name": "_contract",
          "type": "address"
        }
      ],
      "name": "getTotalTokensInContract",
      "outputs": [
        {
          "name": "",
          "type": "uint256"
        }
      ],
      "payable": false,
      "stateMutability": "view",
      "type": "function"
    },
    {
      "constant": true,
      "inputs": [
        {
          "name": "_contract",
          "type": "address"
        }
      ],
      "name": "getDaoInfo",
      "outputs": [
        {
          "name": "",
          "type": "address"
        },
        {
          "name": "",
          "type": "string"
        },
        {
          "name": "",
          "type": "uint256"
        },
        {
          "name": "",
          "type": "uint256"
        },
        {
          "name": "",
          "type": "address"
        },
        {
          "name": "",
          "type": "address"
        }
      ],
      "payable": false,
      "stateMutability": "view",
      "type": "function"
    },
    {
      "constant": true,
      "inputs": [
        {
          "name": "_contract",
          "type": "address"
        }
      ],
      "name": "getDaoBalance",
      "outputs": [
        {
          "name": "",
          "type": "uint256"
        }
      ],
      "payable": false,
      "stateMutability": "view",
      "type": "function"
    }
  ],
  "bytecode": "0x608060405233600160006101000a81548173ffffffffffffffffffffffffffffffffffffffff021916908373ffffffffffffffffffffffffffffffffffffffff16021790555061196b806100546000396000f3fe60806040523480156200001157600080fd5b50600436106200005e5760003560e01c806318d3ce96146200006357806330407cb814620000c6578063441e362914620001215780634f69f5e5146200017c578063b1e0428414620002e6575b600080fd5b6200006d6200051f565b6040518080602001828103825283818151815260200191508051906020019060200280838360005b83811015620000b257808201518184015260208101905062000095565b505050509050019250505060405180910390f35b6200010b60048036036020811015620000de57600080fd5b81019080803573ffffffffffffffffffffffffffffffffffffffff169060200190929190505050620005af565b6040518082815260200191505060405180910390f35b62000166600480360360208110156200013957600080fd5b81019080803573ffffffffffffffffffffffffffffffffffffffff1690602001909291905050506200063c565b6040518082815260200191505060405180910390f35b620001c1600480360360208110156200019457600080fd5b81019080803573ffffffffffffffffffffffffffffffffffffffff169060200190929190505050620006c9565b604051808773ffffffffffffffffffffffffffffffffffffffff1673ffffffffffffffffffffffffffffffffffffffff168152602001806020018681526020018581526020018473ffffffffffffffffffffffffffffffffffffffff1673ffffffffffffffffffffffffffffffffffffffff1681526020018373ffffffffffffffffffffffffffffffffffffffff1673ffffffffffffffffffffffffffffffffffffffff168152602001828103825287818151815260200191508051906020019080838360005b83811015620002a557808201518184015260208101905062000288565b50505050905090810190601f168015620002d35780820380516001836020036101000a031916815260200191505b5097505050505050505060405180910390f35b6200051d600480360360c0811015620002fe57600080fd5b81019080803590602001906401000000008111156200031c57600080fd5b8201836020820111156200032f57600080fd5b803590602001918460018302840111640100000000831117156200035257600080fd5b91908080601f016020809104026020016040519081016040528093929190818152602001838380828437600081840152601f19601f820116905080830192505050505050509192919290803573ffffffffffffffffffffffffffffffffffffffff169060200190929190803573ffffffffffffffffffffffffffffffffffffffff16906020019092919080359060200190929190803590602001906401000000008111156200040057600080fd5b8201836020820111156200041357600080fd5b803590602001918460208302840111640100000000831117156200043657600080fd5b919080806020026020016040519081016040528093929190818152602001838360200280828437600081840152601f19601f820116905080830192505050505050509192919290803590602001906401000000008111156200049757600080fd5b820183602082011115620004aa57600080fd5b80359060200191846020830284011164010000000083111715620004cd57600080fd5b919080806020026020016040519081016040528093929190818152602001838360200280828437600081840152601f19601f820116905080830192505050505050509192919290505050620007fa565b005b60606000805480602002602001604051908101604052809291908181526020018280548015620005a557602002820191906000526020600020905b8160009054906101000a900473ffffffffffffffffffffffffffffffffffffffff1673ffffffffffffffffffffffffffffffffffffffff16815260200190600101908083116200055a575b5050505050905090565b60008173ffffffffffffffffffffffffffffffffffffffff1663f08b82e66040518163ffffffff1660e01b815260040160206040518083038186803b158015620005f857600080fd5b505afa1580156200060d573d6000803e3d6000fd5b505050506040513d60208110156200062457600080fd5b81019080805190602001909291905050509050919050565b60008173ffffffffffffffffffffffffffffffffffffffff1663f046f9846040518163ffffffff1660e01b815260040160206040518083038186803b1580156200068557600080fd5b505afa1580156200069a573d6000803e3d6000fd5b505050506040513d6020811015620006b157600080fd5b81019080805190602001909291905050509050919050565b600060606000806000808673ffffffffffffffffffffffffffffffffffffffff166308746fd46040518163ffffffff1660e01b815260040160006040518083038186803b1580156200071a57600080fd5b505afa1580156200072f573d6000803e3d6000fd5b505050506040513d6000823e3d601f19601f8201168201806040525060c08110156200075a57600080fd5b810190808051906020019092919080516401000000008111156200077d57600080fd5b828101905060208101848111156200079457600080fd5b8151856001820283011164010000000082111715620007b257600080fd5b50509291906020018051906020019092919080519060200190929190805190602001909291908051906020019092919050505095509550955095509550955091939550919395565b6000868686868686604051620008109062000a12565b80806020018773ffffffffffffffffffffffffffffffffffffffff1673ffffffffffffffffffffffffffffffffffffffff1681526020018673ffffffffffffffffffffffffffffffffffffffff1673ffffffffffffffffffffffffffffffffffffffff168152602001858152602001806020018060200184810384528a818151815260200191508051906020019080838360005b83811015620008c1578082015181840152602081019050620008a4565b50505050905090810190601f168015620008ef5780820380516001836020036101000a031916815260200191505b50848103835286818151815260200191508051906020019060200280838360005b838110156200092d57808201518184015260208101905062000910565b50505050905001848103825285818151815260200191508051906020019060200280838360005b838110156200097157808201518184015260208101905062000954565b505050509050019950505050505050505050604051809103906000f080158015620009a0573d6000803e3d6000fd5b50905060008190806001815401808255809150509060018203906000526020600020016000909192909190916101000a81548173ffffffffffffffffffffffffffffffffffffffff021916908373ffffffffffffffffffffffffffffffffffffffff1602179055505050505050505050565b610f1f8062000a218339019056fe60806040523480156200001157600080fd5b5060405162000f1f38038062000f1f833981018060405260c08110156200003757600080fd5b8101908080516401000000008111156200005057600080fd5b828101905060208101848111156200006757600080fd5b81518560018202830111640100000000821117156200008557600080fd5b50509291906020018051906020019092919080519060200190929190805190602001909291908051640100000000811115620000c057600080fd5b82810190506020810184811115620000d757600080fd5b8151856020820283011164010000000082111715620000f557600080fd5b505092919060200180516401000000008111156200011257600080fd5b828101905060208101848111156200012957600080fd5b81518560208202830111640100000000821117156200014757600080fd5b505092919050505030600460006101000a81548173ffffffffffffffffffffffffffffffffffffffff021916908373ffffffffffffffffffffffffffffffffffffffff160217905550426003819055508560059080519060200190620001af92919062000285565b5084600760006101000a81548173ffffffffffffffffffffffffffffffffffffffff021916908373ffffffffffffffffffffffffffffffffffffffff16021790555083600660006101000a81548173ffffffffffffffffffffffffffffffffffffffff021916908373ffffffffffffffffffffffffffffffffffffffff160217905550826008819055508260098190555082600a8190555081600b90805190602001906200025f9291906200030c565b5080600c9080519060200190620002789291906200039b565b505050505050506200045b565b828054600181600116156101000203166002900490600052602060002090601f016020900481019282601f10620002c857805160ff1916838001178555620002f9565b82800160010185558215620002f9579182015b82811115620002f8578251825591602001919060010190620002db565b5b509050620003089190620003ed565b5090565b82805482825590600052602060002090810192821562000388579160200282015b82811115620003875782518260006101000a81548173ffffffffffffffffffffffffffffffffffffffff021916908373ffffffffffffffffffffffffffffffffffffffff160217905550916020019190600101906200032d565b5b50905062000397919062000415565b5090565b828054828255906000526020600020908101928215620003da579160200282015b82811115620003d9578251825591602001919060010190620003bc565b5b509050620003e99190620003ed565b5090565b6200041291905b808211156200040e576000816000905550600101620003f4565b5090565b90565b6200045891905b808211156200045457600081816101000a81549073ffffffffffffffffffffffffffffffffffffffff0219169055506001016200041c565b5090565b90565b610ab4806200046b6000396000f3fe608060405234801561001057600080fd5b50600436106100935760003560e01c8063a6078acc11610066578063a6078acc14610373578063a9059cbb146103fe578063e9c6968c14610464578063f046f984146105d9578063f08b82e6146105f757610093565b806308746fd414610098578063095ea7b3146101c25780630e58eca41461022857806323b872dd146102ed575b600080fd5b6100a0610615565b604051808773ffffffffffffffffffffffffffffffffffffffff1673ffffffffffffffffffffffffffffffffffffffff168152602001806020018681526020018581526020018473ffffffffffffffffffffffffffffffffffffffff1673ffffffffffffffffffffffffffffffffffffffff1681526020018373ffffffffffffffffffffffffffffffffffffffff1673ffffffffffffffffffffffffffffffffffffffff168152602001828103825287818151815260200191508051906020019080838360005b83811015610182578082015181840152602081019050610167565b50505050905090810190601f1680156101af5780820380516001836020036101000a031916815260200191505b5097505050505050505060405180910390f35b61020e600480360360408110156101d857600080fd5b81019080803573ffffffffffffffffffffffffffffffffffffffff16906020019092919080359060200190929190505050610740565b604051808215151515815260200191505060405180910390f35b6102eb6004803603604081101561023e57600080fd5b810190808035906020019064010000000081111561025b57600080fd5b82018360208201111561026d57600080fd5b8035906020019184600183028401116401000000008311171561028f57600080fd5b91908080601f016020809104026020016040519081016040528093929190818152602001838380828437600081840152601f19601f82011690508083019250505050505050919291929080359060200190929190505050610748565b005b6103596004803603606081101561030357600080fd5b81019080803573ffffffffffffffffffffffffffffffffffffffff169060200190929190803573ffffffffffffffffffffffffffffffffffffffff16906020019092919080359060200190929190505050610867565b604051808215151515815260200191505060405180910390f35b6103b56004803603602081101561038957600080fd5b81019080803573ffffffffffffffffffffffffffffffffffffffff169060200190929190505050610870565b604051808373ffffffffffffffffffffffffffffffffffffffff1673ffffffffffffffffffffffffffffffffffffffff1681526020018281526020019250505060405180910390f35b61044a6004803603604081101561041457600080fd5b81019080803573ffffffffffffffffffffffffffffffffffffffff169060200190929190803590602001909291905050506108b4565b604051808215151515815260200191505060405180910390f35b61051d6004803603602081101561047a57600080fd5b810190808035906020019064010000000081111561049757600080fd5b8201836020820111156104a957600080fd5b803590602001918460018302840111640100000000831117156104cb57600080fd5b91908080601f016020809104026020016040519081016040528093929190818152602001838380828437600081840152601f19601f8201169050808301925050505050505091929192905050506108bc565b604051808573ffffffffffffffffffffffffffffffffffffffff1673ffffffffffffffffffffffffffffffffffffffff16815260200180602001848152602001838152602001828103825285818151815260200191508051906020019080838360005b8381101561059b578082015181840152602081019050610580565b50505050905090810190601f1680156105c85780820380516001836020036101000a031916815260200191505b509550505050505060405180910390f35b6105e16109ba565b6040518082815260200191505060405180910390f35b6105ff6109d9565b6040518082815260200191505060405180910390f35b60006060600080600080600460009054906101000a900473ffffffffffffffffffffffffffffffffffffffff166005600354600a54600760009054906101000a900473ffffffffffffffffffffffffffffffffffffffff16600660009054906101000a900473ffffffffffffffffffffffffffffffffffffffff16848054600181600116156101000203166002900480601f0160208091040260200160405190810160405280929190818152602001828054600181600116156101000203166002900480156107255780601f106106fa57610100808354040283529160200191610725565b820191906000526020600020905b81548152906001019060200180831161070857829003601f168201915b50505050509450955095509550955095509550909192939495565b600092915050565b60405180608001604052803373ffffffffffffffffffffffffffffffffffffffff168152602001838152602001428152602001828152506002836040518082805190602001908083835b602083106107b55780518252602082019150602081019050602083039250610792565b6001836020036101000a038019825116818451168082178552505050505050905001915050908152602001604051809103902060008201518160000160006101000a81548173ffffffffffffffffffffffffffffffffffffffff021916908373ffffffffffffffffffffffffffffffffffffffff160217905550602082015181600101908051906020019061084b9291906109e3565b5060408201518160020155606082015181600301559050505050565b60009392505050565b60006020528060005260406000206000915090508060000160009054906101000a900473ffffffffffffffffffffffffffffffffffffffff16908060010154905082565b600092915050565b6002818051602081018201805184825260208301602085012081835280955050505050506000915090508060000160009054906101000a900473ffffffffffffffffffffffffffffffffffffffff1690806001018054600181600116156101000203166002900480601f0160208091040260200160405190810160405280929190818152602001828054600181600116156101000203166002900480156109a45780601f10610979576101008083540402835291602001916109a4565b820191906000526020600020905b81548152906001019060200180831161098757829003601f168201915b5050505050908060020154908060030154905084565b60003073ffffffffffffffffffffffffffffffffffffffff1631905090565b6000600954905090565b828054600181600116156101000203166002900490600052602060002090601f016020900481019282601f10610a2457805160ff1916838001178555610a52565b82800160010185558215610a52579182015b82811115610a51578251825591602001919060010190610a36565b5b509050610a5f9190610a63565b5090565b610a8591905b80821115610a81576000816000905550600101610a69565b5090565b9056fea165627a7a723058204ac136e78d941f1aa1e2ff8a1d475b320a5b2438cbdfac26a9edcfd1c1d076980029a165627a7a72305820406c0da25e4c5da58bdea34523360d2056ecf0358406f3dc539639b9da99f6bb0029",
  "source": "pragma solidity ^0.5.3;\r\nimport './cDao.sol';\r\n\r\ncontract Corruption {\r\n    \r\n    struct contractorInfo{\r\n        //The contractor info is their address\r\n        address id;\r\n        //Company Name\r\n        string name;\r\n        // This would be a hex to something hosted on IPFS or something\r\n        string hexForLicense;\r\n    }\r\n\r\n    //This is for debugging /tracking successful builds\r\n    address[] allContracts;\r\n\r\n    //This will be the address of the us\r\n    address ourWallet;\r\n\r\n    constructor() payable public {\r\n        ourWallet = msg.sender;\r\n    }\r\n\r\n    //Map the contractors info to their address - so it can be easily referenced\r\n    //mapping(address => contractorInfo) public contractor;\r\n    //Submit a contrators info\r\n    //function doSubmitContractorInfo(address _id, string memory _name, string memory _hexForLicense) public payable {\r\n    //    //The contractors license would be uploaded to an immutable decentralized file storage like IPFS in a Javascript implementation\r\n    //    contractor[_id] = contractorInfo(address(this), _name, _hexForLicense);\r\n    //}\r\n\r\n    function doCreateCorruptionContract(\r\n        string memory _fundName, address _debtIssuer, address _operatorOwner, uint _fundAmount, address[] memory _subContractors, uint[] memory _allocations)\r\n        public {\r\n        cDao c = new cDao(_fundName,  _debtIssuer, _operatorOwner, _fundAmount, _subContractors, _allocations);\r\n        allContracts.push(address(c));\r\n    }\r\n\r\n    function getAllContracts() public view returns (address[] memory){\r\n        return allContracts;\r\n    }\r\n\r\n    function getTotalTokensInContract(address _contract) public view returns (uint) {\r\n        return cDao(_contract).getTotalTokens();\r\n    }\r\n\r\n    function getDaoInfo(address _contract) public view returns (address, string memory, uint, uint, address, address) {\r\n        return cDao(_contract).getDaoDetails();\r\n    }\r\n\r\n    function getDaoBalance(address _contract) public view returns (uint){\r\n        return cDao(_contract).getDaoBalance();\r\n    }\r\n}",
  "sourcePath": "C:/Users/Steami/Projects/b4g/contracts/Corruption.sol",
  "compiler": {
    "name": "solc",
    "version": "0.5.8+commit.23d335f2.Emscripten.clang"
  },
  "schemaVersion": "3.0.16",
  "updatedAt": "2019-10-27T01:09:16.846Z",
  "devdoc": {
    "methods": {}
  },
  "userdoc": {
    "methods": {}
  }
}