{
  "contractName": "Corruption",
  "abi": [
    {
      "constant": true,
      "inputs": [
        {
          "name": "",
          "type": "address"
        }
      ],
      "name": "contractor",
      "outputs": [
        {
          "name": "id",
          "type": "address"
        },
        {
          "name": "name",
          "type": "string"
        },
        {
          "name": "hexForLicense",
          "type": "string"
        }
      ],
      "payable": false,
      "stateMutability": "view",
      "type": "function"
    },
    {
      "constant": true,
      "inputs": [
        {
          "name": "",
          "type": "address"
        }
      ],
      "name": "tokens",
      "outputs": [
        {
          "name": "",
          "type": "uint256"
        }
      ],
      "payable": false,
      "stateMutability": "view",
      "type": "function"
    },
    {
      "inputs": [],
      "payable": true,
      "stateMutability": "payable",
      "type": "constructor"
    },
    {
      "constant": false,
      "inputs": [
        {
          "name": "_id",
          "type": "address"
        },
        {
          "name": "_name",
          "type": "string"
        },
        {
          "name": "_hexForLicense",
          "type": "string"
        }
      ],
      "name": "doSubmitContractorInfo",
      "outputs": [],
      "payable": true,
      "stateMutability": "payable",
      "type": "function"
    },
    {
      "constant": false,
      "inputs": [
        {
          "name": "_fundName",
          "type": "string"
        },
        {
          "name": "_debtIssuer",
          "type": "address"
        },
        {
          "name": "_operatorOwner",
          "type": "address"
        },
        {
          "name": "_fundAmount",
          "type": "uint256"
        },
        {
          "name": "_subContractors",
          "type": "address[]"
        }
      ],
      "name": "doCreateCorruptionContract",
      "outputs": [],
      "payable": false,
      "stateMutability": "nonpayable",
      "type": "function"
    },
    {
      "constant": true,
      "inputs": [],
      "name": "getAllContracts",
      "outputs": [
        {
          "name": "",
          "type": "address[]"
        }
      ],
      "payable": false,
      "stateMutability": "view",
      "type": "function"
    },
    {
      "constant": true,
      "inputs": [
        {
          "name": "_contract",
          "type": "address"
        }
      ],
      "name": "getTotalTokens",
      "outputs": [
        {
          "name": "",
          "type": "uint256"
        }
      ],
      "payable": false,
      "stateMutability": "view",
      "type": "function"
    },
    {
      "constant": true,
      "inputs": [
        {
          "name": "_contract",
          "type": "address"
        }
      ],
      "name": "getDaoInfo",
      "outputs": [
        {
          "name": "",
          "type": "address"
        },
        {
          "name": "",
          "type": "string"
        },
        {
          "name": "",
          "type": "uint256"
        },
        {
          "name": "",
          "type": "uint256"
        },
        {
          "name": "",
          "type": "address"
        },
        {
          "name": "",
          "type": "address"
        }
      ],
      "payable": false,
      "stateMutability": "view",
      "type": "function"
    },
    {
      "constant": false,
      "inputs": [
        {
          "name": "_to",
          "type": "address"
        },
        {
          "name": "_value",
          "type": "uint256"
        }
      ],
      "name": "transfer",
      "outputs": [
        {
          "name": "success",
          "type": "bool"
        }
      ],
      "payable": false,
      "stateMutability": "nonpayable",
      "type": "function"
    },
    {
      "constant": false,
      "inputs": [
        {
          "name": "_spender",
          "type": "address"
        },
        {
          "name": "_value",
          "type": "uint256"
        }
      ],
      "name": "approve",
      "outputs": [
        {
          "name": "success",
          "type": "bool"
        }
      ],
      "payable": false,
      "stateMutability": "nonpayable",
      "type": "function"
    },
    {
      "constant": false,
      "inputs": [
        {
          "name": "_from",
          "type": "address"
        },
        {
          "name": "_to",
          "type": "address"
        },
        {
          "name": "_value",
          "type": "uint256"
        }
      ],
      "name": "transferFrom",
      "outputs": [
        {
          "name": "success",
          "type": "bool"
        }
      ],
      "payable": false,
      "stateMutability": "nonpayable",
      "type": "function"
    }
  ],
  "bytecode": "0x608060405233600360006101000a81548173ffffffffffffffffffffffffffffffffffffffff021916908373ffffffffffffffffffffffffffffffffffffffff160217905550611762806100546000396000f3fe6080604052600436106200009e5760003560e01c80636fdd22b111620000615780636fdd22b1146200054a578063a9059cbb14620006bd578063aeadbe241462000734578063cfe41acd146200079d578063e48603391462000918576200009e565b8063095ea7b314620000a3578063179701f2146200011a57806318d3ce9614620002ca57806323b872dd146200033b5780634f69f5e514620003d2575b600080fd5b348015620000b057600080fd5b506200010060048036036040811015620000c957600080fd5b81019080803573ffffffffffffffffffffffffffffffffffffffff1690602001909291908035906020019092919050505062000981565b604051808215151515815260200191505060405180910390f35b3480156200012757600080fd5b50620002c8600480360360a08110156200014057600080fd5b81019080803590602001906401000000008111156200015e57600080fd5b8201836020820111156200017157600080fd5b803590602001918460018302840111640100000000831117156200019457600080fd5b91908080601f016020809104026020016040519081016040528093929190818152602001838380828437600081840152601f19601f820116905080830192505050505050509192919290803573ffffffffffffffffffffffffffffffffffffffff169060200190929190803573ffffffffffffffffffffffffffffffffffffffff16906020019092919080359060200190929190803590602001906401000000008111156200024257600080fd5b8201836020820111156200025557600080fd5b803590602001918460208302840111640100000000831117156200027857600080fd5b919080806020026020016040519081016040528093929190818152602001838360200280828437600081840152601f19601f82011690508083019250505050505050919291929050505062000989565b005b348015620002d757600080fd5b50620002e262000b55565b6040518080602001828103825283818151815260200191508051906020019060200280838360005b83811015620003275780820151818401526020810190506200030a565b505050509050019250505060405180910390f35b3480156200034857600080fd5b50620003b8600480360360608110156200036157600080fd5b81019080803573ffffffffffffffffffffffffffffffffffffffff169060200190929190803573ffffffffffffffffffffffffffffffffffffffff1690602001909291908035906020019092919050505062000be5565b604051808215151515815260200191505060405180910390f35b348015620003df57600080fd5b506200042560048036036020811015620003f857600080fd5b81019080803573ffffffffffffffffffffffffffffffffffffffff16906020019092919050505062000bee565b604051808773ffffffffffffffffffffffffffffffffffffffff1673ffffffffffffffffffffffffffffffffffffffff168152602001806020018681526020018581526020018473ffffffffffffffffffffffffffffffffffffffff1673ffffffffffffffffffffffffffffffffffffffff1681526020018373ffffffffffffffffffffffffffffffffffffffff1673ffffffffffffffffffffffffffffffffffffffff168152602001828103825287818151815260200191508051906020019080838360005b8381101562000509578082015181840152602081019050620004ec565b50505050905090810190601f168015620005375780820380516001836020036101000a031916815260200191505b5097505050505050505060405180910390f35b3480156200055757600080fd5b506200059d600480360360208110156200057057600080fd5b81019080803573ffffffffffffffffffffffffffffffffffffffff16906020019092919050505062000d1f565b604051808473ffffffffffffffffffffffffffffffffffffffff1673ffffffffffffffffffffffffffffffffffffffff1681526020018060200180602001838103835285818151815260200191508051906020019080838360005b8381101562000615578082015181840152602081019050620005f8565b50505050905090810190601f168015620006435780820380516001836020036101000a031916815260200191505b50838103825284818151815260200191508051906020019080838360005b838110156200067e57808201518184015260208101905062000661565b50505050905090810190601f168015620006ac5780820380516001836020036101000a031916815260200191505b509550505050505060405180910390f35b348015620006ca57600080fd5b506200071a60048036036040811015620006e357600080fd5b81019080803573ffffffffffffffffffffffffffffffffffffffff1690602001909291908035906020019092919050505062000ea1565b604051808215151515815260200191505060405180910390f35b3480156200074157600080fd5b5062000787600480360360208110156200075a57600080fd5b81019080803573ffffffffffffffffffffffffffffffffffffffff16906020019092919050505062000ea9565b6040518082815260200191505060405180910390f35b6200091660048036036060811015620007b557600080fd5b81019080803573ffffffffffffffffffffffffffffffffffffffff16906020019092919080359060200190640100000000811115620007f357600080fd5b8201836020820111156200080657600080fd5b803590602001918460018302840111640100000000831117156200082957600080fd5b91908080601f016020809104026020016040519081016040528093929190818152602001838380828437600081840152601f19601f820116905080830192505050505050509192919290803590602001906401000000008111156200088d57600080fd5b820183602082011115620008a057600080fd5b80359060200191846001830284011164010000000083111715620008c357600080fd5b91908080601f016020809104026020016040519081016040528093929190818152602001838380828437600081840152601f19601f82011690508083019250505050505050919291929050505062000f36565b005b3480156200092557600080fd5b506200096b600480360360208110156200093e57600080fd5b81019080803573ffffffffffffffffffffffffffffffffffffffff16906020019092919050505062001033565b6040518082815260200191505060405180910390f35b600092915050565b600085858585856040516200099e906200104b565b80806020018673ffffffffffffffffffffffffffffffffffffffff1673ffffffffffffffffffffffffffffffffffffffff1681526020018573ffffffffffffffffffffffffffffffffffffffff1673ffffffffffffffffffffffffffffffffffffffff16815260200184815260200180602001838103835288818151815260200191508051906020019080838360005b8381101562000a4b57808201518184015260208101905062000a2e565b50505050905090810190601f16801562000a795780820380516001836020036101000a031916815260200191505b50838103825284818151815260200191508051906020019060200280838360005b8381101562000ab757808201518184015260208101905062000a9a565b50505050905001975050505050505050604051809103906000f08015801562000ae4573d6000803e3d6000fd5b50905060028190806001815401808255809150509060018203906000526020600020016000909192909190916101000a81548173ffffffffffffffffffffffffffffffffffffffff021916908373ffffffffffffffffffffffffffffffffffffffff16021790555050505050505050565b6060600280548060200260200160405190810160405280929190818152602001828054801562000bdb57602002820191906000526020600020905b8160009054906101000a900473ffffffffffffffffffffffffffffffffffffffff1673ffffffffffffffffffffffffffffffffffffffff168152602001906001019080831162000b90575b5050505050905090565b60009392505050565b600060606000806000808673ffffffffffffffffffffffffffffffffffffffff1663fa382f876040518163ffffffff1660e01b815260040160006040518083038186803b15801562000c3f57600080fd5b505afa15801562000c54573d6000803e3d6000fd5b505050506040513d6000823e3d601f19601f8201168201806040525060c081101562000c7f57600080fd5b8101908080519060200190929190805164010000000081111562000ca257600080fd5b8281019050602081018481111562000cb957600080fd5b815185600182028301116401000000008211171562000cd757600080fd5b50509291906020018051906020019092919080519060200190929190805190602001909291908051906020019092919050505095509550955095509550955091939550919395565b60016020528060005260406000206000915090508060000160009054906101000a900473ffffffffffffffffffffffffffffffffffffffff1690806001018054600181600116156101000203166002900480601f01602080910402602001604051908101604052809291908181526020018280546001816001161561010002031660029004801562000df55780601f1062000dc95761010080835404028352916020019162000df5565b820191906000526020600020905b81548152906001019060200180831162000dd757829003601f168201915b505050505090806002018054600181600116156101000203166002900480601f01602080910402602001604051908101604052809291908181526020018280546001816001161561010002031660029004801562000e975780601f1062000e6b5761010080835404028352916020019162000e97565b820191906000526020600020905b81548152906001019060200180831162000e7957829003601f168201915b5050505050905083565b600092915050565b60008173ffffffffffffffffffffffffffffffffffffffff1663f08b82e66040518163ffffffff1660e01b815260040160206040518083038186803b15801562000ef257600080fd5b505afa15801562000f07573d6000803e3d6000fd5b505050506040513d602081101562000f1e57600080fd5b81019080805190602001909291905050509050919050565b60405180606001604052803073ffffffffffffffffffffffffffffffffffffffff16815260200183815260200182815250600160008573ffffffffffffffffffffffffffffffffffffffff1673ffffffffffffffffffffffffffffffffffffffff16815260200190815260200160002060008201518160000160006101000a81548173ffffffffffffffffffffffffffffffffffffffff021916908373ffffffffffffffffffffffffffffffffffffffff16021790555060208201518160010190805190602001906200100b92919062001059565b5060408201518160020190805190602001906200102a92919062001059565b50905050505050565b60006020528060005260406000206000915090505481565b61062e806200110983390190565b828054600181600116156101000203166002900490600052602060002090601f016020900481019282601f106200109c57805160ff1916838001178555620010cd565b82800160010185558215620010cd579182015b82811115620010cc578251825591602001919060010190620010af565b5b509050620010dc9190620010e0565b5090565b6200110591905b8082111562001101576000816000905550600101620010e7565b5090565b9056fe608060405234801561001057600080fd5b5060405161062e38038061062e833981018060405260a081101561003357600080fd5b81019080805164010000000081111561004b57600080fd5b8281019050602081018481111561006157600080fd5b815185600182028301116401000000008211171561007e57600080fd5b505092919060200180519060200190929190805190602001909291908051906020019092919080516401000000008111156100b857600080fd5b828101905060208101848111156100ce57600080fd5b81518560208202830111640100000000821117156100eb57600080fd5b505092919050505030600160006101000a81548173ffffffffffffffffffffffffffffffffffffffff021916908373ffffffffffffffffffffffffffffffffffffffff1602179055504260008190555084600290805190602001906101519291906101c9565b5083600460006101000a81548173ffffffffffffffffffffffffffffffffffffffff021916908373ffffffffffffffffffffffffffffffffffffffff16021790555081600581905550816006819055508160078190555080600890805190602001906101be929190610249565b50505050505061033b565b828054600181600116156101000203166002900490600052602060002090601f016020900481019282601f1061020a57805160ff1916838001178555610238565b82800160010185558215610238579182015b8281111561023757825182559160200191906001019061021c565b5b50905061024591906102d3565b5090565b8280548282559060005260206000209081019282156102c2579160200282015b828111156102c15782518260006101000a81548173ffffffffffffffffffffffffffffffffffffffff021916908373ffffffffffffffffffffffffffffffffffffffff16021790555091602001919060010190610269565b5b5090506102cf91906102f8565b5090565b6102f591905b808211156102f15760008160009055506001016102d9565b5090565b90565b61033891905b8082111561033457600081816101000a81549073ffffffffffffffffffffffffffffffffffffffff0219169055506001016102fe565b5090565b90565b6102e48061034a6000396000f3fe608060405234801561001057600080fd5b50600436106100365760003560e01c8063f08b82e61461003b578063fa382f8714610059575b600080fd5b610043610183565b6040518082815260200191505060405180910390f35b61006161018d565b604051808773ffffffffffffffffffffffffffffffffffffffff1673ffffffffffffffffffffffffffffffffffffffff168152602001806020018681526020018581526020018473ffffffffffffffffffffffffffffffffffffffff1673ffffffffffffffffffffffffffffffffffffffff1681526020018373ffffffffffffffffffffffffffffffffffffffff1673ffffffffffffffffffffffffffffffffffffffff168152602001828103825287818151815260200191508051906020019080838360005b83811015610143578082015181840152602081019050610128565b50505050905090810190601f1680156101705780820380516001836020036101000a031916815260200191505b5097505050505050505060405180910390f35b6000600654905090565b60006060600080600080600160009054906101000a900473ffffffffffffffffffffffffffffffffffffffff166002600054600754600460009054906101000a900473ffffffffffffffffffffffffffffffffffffffff16600360009054906101000a900473ffffffffffffffffffffffffffffffffffffffff16848054600181600116156101000203166002900480601f01602080910402602001604051908101604052809291908181526020018280546001816001161561010002031660029004801561029d5780601f106102725761010080835404028352916020019161029d565b820191906000526020600020905b81548152906001019060200180831161028057829003601f168201915b5050505050945095509550955095509550955090919293949556fea165627a7a72305820d058f6bb72a4be82df602b4f6798c8014e2ed1c2cb290145d14b44ce72ef901d0029a165627a7a7230582003cb3d9f8031c505154c83074ef0aba98fa81f941b235d22e7370e4a7bf438720029",
  "source": "pragma solidity ^0.5.3;\r\nimport './cDao.sol';\r\n\r\ncontract Corruption {\r\n    \r\n    struct contractorInfo{\r\n        //The contractor info is their address\r\n        address id;\r\n        //Company Name\r\n        string name;\r\n        // This would be a hex to something hosted on IPFS or something\r\n        string hexForLicense;\r\n    }\r\n\r\n    //Amount of tokens in your contract\r\n    mapping(address => uint256) public tokens;\r\n\r\n    //How much can this contract send out --- not needed I think.\r\n    //mapping(address => mapping(address => uint256)) public allowance;\r\n\r\n    //Map the contractors info to their address - so it can be easily referenced\r\n    mapping(address => contractorInfo) public contractor;\r\n\r\n    //This is for debugging /tracking successful builds\r\n    address[] allContracts;\r\n\r\n    //This will be the address of the us\r\n    address ourWallet;\r\n\r\n    //This will be the address of the fund\r\n    address fundId;\r\n\r\n    //Fund Name\r\n    string fundName;\r\n\r\n    //This is the person that will approve everything\r\n    address operatorOwner;\r\n\r\n    //This person is issuing the debt (government)\r\n    address debtIssuer;\r\n\r\n    //This is the amount of money being issues\r\n    uint fundAmount;\r\n\r\n    //Amount of tokens created\r\n    uint totalTokens;\r\n\r\n    //Current amount of tokens left\r\n    uint currentTokens;\r\n\r\n    //This person\r\n    address fundReceiver;\r\n\r\n    //These people are able to receive funds\r\n    //And these people would be able to request\r\n    address[] subContractors;\r\n\r\n    //Approve proposal - if this is true then we can build the contract\r\n    bool approved;\r\n\r\n    //Do we need a time release for funds\r\n    // would this be a schedule like a once every month? Or maybe an end release date?\r\n    uint releaseFundsDate;\r\n\r\n    //Date of contract creation (unix time)\r\n    uint creationDate;\r\n\r\n    constructor() payable public {\r\n        ourWallet = msg.sender;\r\n    }\r\n\r\n    //Submit a contrators info\r\n    function doSubmitContractorInfo(address _id, string memory _name, string memory _hexForLicense) public payable {\r\n        //The contractors license would be uploaded to an immutable decentralized file storage like IPFS in a Javascript implementation\r\n        contractor[_id] = contractorInfo(address(this), _name, _hexForLicense);\r\n    }\r\n\r\n    function doCreateCorruptionContract(string memory _fundName, address _debtIssuer, address _operatorOwner, uint _fundAmount, address[] memory _subContractors) public {\r\n        cDao c = new cDao(_fundName,  _debtIssuer, _operatorOwner, _fundAmount, _subContractors);\r\n        allContracts.push(address(c));\r\n    }\r\n\r\n    function getAllContracts() public view returns (address[] memory){\r\n        return allContracts;\r\n    }\r\n\r\n    function getTotalTokens(address _contract) public view returns (uint) {\r\n        return cDao(_contract).getTotalTokens();\r\n    }\r\n\r\n    function getDaoInfo(address _contract) public view returns (address, string memory, uint, uint, address, address) {\r\n        return cDao(_contract).getDaoInfo();\r\n    }\r\n\r\n    function transfer(address _to, uint256 _value) public returns (bool success) {\r\n        //require(balanceOf[msg.sender] >= _value);\r\n        //balanceOf[msg.sender] -= _value;\r\n        //balanceOf[_to] += _value;\r\n        //Transfer(msg.sender, _to, _value);\r\n        //return true;\r\n    }\r\n\r\n    function approve(address _spender, uint256 _value) public returns (bool success) {\r\n        //allowance[msg.sender][_spender] = _value;\r\n        //Approval(msg.sender, _spender, _value);\r\n        //return true;\r\n    }\r\n\r\n    function transferFrom(address _from, address _to, uint256 _value) public returns (bool success) {\r\n        //require(_value <= balanceOf[_from]);\r\n        //require(_value <= allowance[_from][msg.sender]);\r\n        //balanceOf[_from] -= _value;\r\n        //balanceOf[_to] += _value;\r\n        //allowance[_from][msg.sender] -= _value;\r\n        //Transfer(_from, _to, _value);\r\n        //return true;\r\n    }\r\n}",
  "sourcePath": "C:/Users/Steami/Projects/b4g/contracts/Corruption.sol",
  "compiler": {
    "name": "solc",
    "version": "0.5.8+commit.23d335f2.Emscripten.clang"
  },
  "schemaVersion": "3.0.16",
  "updatedAt": "2019-10-26T22:45:10.267Z",
  "devdoc": {
    "methods": {}
  },
  "userdoc": {
    "methods": {}
  }
}