{
  "contractName": "Corruption",
  "abi": [
    {
      "inputs": [],
      "payable": true,
      "stateMutability": "payable",
      "type": "constructor"
    },
    {
      "constant": false,
      "inputs": [
        {
          "name": "_fundName",
          "type": "string"
        },
        {
          "name": "_debtIssuer",
          "type": "address"
        },
        {
          "name": "_operatorOwner",
          "type": "address"
        },
        {
          "name": "_fundAmount",
          "type": "uint256"
        },
        {
          "name": "_subContractors",
          "type": "address[]"
        },
        {
          "name": "_allocations",
          "type": "uint256[]"
        }
      ],
      "name": "doCreateCorruptionContract",
      "outputs": [
        {
          "name": "",
          "type": "address"
        }
      ],
      "payable": false,
      "stateMutability": "nonpayable",
      "type": "function"
    },
    {
      "constant": true,
      "inputs": [],
      "name": "getAllContracts",
      "outputs": [
        {
          "name": "",
          "type": "address[]"
        }
      ],
      "payable": false,
      "stateMutability": "view",
      "type": "function"
    },
    {
      "constant": true,
      "inputs": [
        {
          "name": "_cdao",
          "type": "address"
        }
      ],
      "name": "getTotalTokensInContract",
      "outputs": [
        {
          "name": "",
          "type": "uint256"
        }
      ],
      "payable": false,
      "stateMutability": "view",
      "type": "function"
    },
    {
      "constant": true,
      "inputs": [
        {
          "name": "_cdao",
          "type": "address"
        }
      ],
      "name": "getDaoDetails",
      "outputs": [
        {
          "name": "",
          "type": "address"
        },
        {
          "name": "",
          "type": "string"
        },
        {
          "name": "",
          "type": "uint256"
        },
        {
          "name": "",
          "type": "uint256"
        },
        {
          "name": "",
          "type": "address"
        },
        {
          "name": "",
          "type": "address"
        },
        {
          "name": "",
          "type": "address[]"
        },
        {
          "name": "",
          "type": "uint256[]"
        }
      ],
      "payable": false,
      "stateMutability": "view",
      "type": "function"
    },
    {
      "constant": true,
      "inputs": [
        {
          "name": "_cdao",
          "type": "address"
        }
      ],
      "name": "getDaoBalance",
      "outputs": [
        {
          "name": "",
          "type": "uint256"
        }
      ],
      "payable": false,
      "stateMutability": "view",
      "type": "function"
    },
    {
      "constant": true,
      "inputs": [
        {
          "name": "_cdao",
          "type": "address"
        }
      ],
      "name": "getDaoContractorsWithFunds",
      "outputs": [
        {
          "name": "",
          "type": "address[]"
        },
        {
          "name": "",
          "type": "uint256[]"
        },
        {
          "name": "",
          "type": "uint256[]"
        },
        {
          "name": "",
          "type": "uint256[]"
        }
      ],
      "payable": false,
      "stateMutability": "view",
      "type": "function"
    },
    {
      "constant": false,
      "inputs": [
        {
          "name": "_cdao",
          "type": "address"
        },
        {
          "name": "_fileHash",
          "type": "string"
        },
        {
          "name": "_amountRequested",
          "type": "uint256"
        }
      ],
      "name": "doSubmitInvoice",
      "outputs": [],
      "payable": false,
      "stateMutability": "nonpayable",
      "type": "function"
    },
    {
      "constant": false,
      "inputs": [
        {
          "name": "_cdao",
          "type": "address"
        },
        {
          "name": "_to",
          "type": "address"
        },
        {
          "name": "_amountRequested",
          "type": "uint256"
        }
      ],
      "name": "confirmInvoiceTransferTokens",
      "outputs": [
        {
          "name": "success",
          "type": "bool"
        }
      ],
      "payable": false,
      "stateMutability": "nonpayable",
      "type": "function"
    },
    {
      "constant": false,
      "inputs": [
        {
          "name": "_cdao",
          "type": "address"
        },
        {
          "name": "_to",
          "type": "address"
        },
        {
          "name": "_amount",
          "type": "uint256"
        }
      ],
      "name": "pullFundsBurnToken",
      "outputs": [
        {
          "name": "success",
          "type": "bool"
        }
      ],
      "payable": false,
      "stateMutability": "nonpayable",
      "type": "function"
    }
  ],
  "bytecode": "0x608060405233600160006101000a81548173ffffffffffffffffffffffffffffffffffffffff021916908373ffffffffffffffffffffffffffffffffffffffff160217905550613575806100546000396000f3fe60806040523480156200001157600080fd5b5060043610620000a05760003560e01c806330407cb8116200006f57806330407cb8146200015a578063441e36291462000190578063b1e0428414620001c6578063d1b4d6a114620001fc578063f6d6a3f4146200023557620000a0565b806318d3ce9614620000a55780631d6f5a9e14620000c757806320f67d1b14620000fd5780632bc2d289146200011d575b600080fd5b620000af6200026b565b604051620000be919062001275565b60405180910390f35b620000e56004803603620000df919081019062000b7a565b620002fb565b604051620000f4919062001302565b60405180910390f35b6200011b600480360362000115919081019062000c26565b62000399565b005b6200013b600480360362000135919081019062000b4e565b6200040f565b60405162000151989796959493929190620011a5565b60405180910390f35b62000178600480360362000172919081019062000b4e565b620004be565b604051620001879190620013d5565b60405180910390f35b620001ae6004803603620001a8919081019062000b4e565b62000549565b604051620001bd9190620013d5565b60405180910390f35b620001e46004803603620001de919081019062000e9f565b620005d4565b604051620001f391906200115b565b60405180910390f35b6200021a600480360362000214919081019062000b4e565b62000690565b6040516200022c949392919062001299565b60405180910390f35b6200025360048036036200024d919081019062000bd0565b6200072c565b60405162000262919062001302565b60405180910390f35b60606000805480602002602001604051908101604052809291908181526020018280548015620002f157602002820191906000526020600020905b8160009054906101000a900473ffffffffffffffffffffffffffffffffffffffff1673ffffffffffffffffffffffffffffffffffffffff1681526020019060010190808311620002a6575b5050505050905090565b60008373ffffffffffffffffffffffffffffffffffffffff1663d0bbdc2484846040518363ffffffff1660e01b81526004016200033a92919062001178565b602060405180830381600087803b1580156200035557600080fd5b505af11580156200036a573d6000803e3d6000fd5b505050506040513d601f19601f8201168201806040525062000390919081019062000e73565b90509392505050565b8273ffffffffffffffffffffffffffffffffffffffff16630e58eca483836040518363ffffffff1660e01b8152600401620003d6929190620013a1565b600060405180830381600087803b158015620003f157600080fd5b505af115801562000406573d6000803e3d6000fd5b50505050505050565b600060606000806000806060808873ffffffffffffffffffffffffffffffffffffffff166308746fd46040518163ffffffff1660e01b815260040160006040518083038186803b1580156200046357600080fd5b505afa15801562000478573d6000803e3d6000fd5b505050506040513d6000823e3d601f19601f82011682018060405250620004a3919081019062000c95565b97509750975097509750975097509750919395975091939597565b60008173ffffffffffffffffffffffffffffffffffffffff1663f08b82e66040518163ffffffff1660e01b815260040160206040518083038186803b1580156200050757600080fd5b505afa1580156200051c573d6000803e3d6000fd5b505050506040513d601f19601f8201168201806040525062000542919081019062000f80565b9050919050565b60008173ffffffffffffffffffffffffffffffffffffffff1663f046f9846040518163ffffffff1660e01b815260040160206040518083038186803b1580156200059257600080fd5b505afa158015620005a7573d6000803e3d6000fd5b505050506040513d601f19601f82011682018060405250620005cd919081019062000f80565b9050919050565b600080878787878787604051620005eb90620007ca565b620005fc969594939291906200131f565b604051809103906000f08015801562000619573d6000803e3d6000fd5b50905060008190806001815401808255809150509060018203906000526020600020016000909192909190916101000a81548173ffffffffffffffffffffffffffffffffffffffff021916908373ffffffffffffffffffffffffffffffffffffffff16021790555050809150509695505050505050565b6060806060808473ffffffffffffffffffffffffffffffffffffffff1663fb2a27ad6040518163ffffffff1660e01b815260040160006040518083038186803b158015620006dd57600080fd5b505afa158015620006f2573d6000803e3d6000fd5b505050506040513d6000823e3d601f19601f820116820180604052506200071d919081019062000da3565b93509350935093509193509193565b60008373ffffffffffffffffffffffffffffffffffffffff166362fc581284846040518363ffffffff1660e01b81526004016200076b92919062001248565b602060405180830381600087803b1580156200078657600080fd5b505af11580156200079b573d6000803e3d6000fd5b505050506040513d601f19601f82011682018060405250620007c1919081019062000e73565b90509392505050565b611ef8806200164483390190565b600081359050620007e981620015db565b92915050565b6000815190506200080081620015db565b92915050565b6000813590506200081781620015f5565b92915050565b600082601f8301126200082f57600080fd5b813562000846620008408262001420565b620013f2565b915081818352602084019350602081019050838560208402820111156200086c57600080fd5b60005b83811015620008a05781620008858882620007d8565b8452602084019350602083019250506001810190506200086f565b5050505092915050565b600082601f830112620008bc57600080fd5b8151620008d3620008cd8262001420565b620013f2565b91508181835260208401935060208101905083856020840282011115620008f957600080fd5b60005b838110156200092d5781620009128882620007ef565b845260208401935060208301925050600181019050620008fc565b5050505092915050565b600082601f8301126200094957600080fd5b8135620009606200095a8262001449565b620013f2565b915081818352602084019350602081019050838560208402820111156200098657600080fd5b60005b83811015620009ba57816200099f888262000b20565b84526020840193506020830192505060018101905062000989565b5050505092915050565b600082601f830112620009d657600080fd5b8151620009ed620009e78262001449565b620013f2565b9150818183526020840193506020810190508385602084028201111562000a1357600080fd5b60005b8381101562000a47578162000a2c888262000b37565b84526020840193506020830192505060018101905062000a16565b5050505092915050565b60008151905062000a62816200160f565b92915050565b600082601f83011262000a7a57600080fd5b813562000a9162000a8b8262001472565b620013f2565b9150808252602083016020830185838301111562000aae57600080fd5b62000abb83828462001585565b50505092915050565b600082601f83011262000ad657600080fd5b815162000aed62000ae78262001472565b620013f2565b9150808252602083016020830185838301111562000b0a57600080fd5b62000b1783828462001594565b50505092915050565b60008135905062000b318162001629565b92915050565b60008151905062000b488162001629565b92915050565b60006020828403121562000b6157600080fd5b600062000b7184828501620007d8565b91505092915050565b60008060006060848603121562000b9057600080fd5b600062000ba086828701620007d8565b935050602062000bb38682870162000806565b925050604062000bc68682870162000b20565b9150509250925092565b60008060006060848603121562000be657600080fd5b600062000bf686828701620007d8565b935050602062000c0986828701620007d8565b925050604062000c1c8682870162000b20565b9150509250925092565b60008060006060848603121562000c3c57600080fd5b600062000c4c86828701620007d8565b935050602084013567ffffffffffffffff81111562000c6a57600080fd5b62000c788682870162000a68565b925050604062000c8b8682870162000b20565b9150509250925092565b600080600080600080600080610100898b03121562000cb357600080fd5b600062000cc38b828c01620007ef565b985050602089015167ffffffffffffffff81111562000ce157600080fd5b62000cef8b828c0162000ac4565b975050604062000d028b828c0162000b37565b965050606062000d158b828c0162000b37565b955050608062000d288b828c01620007ef565b94505060a062000d3b8b828c01620007ef565b93505060c089015167ffffffffffffffff81111562000d5957600080fd5b62000d678b828c01620008aa565b92505060e089015167ffffffffffffffff81111562000d8557600080fd5b62000d938b828c01620009c4565b9150509295985092959890939650565b6000806000806080858703121562000dba57600080fd5b600085015167ffffffffffffffff81111562000dd557600080fd5b62000de387828801620008aa565b945050602085015167ffffffffffffffff81111562000e0157600080fd5b62000e0f87828801620009c4565b935050604085015167ffffffffffffffff81111562000e2d57600080fd5b62000e3b87828801620009c4565b925050606085015167ffffffffffffffff81111562000e5957600080fd5b62000e6787828801620009c4565b91505092959194509250565b60006020828403121562000e8657600080fd5b600062000e968482850162000a51565b91505092915050565b60008060008060008060c0878903121562000eb957600080fd5b600087013567ffffffffffffffff81111562000ed457600080fd5b62000ee289828a0162000a68565b965050602062000ef589828a01620007d8565b955050604062000f0889828a01620007d8565b945050606062000f1b89828a0162000b20565b935050608087013567ffffffffffffffff81111562000f3957600080fd5b62000f4789828a016200081d565b92505060a087013567ffffffffffffffff81111562000f6557600080fd5b62000f7389828a0162000937565b9150509295509295509295565b60006020828403121562000f9357600080fd5b600062000fa38482850162000b37565b91505092915050565b600062000fba838362000ff1565b60208301905092915050565b600062000fd4838362001139565b60208301905092915050565b62000feb816200153b565b82525050565b62000ffc8162001527565b82525050565b6200100d8162001527565b82525050565b60006200102082620014b9565b6200102c8185620014f4565b935062001039836200149f565b8060005b838110156200107057815162001054888262000fac565b97506200106183620014da565b9250506001810190506200103d565b5085935050505092915050565b60006200108a82620014c4565b62001096818562001505565b9350620010a383620014ac565b8060005b83811015620010da578151620010be888262000fc6565b9750620010cb83620014e7565b925050600181019050620010a7565b5085935050505092915050565b620010f2816200154f565b82525050565b60006200110582620014cf565b62001111818562001516565b93506200112381856020860162001594565b6200112e81620015ca565b840191505092915050565b62001144816200157b565b82525050565b62001155816200157b565b82525050565b600060208201905062001172600083018462001002565b92915050565b60006040820190506200118f600083018562000fe0565b6200119e60208301846200114a565b9392505050565b600061010082019050620011bd600083018b62001002565b8181036020830152620011d1818a620010f8565b9050620011e260408301896200114a565b620011f160608301886200114a565b62001200608083018762001002565b6200120f60a083018662001002565b81810360c083015262001223818562001013565b905081810360e08301526200123981846200107d565b90509998505050505050505050565b60006040820190506200125f600083018562001002565b6200126e60208301846200114a565b9392505050565b6000602082019050818103600083015262001291818462001013565b905092915050565b60006080820190508181036000830152620012b5818762001013565b90508181036020830152620012cb81866200107d565b90508181036040830152620012e181856200107d565b90508181036060830152620012f781846200107d565b905095945050505050565b6000602082019050620013196000830184620010e7565b92915050565b600060c08201905081810360008301526200133b8189620010f8565b90506200134c602083018862001002565b6200135b604083018762001002565b6200136a60608301866200114a565b81810360808301526200137e818562001013565b905081810360a08301526200139481846200107d565b9050979650505050505050565b60006040820190508181036000830152620013bd8185620010f8565b9050620013ce60208301846200114a565b9392505050565b6000602082019050620013ec60008301846200114a565b92915050565b6000604051905081810181811067ffffffffffffffff821117156200141657600080fd5b8060405250919050565b600067ffffffffffffffff8211156200143857600080fd5b602082029050602081019050919050565b600067ffffffffffffffff8211156200146157600080fd5b602082029050602081019050919050565b600067ffffffffffffffff8211156200148a57600080fd5b601f19601f8301169050602081019050919050565b6000602082019050919050565b6000602082019050919050565b600081519050919050565b600081519050919050565b600081519050919050565b6000602082019050919050565b6000602082019050919050565b600082825260208201905092915050565b600082825260208201905092915050565b600082825260208201905092915050565b600062001534826200155b565b9050919050565b600062001548826200155b565b9050919050565b60008115159050919050565b600073ffffffffffffffffffffffffffffffffffffffff82169050919050565b6000819050919050565b82818337600083830152505050565b60005b83811015620015b457808201518184015260208101905062001597565b83811115620015c4576000848401525b50505050565b6000601f19601f8301169050919050565b620015e68162001527565b8114620015f257600080fd5b50565b62001600816200153b565b81146200160c57600080fd5b50565b6200161a816200154f565b81146200162657600080fd5b50565b62001634816200157b565b81146200164057600080fd5b5056fe60806040523480156200001157600080fd5b5060405162001ef838038062001ef8833981018060405262000037919081019062000555565b30600460006101000a81548173ffffffffffffffffffffffffffffffffffffffff021916908373ffffffffffffffffffffffffffffffffffffffff1602179055504260038190555085600590805190602001906200009792919062000302565b5084600760006101000a81548173ffffffffffffffffffffffffffffffffffffffff021916908373ffffffffffffffffffffffffffffffffffffffff16021790555083600660006101000a81548173ffffffffffffffffffffffffffffffffffffffff021916908373ffffffffffffffffffffffffffffffffffffffff160217905550826008819055508260098190555082600a8190555060008090505b8251811015620002f55760405180608001604052808483815181106200015757fe5b602002602001015173ffffffffffffffffffffffffffffffffffffffff1681526020018383815181106200018757fe5b60200260200101518152602001838381518110620001a157fe5b602002602001015181526020016000815250600080858481518110620001c357fe5b602002602001015173ffffffffffffffffffffffffffffffffffffffff1673ffffffffffffffffffffffffffffffffffffffff16815260200190815260200160002060008201518160000160006101000a81548173ffffffffffffffffffffffffffffffffffffffff021916908373ffffffffffffffffffffffffffffffffffffffff160217905550602082015181600101556040820151816002015560608201518160030155905050600b8382815181106200027c57fe5b602002602001015190806001815401808255809150509060018203906000526020600020016000909192909190916101000a81548173ffffffffffffffffffffffffffffffffffffffff021916908373ffffffffffffffffffffffffffffffffffffffff16021790555050808060010191505062000135565b505050505050506200078b565b828054600181600116156101000203166002900490600052602060002090601f016020900481019282601f106200034557805160ff191683800117855562000376565b8280016001018555821562000376579182015b828111156200037557825182559160200191906001019062000358565b5b50905062000385919062000389565b5090565b620003ae91905b80821115620003aa57600081600090555060010162000390565b5090565b90565b600081519050620003c28162000757565b92915050565b600082601f830112620003da57600080fd5b8151620003f1620003eb8262000664565b62000636565b915081818352602084019350602081019050838560208402820111156200041757600080fd5b60005b838110156200044b5781620004308882620003b1565b8452602084019350602083019250506001810190506200041a565b5050505092915050565b600082601f8301126200046757600080fd5b81516200047e62000478826200068d565b62000636565b91508181835260208401935060208101905083856020840282011115620004a457600080fd5b60005b83811015620004d85781620004bd88826200053e565b845260208401935060208301925050600181019050620004a7565b5050505092915050565b600082601f830112620004f457600080fd5b81516200050b6200050582620006b6565b62000636565b915080825260208301602083018583830111156200052857600080fd5b6200053583828462000721565b50505092915050565b6000815190506200054f8162000771565b92915050565b60008060008060008060c087890312156200056f57600080fd5b600087015167ffffffffffffffff8111156200058a57600080fd5b6200059889828a01620004e2565b9650506020620005ab89828a01620003b1565b9550506040620005be89828a01620003b1565b9450506060620005d189828a016200053e565b935050608087015167ffffffffffffffff811115620005ef57600080fd5b620005fd89828a01620003c8565b92505060a087015167ffffffffffffffff8111156200061b57600080fd5b6200062989828a0162000455565b9150509295509295509295565b6000604051905081810181811067ffffffffffffffff821117156200065a57600080fd5b8060405250919050565b600067ffffffffffffffff8211156200067c57600080fd5b602082029050602081019050919050565b600067ffffffffffffffff821115620006a557600080fd5b602082029050602081019050919050565b600067ffffffffffffffff821115620006ce57600080fd5b601f19601f8301169050602081019050919050565b6000620006f082620006f7565b9050919050565b600073ffffffffffffffffffffffffffffffffffffffff82169050919050565b6000819050919050565b60005b838110156200074157808201518184015260208101905062000724565b8381111562000751576000848401525b50505050565b6200076281620006e3565b81146200076e57600080fd5b50565b6200077c8162000717565b81146200078857600080fd5b50565b61175d806200079b6000396000f3fe608060405234801561001057600080fd5b50600436106100a95760003560e01c8063af35ae2711610071578063af35ae2714610186578063c0a5f392146101a4578063d0bbdc24146101d7578063f046f98414610207578063f08b82e614610225578063fb2a27ad14610243576100a9565b806308746fd4146100ae5780630e58eca4146100d35780631a20d71c146100ef57806362fc581214610123578063a6078acc14610153575b600080fd5b6100b6610264565b6040516100ca989796959493929190611345565b60405180910390f35b6100ed60048036036100e89190810190611100565b610476565b005b610109600480360361010491908101906110bf565b610609565b60405161011a9594939291906113d8565b60405180910390f35b61013d60048036036101389190810190611083565b61071a565b60405161014a91906114d8565b60405180910390f35b61016d6004803603610168919081019061101e565b6108b2565b60405161017d9493929190611432565b60405180910390f35b61018e610902565b60405161019b91906114f3565b60405180910390f35b6101be60048036036101b9919081019061101e565b61090c565b6040516101ce9493929190611432565b60405180910390f35b6101f160048036036101ec9190810190611047565b610a49565b6040516101fe91906114d8565b60405180910390f35b61020f610ab6565b60405161021c91906114f3565b60405180910390f35b61022d610ad5565b60405161023a91906114f3565b60405180910390f35b61024b610adf565b60405161025b9493929190611477565b60405180910390f35b60006060600080600080606080600460009054906101000a900473ffffffffffffffffffffffffffffffffffffffff166005600354600a54600760009054906101000a900473ffffffffffffffffffffffffffffffffffffffff16600660009054906101000a900473ffffffffffffffffffffffffffffffffffffffff16600b600c868054600181600116156101000203166002900480601f01602080910402602001604051908101604052809291908181526020018280546001816001161561010002031660029004801561037b5780601f106103505761010080835404028352916020019161037b565b820191906000526020600020905b81548152906001019060200180831161035e57829003601f168201915b505050505096508180548060200260200160405190810160405280929190818152602001828054801561040357602002820191906000526020600020905b8160009054906101000a900473ffffffffffffffffffffffffffffffffffffffff1673ffffffffffffffffffffffffffffffffffffffff16815260200190600101908083116103b9575b505050505091508080548060200260200160405190810160405280929190818152602001828054801561045557602002820191906000526020600020905b815481526020019060010190808311610441575b50505050509050975097509750975097509750975097509091929394959697565b3373ffffffffffffffffffffffffffffffffffffffff166000803373ffffffffffffffffffffffffffffffffffffffff1673ffffffffffffffffffffffffffffffffffffffff16815260200190815260200160002060000160009054906101000a900473ffffffffffffffffffffffffffffffffffffffff1673ffffffffffffffffffffffffffffffffffffffff161415610605576040518060a001604052803373ffffffffffffffffffffffffffffffffffffffff1681526020018381526020014281526020018281526020016000151581525060028360405161055b919061132e565b908152602001604051809103902060008201518160000160006101000a81548173ffffffffffffffffffffffffffffffffffffffff021916908373ffffffffffffffffffffffffffffffffffffffff16021790555060208201518160010190805190602001906105cc929190610e92565b50604082015181600201556060820151816003015560808201518160040160006101000a81548160ff0219169083151502179055509050505b5050565b6002818051602081018201805184825260208301602085012081835280955050505050506000915090508060000160009054906101000a900473ffffffffffffffffffffffffffffffffffffffff1690806001018054600181600116156101000203166002900480601f0160208091040260200160405190810160405280929190818152602001828054600181600116156101000203166002900480156106f15780601f106106c6576101008083540402835291602001916106f1565b820191906000526020600020905b8154815290600101906020018083116106d457829003601f168201915b5050505050908060020154908060030154908060040160009054906101000a900460ff16905085565b6000600660009054906101000a900473ffffffffffffffffffffffffffffffffffffffff1673ffffffffffffffffffffffffffffffffffffffff163373ffffffffffffffffffffffffffffffffffffffff1614156108ab5781600a5411156108a257816000808573ffffffffffffffffffffffffffffffffffffffff1673ffffffffffffffffffffffffffffffffffffffff16815260200190815260200160002060030154016000808573ffffffffffffffffffffffffffffffffffffffff1673ffffffffffffffffffffffffffffffffffffffff16815260200190815260200160002060030181905550816000808573ffffffffffffffffffffffffffffffffffffffff1673ffffffffffffffffffffffffffffffffffffffff16815260200190815260200160002060020154036000808573ffffffffffffffffffffffffffffffffffffffff1673ffffffffffffffffffffffffffffffffffffffff1681526020019081526020016000206002018190555081600a5403600a81905550600190506108ac565b600090506108ac565b5b92915050565b60006020528060005260406000206000915090508060000160009054906101000a900473ffffffffffffffffffffffffffffffffffffffff16908060010154908060020154908060030154905084565b6000600a54905090565b6000806000806000808673ffffffffffffffffffffffffffffffffffffffff1673ffffffffffffffffffffffffffffffffffffffff16815260200190815260200160002060000160009054906101000a900473ffffffffffffffffffffffffffffffffffffffff166000808773ffffffffffffffffffffffffffffffffffffffff1673ffffffffffffffffffffffffffffffffffffffff168152602001908152602001600020600101546000808873ffffffffffffffffffffffffffffffffffffffff1673ffffffffffffffffffffffffffffffffffffffff168152602001908152602001600020600201546000808973ffffffffffffffffffffffffffffffffffffffff1673ffffffffffffffffffffffffffffffffffffffff1681526020019081526020016000206003015493509350935093509193509193565b60003373ffffffffffffffffffffffffffffffffffffffff166000803373ffffffffffffffffffffffffffffffffffffffff1673ffffffffffffffffffffffffffffffffffffffff16815260200190815260200160002060000160009054906101000a9050505092915050565b60003073ffffffffffffffffffffffffffffffffffffffff1631905090565b6000600954905090565b6060806060806060600b80549050604051908082528060200260200182016040528015610b1b5781602001602082028038833980820191505090505b5090506060600b80549050604051908082528060200260200182016040528015610b545781602001602082028038833980820191505090505b5090506060600b80549050604051908082528060200260200182016040528015610b8d5781602001602082028038833980820191505090505b5090506060600b80549050604051908082528060200260200182016040528015610bc65781602001602082028038833980820191505090505b50905060008090505b600b80549050811015610e7b57600080600b8381548110610bec57fe5b9060005260206000200160009054906101000a900473ffffffffffffffffffffffffffffffffffffffff1673ffffffffffffffffffffffffffffffffffffffff1673ffffffffffffffffffffffffffffffffffffffff16815260200190815260200160002060000160009054906101000a900473ffffffffffffffffffffffffffffffffffffffff16858281518110610c8157fe5b602002602001019073ffffffffffffffffffffffffffffffffffffffff16908173ffffffffffffffffffffffffffffffffffffffff1681525050600080600b8381548110610ccb57fe5b9060005260206000200160009054906101000a900473ffffffffffffffffffffffffffffffffffffffff1673ffffffffffffffffffffffffffffffffffffffff1673ffffffffffffffffffffffffffffffffffffffff16815260200190815260200160002060010154848281518110610d4057fe5b602002602001018181525050600080600b8381548110610d5c57fe5b9060005260206000200160009054906101000a900473ffffffffffffffffffffffffffffffffffffffff1673ffffffffffffffffffffffffffffffffffffffff1673ffffffffffffffffffffffffffffffffffffffff16815260200190815260200160002060020154838281518110610dd157fe5b602002602001018181525050600080600b8381548110610ded57fe5b9060005260206000200160009054906101000a900473ffffffffffffffffffffffffffffffffffffffff1673ffffffffffffffffffffffffffffffffffffffff1673ffffffffffffffffffffffffffffffffffffffff16815260200190815260200160002060030154828281518110610e6257fe5b6020026020010181815250508080600101915050610bcf565b508383838397509750975097505050505090919293565b828054600181600116156101000203166002900490600052602060002090601f016020900481019282601f10610ed357805160ff1916838001178555610f01565b82800160010185558215610f01579182015b82811115610f00578251825591602001919060010190610ee5565b5b509050610f0e9190610f12565b5090565b610f3491905b80821115610f30576000816000905550600101610f18565b5090565b90565b600081359050610f46816116de565b92915050565b600081359050610f5b816116f5565b92915050565b600082601f830112610f7257600080fd5b8135610f85610f808261153b565b61150e565b91508082526020830160208301858383011115610fa157600080fd5b610fac83828461168b565b50505092915050565b600082601f830112610fc657600080fd5b8135610fd9610fd482611567565b61150e565b91508082526020830160208301858383011115610ff557600080fd5b61100083828461168b565b50505092915050565b6000813590506110188161170c565b92915050565b60006020828403121561103057600080fd5b600061103e84828501610f37565b91505092915050565b6000806040838503121561105a57600080fd5b600061106885828601610f4c565b925050602061107985828601611009565b9150509250929050565b6000806040838503121561109657600080fd5b60006110a485828601610f37565b92505060206110b585828601611009565b9150509250929050565b6000602082840312156110d157600080fd5b600082013567ffffffffffffffff8111156110eb57600080fd5b6110f784828501610f61565b91505092915050565b6000806040838503121561111357600080fd5b600083013567ffffffffffffffff81111561112d57600080fd5b61113985828601610fb5565b925050602061114a85828601611009565b9150509250929050565b60006111608383611184565b60208301905092915050565b60006111788383611310565b60208301905092915050565b61118d81611631565b82525050565b61119c81611631565b82525050565b60006111ad826115ad565b6111b781856115f3565b93506111c283611593565b8060005b838110156111f35781516111da8882611154565b97506111e5836115d9565b9250506001810190506111c6565b5085935050505092915050565b600061120b826115b8565b6112158185611604565b9350611220836115a0565b8060005b83811015611251578151611238888261116c565b9750611243836115e6565b925050600181019050611224565b5085935050505092915050565b61126781611655565b82525050565b6000611278826115ce565b6112828185611615565b935061129281856020860161169a565b61129b816116cd565b840191505092915050565b60006112b1826115ce565b6112bb8185611626565b93506112cb81856020860161169a565b80840191505092915050565b60006112e2826115c3565b6112ec8185611615565b93506112fc81856020860161169a565b611305816116cd565b840191505092915050565b61131981611681565b82525050565b61132881611681565b82525050565b600061133a82846112a6565b915081905092915050565b60006101008201905061135b600083018b611193565b818103602083015261136d818a61126d565b905061137c604083018961131f565b611389606083018861131f565b6113966080830187611193565b6113a360a0830186611193565b81810360c08301526113b581856111a2565b905081810360e08301526113c98184611200565b90509998505050505050505050565b600060a0820190506113ed6000830188611193565b81810360208301526113ff81876112d7565b905061140e604083018661131f565b61141b606083018561131f565b611428608083018461125e565b9695505050505050565b60006080820190506114476000830187611193565b611454602083018661131f565b611461604083018561131f565b61146e606083018461131f565b95945050505050565b6000608082019050818103600083015261149181876111a2565b905081810360208301526114a58186611200565b905081810360408301526114b98185611200565b905081810360608301526114cd8184611200565b905095945050505050565b60006020820190506114ed600083018461125e565b92915050565b6000602082019050611508600083018461131f565b92915050565b6000604051905081810181811067ffffffffffffffff8211171561153157600080fd5b8060405250919050565b600067ffffffffffffffff82111561155257600080fd5b601f19601f8301169050602081019050919050565b600067ffffffffffffffff82111561157e57600080fd5b601f19601f8301169050602081019050919050565b6000602082019050919050565b6000602082019050919050565b600081519050919050565b600081519050919050565b600081519050919050565b600081519050919050565b6000602082019050919050565b6000602082019050919050565b600082825260208201905092915050565b600082825260208201905092915050565b600082825260208201905092915050565b600081905092915050565b600061163c82611661565b9050919050565b600061164e82611661565b9050919050565b60008115159050919050565b600073ffffffffffffffffffffffffffffffffffffffff82169050919050565b6000819050919050565b82818337600083830152505050565b60005b838110156116b857808201518184015260208101905061169d565b838111156116c7576000848401525b50505050565b6000601f19601f8301169050919050565b6116e781611631565b81146116f257600080fd5b50565b6116fe81611643565b811461170957600080fd5b50565b61171581611681565b811461172057600080fd5b5056fea265627a7a723058203c69d04eef37f0716ce320c656f13dbb7c941c576907f1f971331eee3bd687786c6578706572696d656e74616cf50037a265627a7a7230582004610fd5b0a479bf22ae7a2aeb4669829bffa04d941d391d34801b517057dcc86c6578706572696d656e74616cf50037",
  "source": "pragma solidity ^0.5.3;\r\npragma experimental ABIEncoderV2;\r\nimport './cDao.sol';\r\n\r\ncontract Corruption {\r\n\r\n    //This is for debugging / tracking successful builds\r\n    address[] allContracts;\r\n\r\n    //This will be the address of the creator of this contract, OpenOrigin.\r\n    address ourWallet;\r\n\r\n    constructor() payable public {\r\n        ourWallet = msg.sender;\r\n    }\r\n\r\n    function doCreateCorruptionContract(\r\n        string memory _fundName, address _debtIssuer, address _operatorOwner, uint _fundAmount, address[] memory _subContractors, uint[] memory _allocations)\r\n        public returns (address) {\r\n        cDao c = new cDao(_fundName,  _debtIssuer, _operatorOwner, _fundAmount, _subContractors, _allocations);\r\n        allContracts.push(address(c));\r\n        return address(c);\r\n    }\r\n\r\n    function getAllContracts() public view returns (address[] memory){\r\n        return allContracts;\r\n    }\r\n\r\n    function getTotalTokensInContract(address _cdao) public view returns (uint) {\r\n        return cDao(_cdao).getTotalTokens();\r\n    }\r\n\r\n    function getDaoDetails(address _cdao) public view returns (address, string memory, uint, uint, address, address, address[] memory, uint[] memory) {\r\n        return cDao(_cdao).getDaoDetails();\r\n    }\r\n\r\n    function getDaoBalance(address _cdao) public view returns (uint){\r\n        return cDao(_cdao).getDaoBalance();\r\n    }\r\n\r\n    function getDaoContractorsWithFunds(address _cdao) public view returns (address[] memory, uint[] memory, uint[] memory, uint[] memory){\r\n        return cDao(_cdao).getDaoContractorsWithFunds();\r\n    }\r\n\r\n    function doSubmitInvoice(address _cdao, string memory _fileHash, uint _amountRequested) public {\r\n        return cDao(_cdao).doSubmitInvoice(_fileHash, _amountRequested);\r\n    }\r\n\r\n    // Needs validation and testing.\r\n    function confirmInvoiceTransferTokens(address _cdao, address _to, uint256 _amountRequested) public returns (bool success) {\r\n        return cDao(_cdao).confirmInvoiceTransferTokens(_to, _amountRequested);\r\n    }\r\n\r\n    // Needs validation and testing.\r\n    function pullFundsBurnToken(address _cdao, address payable _to, uint _amount) public returns (bool success) {\r\n        return cDao(_cdao).pullFundsBurnToken(_to, _amount);\r\n    }\r\n}",
  "sourcePath": "C:/Users/Steami/Projects/b4g/contracts/Corruption.sol",
  "compiler": {
    "name": "solc",
    "version": "0.5.8+commit.23d335f2.Emscripten.clang"
  },
  "schemaVersion": "3.0.16",
  "updatedAt": "2019-10-27T22:56:37.227Z",
  "devdoc": {
    "methods": {}
  },
  "userdoc": {
    "methods": {}
  }
}