{
  "contractName": "Corruption",
  "abi": [
    {
      "inputs": [],
      "payable": true,
      "stateMutability": "payable",
      "type": "constructor"
    },
    {
      "constant": false,
      "inputs": [
        {
          "name": "_fundName",
          "type": "string"
        },
        {
          "name": "_debtIssuer",
          "type": "address"
        },
        {
          "name": "_operatorOwner",
          "type": "address"
        },
        {
          "name": "_fundAmount",
          "type": "uint256"
        },
        {
          "name": "_subContractors",
          "type": "address[]"
        },
        {
          "name": "_allocations",
          "type": "uint256[]"
        }
      ],
      "name": "doCreateCorruptionContract",
      "outputs": [
        {
          "name": "",
          "type": "address"
        }
      ],
      "payable": false,
      "stateMutability": "nonpayable",
      "type": "function"
    },
    {
      "constant": true,
      "inputs": [],
      "name": "getAllContracts",
      "outputs": [
        {
          "name": "",
          "type": "address[]"
        }
      ],
      "payable": false,
      "stateMutability": "view",
      "type": "function"
    },
    {
      "constant": true,
      "inputs": [
        {
          "name": "_cdao",
          "type": "address"
        }
      ],
      "name": "getTotalTokensInContract",
      "outputs": [
        {
          "name": "",
          "type": "uint256"
        }
      ],
      "payable": false,
      "stateMutability": "view",
      "type": "function"
    },
    {
      "constant": true,
      "inputs": [
        {
          "name": "_cdao",
          "type": "address"
        }
      ],
      "name": "getDaoDetails",
      "outputs": [
        {
          "name": "",
          "type": "address"
        },
        {
          "name": "",
          "type": "string"
        },
        {
          "name": "",
          "type": "uint256"
        },
        {
          "name": "",
          "type": "uint256"
        },
        {
          "name": "",
          "type": "address"
        },
        {
          "name": "",
          "type": "address"
        },
        {
          "name": "",
          "type": "address[]"
        }
      ],
      "payable": false,
      "stateMutability": "view",
      "type": "function"
    },
    {
      "constant": true,
      "inputs": [
        {
          "name": "_cdao",
          "type": "address"
        }
      ],
      "name": "getDaoBalance",
      "outputs": [
        {
          "name": "",
          "type": "uint256"
        }
      ],
      "payable": false,
      "stateMutability": "view",
      "type": "function"
    },
    {
      "constant": true,
      "inputs": [
        {
          "name": "_cdao",
          "type": "address"
        }
      ],
      "name": "getDaoContractorsWithFunds",
      "outputs": [
        {
          "name": "",
          "type": "address[]"
        },
        {
          "name": "",
          "type": "uint256[]"
        },
        {
          "name": "",
          "type": "uint256[]"
        },
        {
          "name": "",
          "type": "uint256[]"
        }
      ],
      "payable": false,
      "stateMutability": "view",
      "type": "function"
    },
    {
      "constant": false,
      "inputs": [
        {
          "name": "_cdao",
          "type": "address"
        },
        {
          "name": "_fileHash",
          "type": "string"
        },
        {
          "name": "_amountRequested",
          "type": "uint256"
        }
      ],
      "name": "doSubmitInvoice",
      "outputs": [],
      "payable": false,
      "stateMutability": "nonpayable",
      "type": "function"
    },
    {
      "constant": false,
      "inputs": [
        {
          "name": "_cdao",
          "type": "address"
        },
        {
          "name": "_to",
          "type": "address"
        },
        {
          "name": "_amountRequested",
          "type": "uint256"
        }
      ],
      "name": "confirmInvoiceTransferTokens",
      "outputs": [
        {
          "name": "success",
          "type": "bool"
        }
      ],
      "payable": false,
      "stateMutability": "nonpayable",
      "type": "function"
    },
    {
      "constant": false,
      "inputs": [
        {
          "name": "_cdao",
          "type": "address"
        },
        {
          "name": "_to",
          "type": "address"
        },
        {
          "name": "_amount",
          "type": "uint256"
        }
      ],
      "name": "pullFundsBurnToken",
      "outputs": [
        {
          "name": "success",
          "type": "bool"
        }
      ],
      "payable": false,
      "stateMutability": "nonpayable",
      "type": "function"
    }
  ],
  "bytecode": "0x608060405233600160006101000a81548173ffffffffffffffffffffffffffffffffffffffff021916908373ffffffffffffffffffffffffffffffffffffffff160217905550613210806100546000396000f3fe60806040523480156200001157600080fd5b5060043610620000a05760003560e01c806330407cb8116200006f57806330407cb81462000159578063441e3629146200018f578063b1e0428414620001c5578063d1b4d6a114620001fb578063f6d6a3f4146200023457620000a0565b806318d3ce9614620000a55780631d6f5a9e14620000c757806320f67d1b14620000fd5780632bc2d289146200011d575b600080fd5b620000af6200026a565b604051620000be91906200122a565b60405180910390f35b620000e56004803603620000df919081019062000b76565b620002fa565b604051620000f49190620012b7565b60405180910390f35b6200011b600480360362000115919081019062000c22565b62000398565b005b6200013b600480360362000135919081019062000b4a565b6200040e565b60405162000150979695949392919062001172565b60405180910390f35b62000177600480360362000171919081019062000b4a565b620004ba565b6040516200018691906200138a565b60405180910390f35b620001ad6004803603620001a7919081019062000b4a565b62000545565b604051620001bc91906200138a565b60405180910390f35b620001e36004803603620001dd919081019062000e6c565b620005d0565b604051620001f2919062001128565b60405180910390f35b62000219600480360362000213919081019062000b4a565b6200068c565b6040516200022b94939291906200124e565b60405180910390f35b6200025260048036036200024c919081019062000bcc565b62000728565b604051620002619190620012b7565b60405180910390f35b60606000805480602002602001604051908101604052809291908181526020018280548015620002f057602002820191906000526020600020905b8160009054906101000a900473ffffffffffffffffffffffffffffffffffffffff1673ffffffffffffffffffffffffffffffffffffffff1681526020019060010190808311620002a5575b5050505050905090565b60008373ffffffffffffffffffffffffffffffffffffffff1663d0bbdc2484846040518363ffffffff1660e01b81526004016200033992919062001145565b602060405180830381600087803b1580156200035457600080fd5b505af115801562000369573d6000803e3d6000fd5b505050506040513d601f19601f820116820180604052506200038f919081019062000e40565b90509392505050565b8273ffffffffffffffffffffffffffffffffffffffff16630e58eca483836040518363ffffffff1660e01b8152600401620003d592919062001356565b600060405180830381600087803b158015620003f057600080fd5b505af115801562000405573d6000803e3d6000fd5b50505050505050565b6000606060008060008060608773ffffffffffffffffffffffffffffffffffffffff166308746fd46040518163ffffffff1660e01b815260040160006040518083038186803b1580156200046157600080fd5b505afa15801562000476573d6000803e3d6000fd5b505050506040513d6000823e3d601f19601f82011682018060405250620004a1919081019062000c91565b9650965096509650965096509650919395979092949650565b60008173ffffffffffffffffffffffffffffffffffffffff1663f08b82e66040518163ffffffff1660e01b815260040160206040518083038186803b1580156200050357600080fd5b505afa15801562000518573d6000803e3d6000fd5b505050506040513d601f19601f820116820180604052506200053e919081019062000f4d565b9050919050565b60008173ffffffffffffffffffffffffffffffffffffffff1663f046f9846040518163ffffffff1660e01b815260040160206040518083038186803b1580156200058e57600080fd5b505afa158015620005a3573d6000803e3d6000fd5b505050506040513d601f19601f82011682018060405250620005c9919081019062000f4d565b9050919050565b600080878787878787604051620005e790620007c6565b620005f896959493929190620012d4565b604051809103906000f08015801562000615573d6000803e3d6000fd5b50905060008190806001815401808255809150509060018203906000526020600020016000909192909190916101000a81548173ffffffffffffffffffffffffffffffffffffffff021916908373ffffffffffffffffffffffffffffffffffffffff16021790555050809150509695505050505050565b6060806060808473ffffffffffffffffffffffffffffffffffffffff1663fb2a27ad6040518163ffffffff1660e01b815260040160006040518083038186803b158015620006d957600080fd5b505afa158015620006ee573d6000803e3d6000fd5b505050506040513d6000823e3d601f19601f8201168201806040525062000719919081019062000d70565b93509350935093509193509193565b60008373ffffffffffffffffffffffffffffffffffffffff166362fc581284846040518363ffffffff1660e01b815260040162000767929190620011fd565b602060405180830381600087803b1580156200078257600080fd5b505af115801562000797573d6000803e3d6000fd5b505050506040513d601f19601f82011682018060405250620007bd919081019062000e40565b90509392505050565b611bde80620015f983390190565b600081359050620007e58162001590565b92915050565b600081519050620007fc8162001590565b92915050565b6000813590506200081381620015aa565b92915050565b600082601f8301126200082b57600080fd5b8135620008426200083c82620013d5565b620013a7565b915081818352602084019350602081019050838560208402820111156200086857600080fd5b60005b838110156200089c5781620008818882620007d4565b8452602084019350602083019250506001810190506200086b565b5050505092915050565b600082601f830112620008b857600080fd5b8151620008cf620008c982620013d5565b620013a7565b91508181835260208401935060208101905083856020840282011115620008f557600080fd5b60005b838110156200092957816200090e8882620007eb565b845260208401935060208301925050600181019050620008f8565b5050505092915050565b600082601f8301126200094557600080fd5b81356200095c6200095682620013fe565b620013a7565b915081818352602084019350602081019050838560208402820111156200098257600080fd5b60005b83811015620009b657816200099b888262000b1c565b84526020840193506020830192505060018101905062000985565b5050505092915050565b600082601f830112620009d257600080fd5b8151620009e9620009e382620013fe565b620013a7565b9150818183526020840193506020810190508385602084028201111562000a0f57600080fd5b60005b8381101562000a43578162000a28888262000b33565b84526020840193506020830192505060018101905062000a12565b5050505092915050565b60008151905062000a5e81620015c4565b92915050565b600082601f83011262000a7657600080fd5b813562000a8d62000a878262001427565b620013a7565b9150808252602083016020830185838301111562000aaa57600080fd5b62000ab78382846200153a565b50505092915050565b600082601f83011262000ad257600080fd5b815162000ae962000ae38262001427565b620013a7565b9150808252602083016020830185838301111562000b0657600080fd5b62000b1383828462001549565b50505092915050565b60008135905062000b2d81620015de565b92915050565b60008151905062000b4481620015de565b92915050565b60006020828403121562000b5d57600080fd5b600062000b6d84828501620007d4565b91505092915050565b60008060006060848603121562000b8c57600080fd5b600062000b9c86828701620007d4565b935050602062000baf8682870162000802565b925050604062000bc28682870162000b1c565b9150509250925092565b60008060006060848603121562000be257600080fd5b600062000bf286828701620007d4565b935050602062000c0586828701620007d4565b925050604062000c188682870162000b1c565b9150509250925092565b60008060006060848603121562000c3857600080fd5b600062000c4886828701620007d4565b935050602084013567ffffffffffffffff81111562000c6657600080fd5b62000c748682870162000a64565b925050604062000c878682870162000b1c565b9150509250925092565b600080600080600080600060e0888a03121562000cad57600080fd5b600062000cbd8a828b01620007eb565b975050602088015167ffffffffffffffff81111562000cdb57600080fd5b62000ce98a828b0162000ac0565b965050604062000cfc8a828b0162000b33565b955050606062000d0f8a828b0162000b33565b945050608062000d228a828b01620007eb565b93505060a062000d358a828b01620007eb565b92505060c088015167ffffffffffffffff81111562000d5357600080fd5b62000d618a828b01620008a6565b91505092959891949750929550565b6000806000806080858703121562000d8757600080fd5b600085015167ffffffffffffffff81111562000da257600080fd5b62000db087828801620008a6565b945050602085015167ffffffffffffffff81111562000dce57600080fd5b62000ddc87828801620009c0565b935050604085015167ffffffffffffffff81111562000dfa57600080fd5b62000e0887828801620009c0565b925050606085015167ffffffffffffffff81111562000e2657600080fd5b62000e3487828801620009c0565b91505092959194509250565b60006020828403121562000e5357600080fd5b600062000e638482850162000a4d565b91505092915050565b60008060008060008060c0878903121562000e8657600080fd5b600087013567ffffffffffffffff81111562000ea157600080fd5b62000eaf89828a0162000a64565b965050602062000ec289828a01620007d4565b955050604062000ed589828a01620007d4565b945050606062000ee889828a0162000b1c565b935050608087013567ffffffffffffffff81111562000f0657600080fd5b62000f1489828a0162000819565b92505060a087013567ffffffffffffffff81111562000f3257600080fd5b62000f4089828a0162000933565b9150509295509295509295565b60006020828403121562000f6057600080fd5b600062000f708482850162000b33565b91505092915050565b600062000f87838362000fbe565b60208301905092915050565b600062000fa1838362001106565b60208301905092915050565b62000fb881620014f0565b82525050565b62000fc981620014dc565b82525050565b62000fda81620014dc565b82525050565b600062000fed826200146e565b62000ff98185620014a9565b9350620010068362001454565b8060005b838110156200103d57815162001021888262000f79565b97506200102e836200148f565b9250506001810190506200100a565b5085935050505092915050565b6000620010578262001479565b620010638185620014ba565b9350620010708362001461565b8060005b83811015620010a75781516200108b888262000f93565b975062001098836200149c565b92505060018101905062001074565b5085935050505092915050565b620010bf8162001504565b82525050565b6000620010d28262001484565b620010de8185620014cb565b9350620010f081856020860162001549565b620010fb816200157f565b840191505092915050565b620011118162001530565b82525050565b620011228162001530565b82525050565b60006020820190506200113f600083018462000fcf565b92915050565b60006040820190506200115c600083018562000fad565b6200116b602083018462001117565b9392505050565b600060e08201905062001189600083018a62000fcf565b81810360208301526200119d8189620010c5565b9050620011ae604083018862001117565b620011bd606083018762001117565b620011cc608083018662000fcf565b620011db60a083018562000fcf565b81810360c0830152620011ef818462000fe0565b905098975050505050505050565b600060408201905062001214600083018562000fcf565b62001223602083018462001117565b9392505050565b6000602082019050818103600083015262001246818462000fe0565b905092915050565b600060808201905081810360008301526200126a818762000fe0565b905081810360208301526200128081866200104a565b905081810360408301526200129681856200104a565b90508181036060830152620012ac81846200104a565b905095945050505050565b6000602082019050620012ce6000830184620010b4565b92915050565b600060c0820190508181036000830152620012f08189620010c5565b905062001301602083018862000fcf565b62001310604083018762000fcf565b6200131f606083018662001117565b818103608083015262001333818562000fe0565b905081810360a08301526200134981846200104a565b9050979650505050505050565b60006040820190508181036000830152620013728185620010c5565b905062001383602083018462001117565b9392505050565b6000602082019050620013a1600083018462001117565b92915050565b6000604051905081810181811067ffffffffffffffff82111715620013cb57600080fd5b8060405250919050565b600067ffffffffffffffff821115620013ed57600080fd5b602082029050602081019050919050565b600067ffffffffffffffff8211156200141657600080fd5b602082029050602081019050919050565b600067ffffffffffffffff8211156200143f57600080fd5b601f19601f8301169050602081019050919050565b6000602082019050919050565b6000602082019050919050565b600081519050919050565b600081519050919050565b600081519050919050565b6000602082019050919050565b6000602082019050919050565b600082825260208201905092915050565b600082825260208201905092915050565b600082825260208201905092915050565b6000620014e98262001510565b9050919050565b6000620014fd8262001510565b9050919050565b60008115159050919050565b600073ffffffffffffffffffffffffffffffffffffffff82169050919050565b6000819050919050565b82818337600083830152505050565b60005b83811015620015695780820151818401526020810190506200154c565b8381111562001579576000848401525b50505050565b6000601f19601f8301169050919050565b6200159b81620014dc565b8114620015a757600080fd5b50565b620015b581620014f0565b8114620015c157600080fd5b50565b620015cf8162001504565b8114620015db57600080fd5b50565b620015e98162001530565b8114620015f557600080fd5b5056fe60806040523480156200001157600080fd5b5060405162001bde38038062001bde833981018060405262000037919081019062000555565b30600460006101000a81548173ffffffffffffffffffffffffffffffffffffffff021916908373ffffffffffffffffffffffffffffffffffffffff1602179055504260038190555085600590805190602001906200009792919062000302565b5084600760006101000a81548173ffffffffffffffffffffffffffffffffffffffff021916908373ffffffffffffffffffffffffffffffffffffffff16021790555083600660006101000a81548173ffffffffffffffffffffffffffffffffffffffff021916908373ffffffffffffffffffffffffffffffffffffffff160217905550826008819055508260098190555082600a8190555060008090505b8251811015620002f55760405180608001604052808483815181106200015757fe5b602002602001015173ffffffffffffffffffffffffffffffffffffffff1681526020018383815181106200018757fe5b60200260200101518152602001838381518110620001a157fe5b602002602001015181526020016000815250600080858481518110620001c357fe5b602002602001015173ffffffffffffffffffffffffffffffffffffffff1673ffffffffffffffffffffffffffffffffffffffff16815260200190815260200160002060008201518160000160006101000a81548173ffffffffffffffffffffffffffffffffffffffff021916908373ffffffffffffffffffffffffffffffffffffffff160217905550602082015181600101556040820151816002015560608201518160030155905050600b8382815181106200027c57fe5b602002602001015190806001815401808255809150509060018203906000526020600020016000909192909190916101000a81548173ffffffffffffffffffffffffffffffffffffffff021916908373ffffffffffffffffffffffffffffffffffffffff16021790555050808060010191505062000135565b505050505050506200078b565b828054600181600116156101000203166002900490600052602060002090601f016020900481019282601f106200034557805160ff191683800117855562000376565b8280016001018555821562000376579182015b828111156200037557825182559160200191906001019062000358565b5b50905062000385919062000389565b5090565b620003ae91905b80821115620003aa57600081600090555060010162000390565b5090565b90565b600081519050620003c28162000757565b92915050565b600082601f830112620003da57600080fd5b8151620003f1620003eb8262000664565b62000636565b915081818352602084019350602081019050838560208402820111156200041757600080fd5b60005b838110156200044b5781620004308882620003b1565b8452602084019350602083019250506001810190506200041a565b5050505092915050565b600082601f8301126200046757600080fd5b81516200047e62000478826200068d565b62000636565b91508181835260208401935060208101905083856020840282011115620004a457600080fd5b60005b83811015620004d85781620004bd88826200053e565b845260208401935060208301925050600181019050620004a7565b5050505092915050565b600082601f830112620004f457600080fd5b81516200050b6200050582620006b6565b62000636565b915080825260208301602083018583830111156200052857600080fd5b6200053583828462000721565b50505092915050565b6000815190506200054f8162000771565b92915050565b60008060008060008060c087890312156200056f57600080fd5b600087015167ffffffffffffffff8111156200058a57600080fd5b6200059889828a01620004e2565b9650506020620005ab89828a01620003b1565b9550506040620005be89828a01620003b1565b9450506060620005d189828a016200053e565b935050608087015167ffffffffffffffff811115620005ef57600080fd5b620005fd89828a01620003c8565b92505060a087015167ffffffffffffffff8111156200061b57600080fd5b6200062989828a0162000455565b9150509295509295509295565b6000604051905081810181811067ffffffffffffffff821117156200065a57600080fd5b8060405250919050565b600067ffffffffffffffff8211156200067c57600080fd5b602082029050602081019050919050565b600067ffffffffffffffff821115620006a557600080fd5b602082029050602081019050919050565b600067ffffffffffffffff821115620006ce57600080fd5b601f19601f8301169050602081019050919050565b6000620006f082620006f7565b9050919050565b600073ffffffffffffffffffffffffffffffffffffffff82169050919050565b6000819050919050565b60005b838110156200074157808201518184015260208101905062000724565b8381111562000751576000848401525b50505050565b6200076281620006e3565b81146200076e57600080fd5b50565b6200077c8162000717565b81146200078857600080fd5b50565b611443806200079b6000396000f3fe608060405234801561001057600080fd5b506004361061009e5760003560e01c8063af35ae2711610066578063af35ae271461017a578063d0bbdc2414610198578063f046f984146101c8578063f08b82e6146101e6578063fb2a27ad146102045761009e565b806308746fd4146100a35780630e58eca4146100c75780631a20d71c146100e357806362fc581214610117578063a6078acc14610147575b600080fd5b6100ab610225565b6040516100be9796959493929190611041565b60405180910390f35b6100e160048036036100dc9190810190610dfc565b6103df565b005b6100fd60048036036100f89190810190610dbb565b610572565b60405161010e9594939291906110be565b60405180910390f35b610131600480360361012c9190810190610d7f565b610683565b60405161013e91906111be565b60405180910390f35b610161600480360361015c9190810190610d1a565b6106eb565b6040516101719493929190611118565b60405180910390f35b61018261073b565b60405161018f91906111d9565b60405180910390f35b6101b260048036036101ad9190810190610d43565b610745565b6040516101bf91906111be565b60405180910390f35b6101d06107b2565b6040516101dd91906111d9565b60405180910390f35b6101ee6107d1565b6040516101fb91906111d9565b60405180910390f35b61020c6107db565b60405161021c949392919061115d565b60405180910390f35b600060606000806000806060600460009054906101000a900473ffffffffffffffffffffffffffffffffffffffff166005600354600a54600760009054906101000a900473ffffffffffffffffffffffffffffffffffffffff16600660009054906101000a900473ffffffffffffffffffffffffffffffffffffffff16600b858054600181600116156101000203166002900480601f0160208091040260200160405190810160405280929190818152602001828054600181600116156101000203166002900480156103395780601f1061030e57610100808354040283529160200191610339565b820191906000526020600020905b81548152906001019060200180831161031c57829003601f168201915b50505050509550808054806020026020016040519081016040528092919081815260200182805480156103c157602002820191906000526020600020905b8160009054906101000a900473ffffffffffffffffffffffffffffffffffffffff1673ffffffffffffffffffffffffffffffffffffffff1681526020019060010190808311610377575b50505050509050965096509650965096509650965090919293949596565b3373ffffffffffffffffffffffffffffffffffffffff166000803373ffffffffffffffffffffffffffffffffffffffff1673ffffffffffffffffffffffffffffffffffffffff16815260200190815260200160002060000160009054906101000a900473ffffffffffffffffffffffffffffffffffffffff1673ffffffffffffffffffffffffffffffffffffffff16141561056e576040518060a001604052803373ffffffffffffffffffffffffffffffffffffffff168152602001838152602001428152602001828152602001600015158152506002836040516104c4919061102a565b908152602001604051809103902060008201518160000160006101000a81548173ffffffffffffffffffffffffffffffffffffffff021916908373ffffffffffffffffffffffffffffffffffffffff1602179055506020820151816001019080519060200190610535929190610b8e565b50604082015181600201556060820151816003015560808201518160040160006101000a81548160ff0219169083151502179055509050505b5050565b6002818051602081018201805184825260208301602085012081835280955050505050506000915090508060000160009054906101000a900473ffffffffffffffffffffffffffffffffffffffff1690806001018054600181600116156101000203166002900480601f01602080910402602001604051908101604052809291908181526020018280546001816001161561010002031660029004801561065a5780601f1061062f5761010080835404028352916020019161065a565b820191906000526020600020905b81548152906001019060200180831161063d57829003601f168201915b5050505050908060020154908060030154908060040160009054906101000a900460ff16905085565b6000600660009054906101000a900473ffffffffffffffffffffffffffffffffffffffff1673ffffffffffffffffffffffffffffffffffffffff163373ffffffffffffffffffffffffffffffffffffffff1614156106e457600190506106e5565b5b92915050565b60006020528060005260406000206000915090508060000160009054906101000a900473ffffffffffffffffffffffffffffffffffffffff16908060010154908060020154908060030154905084565b6000600a54905090565b60003373ffffffffffffffffffffffffffffffffffffffff166000803373ffffffffffffffffffffffffffffffffffffffff1673ffffffffffffffffffffffffffffffffffffffff16815260200190815260200160002060000160009054906101000a9050505092915050565b60003073ffffffffffffffffffffffffffffffffffffffff1631905090565b6000600954905090565b6060806060806060600b805490506040519080825280602002602001820160405280156108175781602001602082028038833980820191505090505b5090506060600b805490506040519080825280602002602001820160405280156108505781602001602082028038833980820191505090505b5090506060600b805490506040519080825280602002602001820160405280156108895781602001602082028038833980820191505090505b5090506060600b805490506040519080825280602002602001820160405280156108c25781602001602082028038833980820191505090505b50905060008090505b600b80549050811015610b7757600080600b83815481106108e857fe5b9060005260206000200160009054906101000a900473ffffffffffffffffffffffffffffffffffffffff1673ffffffffffffffffffffffffffffffffffffffff1673ffffffffffffffffffffffffffffffffffffffff16815260200190815260200160002060000160009054906101000a900473ffffffffffffffffffffffffffffffffffffffff1685828151811061097d57fe5b602002602001019073ffffffffffffffffffffffffffffffffffffffff16908173ffffffffffffffffffffffffffffffffffffffff1681525050600080600b83815481106109c757fe5b9060005260206000200160009054906101000a900473ffffffffffffffffffffffffffffffffffffffff1673ffffffffffffffffffffffffffffffffffffffff1673ffffffffffffffffffffffffffffffffffffffff16815260200190815260200160002060010154848281518110610a3c57fe5b602002602001018181525050600080600b8381548110610a5857fe5b9060005260206000200160009054906101000a900473ffffffffffffffffffffffffffffffffffffffff1673ffffffffffffffffffffffffffffffffffffffff1673ffffffffffffffffffffffffffffffffffffffff16815260200190815260200160002060020154838281518110610acd57fe5b602002602001018181525050600080600b8381548110610ae957fe5b9060005260206000200160009054906101000a900473ffffffffffffffffffffffffffffffffffffffff1673ffffffffffffffffffffffffffffffffffffffff1673ffffffffffffffffffffffffffffffffffffffff16815260200190815260200160002060030154828281518110610b5e57fe5b60200260200101818152505080806001019150506108cb565b508383838397509750975097505050505090919293565b828054600181600116156101000203166002900490600052602060002090601f016020900481019282601f10610bcf57805160ff1916838001178555610bfd565b82800160010185558215610bfd579182015b82811115610bfc578251825591602001919060010190610be1565b5b509050610c0a9190610c0e565b5090565b610c3091905b80821115610c2c576000816000905550600101610c14565b5090565b90565b600081359050610c42816113c4565b92915050565b600081359050610c57816113db565b92915050565b600082601f830112610c6e57600080fd5b8135610c81610c7c82611221565b6111f4565b91508082526020830160208301858383011115610c9d57600080fd5b610ca8838284611371565b50505092915050565b600082601f830112610cc257600080fd5b8135610cd5610cd08261124d565b6111f4565b91508082526020830160208301858383011115610cf157600080fd5b610cfc838284611371565b50505092915050565b600081359050610d14816113f2565b92915050565b600060208284031215610d2c57600080fd5b6000610d3a84828501610c33565b91505092915050565b60008060408385031215610d5657600080fd5b6000610d6485828601610c48565b9250506020610d7585828601610d05565b9150509250929050565b60008060408385031215610d9257600080fd5b6000610da085828601610c33565b9250506020610db185828601610d05565b9150509250929050565b600060208284031215610dcd57600080fd5b600082013567ffffffffffffffff811115610de757600080fd5b610df384828501610c5d565b91505092915050565b60008060408385031215610e0f57600080fd5b600083013567ffffffffffffffff811115610e2957600080fd5b610e3585828601610cb1565b9250506020610e4685828601610d05565b9150509250929050565b6000610e5c8383610e80565b60208301905092915050565b6000610e74838361100c565b60208301905092915050565b610e8981611317565b82525050565b610e9881611317565b82525050565b6000610ea982611293565b610eb381856112d9565b9350610ebe83611279565b8060005b83811015610eef578151610ed68882610e50565b9750610ee1836112bf565b925050600181019050610ec2565b5085935050505092915050565b6000610f078261129e565b610f1181856112ea565b9350610f1c83611286565b8060005b83811015610f4d578151610f348882610e68565b9750610f3f836112cc565b925050600181019050610f20565b5085935050505092915050565b610f638161133b565b82525050565b6000610f74826112b4565b610f7e81856112fb565b9350610f8e818560208601611380565b610f97816113b3565b840191505092915050565b6000610fad826112b4565b610fb7818561130c565b9350610fc7818560208601611380565b80840191505092915050565b6000610fde826112a9565b610fe881856112fb565b9350610ff8818560208601611380565b611001816113b3565b840191505092915050565b61101581611367565b82525050565b61102481611367565b82525050565b60006110368284610fa2565b915081905092915050565b600060e082019050611056600083018a610e8f565b81810360208301526110688189610f69565b9050611077604083018861101b565b611084606083018761101b565b6110916080830186610e8f565b61109e60a0830185610e8f565b81810360c08301526110b08184610e9e565b905098975050505050505050565b600060a0820190506110d36000830188610e8f565b81810360208301526110e58187610fd3565b90506110f4604083018661101b565b611101606083018561101b565b61110e6080830184610f5a565b9695505050505050565b600060808201905061112d6000830187610e8f565b61113a602083018661101b565b611147604083018561101b565b611154606083018461101b565b95945050505050565b600060808201905081810360008301526111778187610e9e565b9050818103602083015261118b8186610efc565b9050818103604083015261119f8185610efc565b905081810360608301526111b38184610efc565b905095945050505050565b60006020820190506111d36000830184610f5a565b92915050565b60006020820190506111ee600083018461101b565b92915050565b6000604051905081810181811067ffffffffffffffff8211171561121757600080fd5b8060405250919050565b600067ffffffffffffffff82111561123857600080fd5b601f19601f8301169050602081019050919050565b600067ffffffffffffffff82111561126457600080fd5b601f19601f8301169050602081019050919050565b6000602082019050919050565b6000602082019050919050565b600081519050919050565b600081519050919050565b600081519050919050565b600081519050919050565b6000602082019050919050565b6000602082019050919050565b600082825260208201905092915050565b600082825260208201905092915050565b600082825260208201905092915050565b600081905092915050565b600061132282611347565b9050919050565b600061133482611347565b9050919050565b60008115159050919050565b600073ffffffffffffffffffffffffffffffffffffffff82169050919050565b6000819050919050565b82818337600083830152505050565b60005b8381101561139e578082015181840152602081019050611383565b838111156113ad576000848401525b50505050565b6000601f19601f8301169050919050565b6113cd81611317565b81146113d857600080fd5b50565b6113e481611329565b81146113ef57600080fd5b50565b6113fb81611367565b811461140657600080fd5b5056fea265627a7a7230582040b157638791ec3cd18ce9ea2d14d1b0fc704c2ca9f407ebea3492aff12fadd06c6578706572696d656e74616cf50037a265627a7a72305820c957ae4016d2013ed31114b30c7c9ca00f9f8db6a1bce052bd62db97de4e07806c6578706572696d656e74616cf50037",
  "source": "pragma solidity ^0.5.3;\r\npragma experimental ABIEncoderV2;\r\nimport './cDao.sol';\r\n\r\ncontract Corruption {\r\n\r\n    //This is for debugging / tracking successful builds\r\n    address[] allContracts;\r\n\r\n    //This will be the address of the creator of this contract, OpenOrigin.\r\n    address ourWallet;\r\n\r\n    constructor() payable public {\r\n        ourWallet = msg.sender;\r\n    }\r\n\r\n    function doCreateCorruptionContract(\r\n        string memory _fundName, address _debtIssuer, address _operatorOwner, uint _fundAmount, address[] memory _subContractors, uint[] memory _allocations)\r\n        public returns (address) {\r\n        cDao c = new cDao(_fundName,  _debtIssuer, _operatorOwner, _fundAmount, _subContractors, _allocations);\r\n        allContracts.push(address(c));\r\n        return address(c);\r\n    }\r\n\r\n    function getAllContracts() public view returns (address[] memory){\r\n        return allContracts;\r\n    }\r\n\r\n    function getTotalTokensInContract(address _cdao) public view returns (uint) {\r\n        return cDao(_cdao).getTotalTokens();\r\n    }\r\n\r\n    function getDaoDetails(address _cdao) public view returns (address, string memory, uint, uint, address, address, address[] memory) {\r\n        return cDao(_cdao).getDaoDetails();\r\n    }\r\n\r\n    function getDaoBalance(address _cdao) public view returns (uint){\r\n        return cDao(_cdao).getDaoBalance();\r\n    }\r\n\r\n    function getDaoContractorsWithFunds(address _cdao) public view returns (address[] memory, uint[] memory, uint[] memory, uint[] memory){\r\n        return cDao(_cdao).getDaoContractorsWithFunds();\r\n    }\r\n\r\n    function doSubmitInvoice(address _cdao, string memory _fileHash, uint _amountRequested) public {\r\n        return cDao(_cdao).doSubmitInvoice(_fileHash, _amountRequested);\r\n    }\r\n\r\n    // Needs validation and testing.\r\n    function confirmInvoiceTransferTokens(address _cdao, address _to, uint256 _amountRequested) public returns (bool success) {\r\n        return cDao(_cdao).confirmInvoiceTransferTokens(_to, _amountRequested);\r\n    }\r\n\r\n    // Needs validation and testing.\r\n    function pullFundsBurnToken(address _cdao, address payable _to, uint _amount) public returns (bool success) {\r\n        return cDao(_cdao).pullFundsBurnToken(_to, _amount);\r\n    }\r\n}",
  "sourcePath": "C:/Users/Steami/Projects/b4g/contracts/Corruption.sol",
  "compiler": {
    "name": "solc",
    "version": "0.5.8+commit.23d335f2.Emscripten.clang"
  },
  "schemaVersion": "3.0.16",
  "updatedAt": "2019-10-27T17:47:04.849Z",
  "devdoc": {
    "methods": {}
  },
  "userdoc": {
    "methods": {}
  }
}